:04000000020029329F
:01000B0032C2
:0100130032BA
:01001B0032B2
:030023000201C413
:10008200750A00750B40750C00750D80750E0075B4
:100092000F0078727600787376007876760078783A
:0500A2007600020026BB
:030026000253275B
:1000A700D2B5E56BF0C2B522D2B5E0FFC2B58F82FB
:1000B70022C2B5E56BF0D2B522C2B5E0FFD2B58F4B
:1000C7008222AF827B007C007D007E00C2B58B82DE
:1000D7008C83EFF0D2B50BBB00090CBC00050DBD3E
:1000E70000010EC374FF9B74FF9CE49DE49E50DCEB
:1000F70022AF827B007C007D007E00C374FF9B746F
:10010700FF9CE49DE49E500122C2B58B828C83E064
:10011700FAEFB50202804A850C82850D83D2B57449
:100127008EF0C2B5E4F56BF56C900000C007C00611
:10013700C005C004C003120551905D6F75F08012B1
:10014700106BD003D0048B828C83C004C0031215BC
:1001570053900028120187D003D004D005D006D0D1
:1001670007850C82850D83D2B5748CF0C2B5D2B5E4
:100177000BBB00090CBC00050DBD00010E020102FE
:10018700AE82AF837C007D00C3EC9EED64808FF070
:1001970063F08095F0501B7AE87B03EA24FFF8EBC5
:1001A70034FFF988028903E84970F00CBC00D90DC7
:1001B70080D622228582992099FDC29922309808FB
:1001C70085990EC298750F0132AF82C2B4D2B58538
:1001D7000A82850B83EFF0C2B5D2B4D2B5850A8205
:1001E700850B83E56BF0C2B522AE82AF838F04C265
:1001F700B4D2B5850A82850B83ECF0C2B5C2B4D2FE
:10020700B5850A82850B83EEF0C2B5AE6CAC6BD2B6
:10021700B4D2B4D2B5850A82850B83EEF0C2B5D2CB
:10022700B4D2B5850A82850B83ECF0C2B522900063
:1002370004120187850C82850D83D2B5E4F0C2B51F
:10024700900004120187850C82850D83D2B574C096
:10025700F0C2B5900004120187850C82850D83D208
:10026700B574F9F0C2B5900004120187850C828538
:100277000D83D2B574A4F0C2B5900004120187852E
:100287000C82850D83D2B574B0F0C2B5900004120C
:100297000187850C82850D83D2B57499F0C2B5901C
:1002A7000004120187850C82850D83D2B57492F004
:1002B700C2B5900004120187850C82850D83D2B5E3
:1002C7007482F0C2B5900004120187850C82850DF7
:1002D70083D2B574F8F0C2B5900004120187850C7B
:1002E70082850D83D2B57480F0C2B59000041201E7
:1002F70087850C82850D83D2B57498F0C2B59000BE
:1003070004120187850C82850D83D2B57488F0C2EB
:10031700B5900004120187850C82850D83D2B574D0
:1003270083F0C2B5900004120187850C82850D8386
:10033700D2B574C6F0C2B5900004120187850C824D
:10034700850D83D2B574A1F0C2B590000412018760
:10035700850C82850D83D2B57486F0C2B5900004F2
:10036700120187850C82850D83D2B5748EF0C2B5D4
:10037700900004120187850C82850D83D2B574FF26
:10038700F0C2B5900004020187756B0790000F1249
:1003970003D47E007F00751E008E828F83C007C046
:1003A700061203DDD006D0070EBE00010FC3EE9480
:1003B7000DEF940040E0756B0490000F0203D4D258
:1003C700B590000DE0FFC2B5EF20E1F322AF6BD28D
:1003D700B5EFF0C2B522AE82AF83D2B590000D74EF
:1003E70001F0C2B5C007C0061203C6D006D007D2B7
:1003F700B58E828F83E4F0C2B5AF1ED2B590000DE3
:10040700EFF0C2B522AE82AF83D2B590000D740172
:10041700F0C2B5C007C0061203C6D006D007D2B5D2
:100427008E828F83E0FEC2B5740F5E4430FFD2B573
:1004370090000DE4F0C2B58F822275270075213A2E
:1004470075243AD2B590000D7401F0C2B51203C6F7
:10045700D2B5900002E0FFC2B5740F5F4430FFD2FF
:10046700B590000DE4F0C2B5D2B590000D7401F05F
:10047700C2B5C0071203C6D2B5900003E0FEC2B5ED
:10048700740F5E4430FED2B590000DE4F0C2B5D2D1
:10049700B590000D7401F0C2B5C0061203C6D2B5FF
:1004A700900004E0FDC2B5740F5D4430FDD2B590F5
:1004B700000DE4F0C2B5D2B590000D7401F0C2B5DD
:1004C700C0051203C6D2B5900005E0FCC2B5740F93
:1004D7005C4430FCD2B590000DE4F0C2B5D2B590C3
:1004E700000D7401F0C2B5C0041203C6D2B5900066
:1004F70000E0FBC2B5740F5B4430FBD2B590000D32
:10050700E4F0C2B5D2B590000D7401F0C2B5C003D6
:100517001203C6D003D004D005D006D007D2B590B9
:100527000001E0FAC2B5740F5A4430FAD2B5900010
:100537000DE4F0C2B58C1F8D208E228F238A258B68
:100547002690001F75F04002106B8582108583117D
:10055700856B12856C1322858216858317856B1828
:10056700856C1922E582FF24F7500122EF60068F80
:10057700067F0080047E017F008E1422E582FF241F
:10058700FC404EEF2F9005907380068014802280E8
:10059700307F48751AF0751B00751C40751D01806A
:1005A7003E7F28751A40751B01751CF0751D00806C
:1005B7002E7F88751AF0751B00751C40751D01800C
:1005C7001E7FE8751A40751B01751CF0751D0080AC
:1005D7000E7F48751AF0751B00751C40751D018F3D
:1005E7006B7582360201D0AE82AF83C2B4D2B585B5
:1005F7000A82850B83742AF0C2B5D2B4D2B5850AB4
:1006070082850B838F05EDF0C2B5D2B4D2B5850ACA
:1006170082850B83EEF0C2B5D2B4D2B5850A828546
:100627000B83E56EF0C2B5D2B4D2B5850A82850BCD
:1006370083E56DF0C2B5C2B4D2B5850A82850B8356
:10064700742BF0C2B5D2B4D2B5850A82850B83E587
:100657006CF0C2B5D2B4D2B5850A82850B83E56B3F
:10066700F0C2B5D2B4D2B5850A82850B83E570F0A6
:10067700C2B5D2B4D2B5850A82850B83E56FF0C2C5
:10068700B522751AF0751B00751C40751D01C2B5A2
:10069700D2B4C2B4D2B5850A82850B83E4F0C2B561
:1006A700D2B4D2B5850A82850B83E4F0C2B5D2B441
:1006B700D2B5850A82850B83E4F0C2B5D2B4D2B530
:1006C700850A82850B83E4F0C2B590006412018726
:1006D700756B007582011201D09000321201877587
:1006E7006B007582281201D090000A120187756B82
:1006F700237582C01201D0756B117582C11201D0AA
:10070700C2B4D2B5850A82850B8374C5F0C2B5D24F
:10071700B4D2B5850A82850B83743DF0C2B5D2B4D5
:10072700D2B5850A82850B837430F0C2B5756BAA82
:100737007582C71201D0756B887582361201D0C2D7
:10074700B4D2B5850A82850B83743AF0C2B5D2B4A8
:10075700D2B5850A82850B837455F0C2B5D2B4D25F
:10076700B5850A82850B83E4F0C2B5756B1B756C82
:10077700009000B11201F0756B077582B71201D0B6
:10078700756B007582111201D09000641201877594
:100797006B007582291201D0900096120187E51A25
:1007A70024FFF56DE51B34FFF56EE51C24FFF56F9F
:1007B700E51D34FFF570E4F56BF56C90000002055C
:1007C700EEAE82AF8374012EF56DE43FF56E7401D2
:1007D7002528F56FE43529F57085286B85296C8EFA
:1007E700828F831205EEC2B4D2B5850A82850B8348
:1007F700742CF0C2B5D2B4D2B5850A82850B83E5D5
:100807002BF0C2B5D2B5850A82850B83E52AF0C2E3
:10081700B5228582328583337401C3952EF534E47E
:10082700952FF535852E6B852F6C90FFFE12576C33
:10083700AA82AB83A82EA92FE8252CF528E9352D08
:10084700F52985302A85312B853282853383C0038C
:10085700C002C001C0001207C8D000D001E52CC3F8
:1008670098F528E52D99F52985302A85312B85328C
:1008770082853383C001C0001207C8D000D001E8C9
:100887002532F582E93533F583852C28852D298591
:10089700302A85312BC001C0001207C8D000D00113
:1008A700E532C398F582E53399F583852C28852DA4
:1008B7002985302A85312BC001C0001207C8D00016
:1008C700D001D002D003E4F538F539753601F53794
:1008D700C3E53898E539648089F063F08095F04086
:1008E7000122E53520E71618B8FF011974022AFA24
:1008F700E43BFBEA2534F534EB3535F535C002C06A
:10090700030538E4B53802053974022536F536E4AF
:100917003537F537E5362534F534E5373535F535EB
:10092700E5382532FEE5393533FFE8252CFCE93576
:100937002DFD8C288D2985302A85312B8E828F833A
:10094700C007C006C005C004C003C002C001C00084
:100957001207C8D000D001D002D003D004D005E5DB
:1009670032C39538FAE5339539FB8C288D298530C4
:100977002A85312B8A828B83C003C002C001C00045
:100987001207C8D000D001D002D003D006D007E5A7
:100997002CC398FCE52D99FD8C288D2985302A8557
:1009A700312B8E828F83C005C004C003C002C001F3
:1009B700C0001207C8D000D001D002D003D004D0A5
:1009C700058C288D2985302A85312B8A828B83C017
:1009D70003C002C001C0001207C8D000D001D00276
:1009E700D003E82532FEE93533FFE538252CFCE551
:1009F70039352DFD8C288D2985302A85312B8E821E
:100A07008F83C007C006C005C004C003C002C00171
:100A1700C0001207C8D000D001D002D003D004D044
:100A270005E532C398FAE53399FB8C288D29853083
:100A37002A85312B8A828B83C003C002C001C00084
:100A47001207C8D000D001D002D003D006D007E5E6
:100A57002CC39538FCE52D9539FD8C288D298530DB
:100A67002A85312B8E828F83C005C004C003C00244
:100A7700C001C0001207C8D000D001D002D003D0F7
:100A870004D0058C288D2985302A85312B8A828BC5
:100A970083C003C002C001C0001207C8D000D00144
:100AA700D002D003D003D0020208D7AE827F00EE77
:100AB7002EFCEF33FD8E028F03EA251AF53CEB354A
:100AC7001BF53DEA251CF53EEB351DF53F78007912
:100AD70000C3E8953CE96480853DF063F08095F0BC
:100AE700505A7A007B00C3EA953EEB6480853FF05D
:100AF70063F08095F0503D8A2C8B2D8E2E8F2F859D
:100B07003A30853B3188828983C007C006C005C05B
:100B170004C003C002C001C000120819D000D001F0
:100B2700D002D003D004D005D006D007EC2AFAEDC6
:100B37003BFB80B2EC28F8ED39F9809522AE82AF05
:100B470083C3EE94F0EF9400500BC3E5409440E567
:100B5700419401400122E5422EFCE5433FFD1CBCC8
:100B6700FF011DC3EC94F0ED9400400A74F0C39E9E
:100B7700F542E49FF543E5442540FCE5453541FD55
:100B87001CBCFF011DC3EC9440ED9401400D744063
:100B9700C39540F54474019541F545E5422EFCE5C2
:100BA700433FFDEC24FFF56DED34FFF56EE544257D
:100BB70040FCE5453541FDEC24FFF56FED34FFF5CD
:100BC7007085406B85416C8E828F831205EEC2B4AF
:100BD700D2B5850A82850B83742CF0C2B5D2B4AF27
:100BE70047AD44AE45ED4E6030AB42AC43EB4C6095
:100BF70021D2B5850A82850B83EFF0C2B5D2B585C0
:100C07000A82850B83E546FAF0C2B51BBBFF011CC0
:100C170080DB1DBDFF011E80CC22AE82AF838F0516
:100C2700E4F56BF56C756DEFF56E756F27F57090E4
:100C37000000C006C0051205EED005D006C2B4D22A
:100C4700B5850A82850B83742CF0C2B5D2B4D2B5B0
:100C5700850A82850B83EDF0C2B5D2B5850A8285F8
:100C67000B83EEF0C2B57C967F008C028F031CBC11
:100C7700FF011FEA4B60667B10D2B5850A82850BA0
:100C870083EDF0C2B5D2B5850A82850B83EEF0C23B
:100C9700B5D2B5850A82850B83EDF0C2B5D2B5858D
:100CA7000A82850B83EEF0C2B5D2B5850A82850B21
:100CB70083EDF0C2B5D2B5850A82850B83EEF0C20B
:100CC700B5D2B5850A82850B83EDF0C2B5D2B5855D
:100CD7000A82850B83EEF0C2B5DB9E808D7F3F8F46
:100CE700041FEC601AD2B5850A82850B83EDF0C22A
:100CF700B5D2B5850A82850B83EEF0C2B580E022B6
:100D0700AE82AF838F05E4F56BF56C756DEFF56E0D
:100D1700756F3F757001900000C006C0051205EEA3
:100D2700D005D006C2B4D2B5850A82850B83742C50
:100D3700F0C2B5D2B4D2B5850A82850B83EDF0C275
:100D4700B5D2B5850A82850B83EEF0C2B57CB07F3C
:100D5700048C028F031CBCFF011FEA4B60667B10EB
:100D6700D2B5850A82850B83EDF0C2B5D2B5850A67
:100D770082850B83EEF0C2B5D2B5850A82850B83D7
:100D8700EDF0C2B5D2B5850A82850B83EEF0C2B508
:100D9700D2B5850A82850B83EDF0C2B5D2B5850A37
:100DA70082850B83EEF0C2B5D2B5850A82850B83A7
:100DB700EDF0C2B5D2B5850A82850B83EEF0C2B5D8
:100DC700DB9E808D7F3F8F041FEC601AD2B5850AAA
:100DD70082850B83EDF0C2B5D2B5850A82850B8378
:100DE700EEF0C2B580E022900000020D0785825028
:100DF700858351C3E55094F0E55164809480505940
:100E0700C3E5489440E54964809481504CAC4F7DDC
:100E1700008C6B8D6C900006C005C00412576CAA3D
:100E270082AB83D004D005EA2550FAEB3551FB1A83
:100E3700BAFF011BEB20E721EDC40354F8CCC40330
:100E4700CC6CCC54F8CC6CFDEC2548FCED3549FD59
:100E57001CBCFF011DED30E701227401B54F04747E
:100E6700018001E4FDFCE54BB54D09E54CB54E04A9
:100E770074018001E4FB75520074FA255250012277
:100E87007405B552057553008031854A6B756C0042
:100E9700900005C005C004C00312576CA882AF8339
:100EA700D003D004D005E82464F8EF3458FFE552A6
:100EB70028F582E43FF583E493F5538552F0E54F37
:100EC700A42550FEE55135F0FF8E548F557800B8B4
:100ED70008004003021000E55320E003020F6EED07
:100EE7006040A9527A00E92550F582EA3551F58329
:100EF70088017A00E92548F528EA3549F529854B1F
:100F07002A854C2BC007C006C005C004C003C0001B
:100F17001207C8D000D003D004D005D006D00702EE
:100F27000FF688F0E54FA42548F540E54935F0F57B
:100F370041A94F7A0089428A4389448A45854B46AD
:100F4700854C47855482855583C007C006C005C0B8
:100F570004C003C000120B44D000D003D004D00556
:100F6700D006D007020FF6EB6003020FF6EC603FE6
:100F7700A9527A00E92550F582EA3551F5838801AF
:100F87007A00E92548F528EA3549F529854D2A8566
:100F97004E2BC007C006C005C004C003C00012071F
:100FA700C8D000D003D004D005D006D00780408831
:100FB700F0E54FA42548F540E54935F0F541A94F3F
:100FC7007A0089428A4389448A45854D46854E473A
:100FD7008E828F83C007C006C005C004C003C0004F
:100FE700120B44D000D003D004D005D006D007E5BB
:100FF70053C313F55308020ED60552020E80AF8273
:10100700BF0A22AD14E4C40354F8CDC403CD6DCD9B
:1010170054F8CD6DFEED2512F512EE3513F513E4F8
:10102700F510F51122BF0D01228512488513498F4E
:101037004A85164B85174C85184D85194E85144FD3
:10104700851082851183120DF485146B756C0090E1
:10105700000612576CAE82AF83EE2510F510EF3500
:1010670011F51122AD82AE83AFF07B007C00EB2D32
:10107700F8EC3EF98F02888289838AF01257D6FAF4
:1010870060208A82C007C006C005C004C0031210D2
:1010970005D003D004D005D006D0070BBB00CF0C7A
:1010A70080CC2275820A0210057F007E01C007C02E
:1010B70006120DEEE4F56BF56C900000120551E495
:1010C700F56BF56C90F81F12055E905D8075F080EA
:1010D70012106BE4F56BF56C9007FF12055E905DDF
:1010E7008D75F08012106BD006D007BF0802800301
:1010F7000211777F0075820AC007C006121005D05B
:1011070006D007BE0455900005C007120187120DCF
:10111700EEE4F56BF56C90F81F12055E12044112B0
:101127000DEEE4F56BF56C900000120551E4F56BDC
:10113700F56C90F81F12055E905D8075F0801210B7
:101147006BE4F56BF56C9007FF12055E905D8D758E
:10115700F08012106BD0077E018090905D8D75F046
:1011670080C007C00612106BD006D0070E0210F21F
:10117700C007C006121189121005D006D0070F024A
:1011870010F27590F0E59054F0FFBFF0F8859008E5
:101197005308F074F0B50804E50F60F190000A12E7
:1011A7000187E59054F0FFB508028004E50F60DD84
:1011B7007401B50F09E50EFF24C0F50E8052759036
:1011C700FEE59054F0F50874F0B50802800575093E
:1011D70000803D7590FDE59054F0F50874F0B50872
:1011E70002800575090180287590FBE59054F0F59C
:1011F7000874F0B50802800575090280137590F729
:10120700E59054F0F50874F0B5080280A37509035A
:101217007401B50F07750F00850E822274E0B508BB
:1012270015E50975F004A4245FF582745D35F0F5C2
:1012370083E493F5822274D0B50818E50975F004A4
:10124700A4245FFE745D35F0FF8E828F83A3E49341
:10125700F5822274B0B50819E50975F004A4245F76
:10126700FE745D35F0FF8E828F83A3A3E493F5822E
:1012770022E50975F004A4245FFE745D35F0FF8E46
:10128700828F83A3A3A3E493F58222AF827D007E9E
:1012970000BF010040608F037C00756B0A8C6C8B6C
:1012A700828C83C006C005C004C0031257F2A9820E
:1012B700AA83D003D004756B0A756C008B828C836C
:1012C700C002C001125828AB82D001D002D005D08D
:1012D700068B078D6B8E6C90000AC007C002C00199
:1012E70012576CE5828583F0D001D002D00729FD23
:1012F700EA35F0FE809B8D828E8322AE82AF837C9F
:10130700007D00C3EE9401EF94004069756B0A7588
:101317006C008E828F83C007C006C005C0041257B9
:1013270089AA82AB83D004D005D006D007756B0A93
:10133700756C008E828F83C005C004C003C0021283
:101347005743AE82AF83D002D003D004D0058C6B55
:101357008D6C90000AC007C006C003C00212576C0C
:10136700E5828583F0D002D003D006D0072AFCEBB4
:1013770035F0FD808E8C828D8322E582FF700475A7
:10138700823022BF010475823122BF020475823286
:1013970022BF030475823322BF040475823422BF3F
:1013A700050475823522BF060475823622BF0704FD
:1013B70075823722BF080475823822BF09047582F7
:1013C7003922BF0A0475824122BF0B04758242226B
:1013D700BF0C0475824322BF0D0475824422BF0EE1
:1013E7000475824522BF0F04758246227582FF224B
:1013F700AF82BF300475820022BF3104758201229B
:10140700BF320475820222BF330475820322BF34C0
:101417000475820422BF350475820522BF36047520
:10142700820622BF370475820722BF3804758208F7
:1014370022BF390475820922BF410475820A22BF7F
:10144700420475820B22BF430475820C22BF4404F9
:1014570075820D22BF450475820E22BF4604758230
:101467000F227582FF22121292AE82AF83C3EE94CF
:1014770001EF9400403E756B0A756C008E828F8376
:10148700C007C006125789AC82D006D007756B0A11
:10149700756C008E828F83C004125743AE82AF8370
:1014A700D00474302CF582C007C006121005D00690
:1014B700D00780B975820A021005AF82755600758C
:1014C70057007E00BF0100405A8F047D00740F5CF7
:1014D700FA756B108D6C8C828D83C006C002125812
:1014E70028AC82D002D0068C07EA24F6400CEE2402
:1014F70056F98A0574302DF78026EE2456F97D00BB
:10150700756B0A8D6C8A828D83C007C006C0011275
:1015170057F2AC82AD83D001D006D00774412CF7C7
:101527000E80A1855782121005855682021005127A
:101537001381021005E582FFC4540FF582C007121C
:101547001536D007740F5FF582021536AE82AF836A
:101557008F82C007C00612153CD006D0078E8202C4
:10156700153C121302AE82AF83C3EE9401EF9400D1
:101577004044756B0A756C008E828F83C007C00666
:10158700125789AC82AD83D006D007756B0A756C8C
:10159700008E828F83C005C004125743AE82AF838B
:1015A700D004D00574302CF582C007C00612100590
:1015B700D006D00780B322021005AE82AF838F8298
:1015C700C007C0061215BED006D0078E820215BE10
:1015D7007582001205839007FF120D079000001215
:1015E7000C2175820512056BE4F56BF56C9007FF0E
:1015F70012055EE4F56BF56C90000A120551905DDB
:101607009075F08012106B75820212056B756BFF77
:10161700756C0790000012055E905D9975F0801259
:10162700106B900028020187E4F56BF56C9007FFBB
:1016370002055EE4F56BF56C90F81F02055E756BAD
:10164700FF756C0790F81F02055E756BFF756C07D9
:1016570090000002055EE4F56BF56C90D6BA0205C2
:101667005E756BBA756CD690000002055EE4F56B8B
:10167700F56C90F80002055EE4F56BF56C90FFFFE2
:1016870002055EE4F56BF56C9007E002055EE4F594
:101697006BF56C90FFE002055E121189AF82C007FF
:1016A700121005D0078F821213F7E582C454F0FE9B
:1016B7007F00C007C006121189AD82C00512100550
:1016C700D0058D821213F7AD82D006D0078D047D29
:1016D70000EF4205EE4204C005C004121189AF8233
:1016E700D004D0058F82C007C005C004121005D0F2
:1016F70004D005D0078F82C005C0041213F7AF824C
:10170700D004D005E4CFC4CF6FCF54F0CF6FFEED38
:101717004207EC4206C007C006121189AD82C00518
:10172700121005D0058D821213F7AD82D006D007AF
:101737007C00ED4FF582EC4EF58322121189AF82C2
:101747007871A6078F820213F7121189AF82787119
:10175700A6078F82121005787186821213F7AF825F
:101767007871A607EFC454F0FFC007121189AE8243
:101777007871A6068E82121005787186821213F789
:10178700AE82D0077871A606EE4FF58222E4F56B9C
:10179700F56C900000120551120DEE90D6BA120C9E
:1017A7002175820512056B121668E4F56BF56C90CE
:1017B700001E120551905DC075F08012106B758286
:1017C7000212056B756B3C756C0090000012055199
:1017D70012167F905DC875F08012106B12162F904D
:1017E7005DCD75F08012106B756B3C756C009000C9
:1017F7007812055112167F905DD475F08012106B28
:1018070012162F905DD975F08012106B756B647589
:101817006C0090000012055112167F905DE075F084
:101827008012106B12162F905DE575F08012106B09
:10183700756B64756C0090007812055112167F90D5
:101847005DEC75F08012106B12162F905DF175F03C
:101857008012106B756B8C756C009000001205512F
:1018670012167F905DF875F08012106B12162F908C
:101877005DFD75F08012106B756BB4756C00900090
:101887000012055112167F905E0575F08012106BDD
:1018970012162F905E0A75F08012106B756BDC754F
:1018A7006C0090000012055112167F905E1675F0BD
:1018B7008012106B12162F905E1B75F08012106B42
:1018C70075820112056B7872E67009905E2175F0DA
:1018D7008012106B7872B60109905E2E75F0801237
:1018E700106B75820202056B7F00787C76017D01A3
:1018F7007B01C007C005C003120DEE90D6BA120CCB
:101907002175820512056B121668E4F56BF56C906C
:10191700001E120551905E3A75F08012106B121678
:101927002F75820212056B756B3C756C0090000079
:10193700120551905E4275F08012106B756B5075F1
:101947006C0090000012055112165D905E5675F0FE
:101957008012106B12162F756B8C756C009000003F
:10196700120551905E5E75F08012106B756BA07555
:101977006C0090000012055112165D905E7375F0B1
:101987008012106B756BF0756C009000001205519A
:10199700905E9575F08012106B12165D905EA275C1
:1019A700F08012106B12163A756B3C756C00900044
:1019B70000120551905EA575F08012106B756B5083
:1019C700756C00900000120551905EB875F080129A
:1019D700106B121645905D8D75F08012106B121604
:1019E700A0787AA68208A683D003D005787A8604E1
:1019F700088606C006C005C004C00312162F756B03
:101A07003C756C00900000120551905EA575F08042
:101A170012106B756B50756C009000001205519099
:101A27005EB875F08012106B121651905D8D75F0CF
:101A37008012106B787A86820886831215531216E5
:101A47003A756B8C756C00900000120551905EBA68
:101A570075F08012106B756BA0756C00900000120A
:101A6700055112167F905E7375F08012106BD003CC
:101A7700D004D005D006D007ED7003021BFB756BB1
:101A8700A0756C00900000C006C005C004C003121A
:101A9700055112167F905ECE75F08012106B1217EB
:101AA70042AF82D003D004D005D006BF015B7D00D2
:101AB700C007C006C005C004C00312162F756B8C83
:101AC700756C00900000120551905EBA75F0801297
:101AD700106B756BA0756C00900000120551905E3D
:101AE700D175F08012106B121651905ED475F0808C
:101AF70012106B12165D905EDE75F08012106BD0BF
:101B070003D004D005D006D007BF025E7D00C00712
:101B1700C006C005C004C00312162F756B8C756C08
:101B270000900000120551905EBA75F08012106B9C
:101B3700756BA0756C0090000012055112165D9030
:101B47005F0275F08012106B121651905F0675F0E8
:101B57008012106B12165D905F1075F08012106B7B
:101B6700D003D004D005D006D007BF045E7D00C0E7
:101B770007C006C005C004C00312162F756B8C750D
:101B87006C00900000120551905EBA75F08012103B
:101B97006B756BA0756C0090000012055112165DF5
:101BA700905F3375F08012106B121651905F387585
:101BB700F08012106B12165D905F1075F080121096
:101BC7006BD003D004D005D006D007ED7003021AFE
:101BD7007FC007C006C005C004C003121674905F1B
:101BE7004275F08012106BD003D004D005D006D018
:101BF70007021A7FEB7003021CF6756BF0756C0019
:101C0700900000C007C006C004C003120551121699
:101C17003A905F5D75F08012106B121645121189AC
:101C2700AD827871A6058D821210057871868212B1
:101C370013F7AD82D003D004C005C004C003121649
:101C47002FD003D004D005D006D007EDB50702800A
:101C57004FC007C006C004C00312163A905E9575C0
:101C6700F08012106B12165D905EA275F080121054
:101C77006B756B04756C0190000012055112167498
:101C8700905F6B75F08012106B756BF0756C009040
:101C97000000120551D003D004D006D007021BFB69
:101CA700756BF0756C00900000C007C006C0041289
:101CB700055112162F905F5D75F08012106B12168A
:101CC70051787186821210057B00756B04756C0163
:101CD700900000C00312055112168A905F8675F0B6
:101CE7008012106BD003D004D006D007021BFB90E4
:101CF7000028C007C006C004120187120DEE90D657
:101D0700BA120C2175820512056B121668E4F56B81
:101D1700F56C90001E120551905E3A75F080121016
:101D27006B12162FD004D006D007BF0103EF800136
:101D3700E4FDE4BF020104F55AE4BF040104FF789F
:101D47007CE6700122758202C007C006C005C00488
:101D570012056B12167F756B3C756C0090000012B4
:101D67000551905FA875F08012106B12162F756BD6
:101D770050756C00900000120551905FB275F080AD
:101D870012106B787A8682088683121553D004D096
:101D970005D006D007ED7003021E64756B78756C6D
:101DA70000900000C007C006C005C004120551120C
:101DB700167F905FB675F08012106B12162F756B39
:101DC7008C756C0090000A120551D004D005D0061E
:101DD700C2B58C828E83E0F582D2B5C006C005C03D
:101DE7000412153C756BB4756C0090000012055118
:101DF70012167F905FC175F08012106B12162F7547
:101E07006BC8756C0090000A120551D004D005D03C
:101E170006C2B58C828E83E0F582D2B5C006C005B6
:101E2700C0041215BE756BF0756C009000001205AA
:101E37005112167F905FCE75F08012106B756B0490
:101E4700756C0190000012055112162F905FDA751C
:101E5700F08012106BD004D005D006D007E55A7079
:101E670003021F88C007756B78756C00900000C06F
:101E770007C006C005C00412055112167F905FB651
:101E870075F08012106B12162F756B8C756C0090A5
:101E9700000A120551D004D005D006C2B58C828E37
:101EA70083E0F582D2B5C006C005C00412153CD048
:101EB70004D005D006D00774012CFBE43EFFC2B561
:101EC7008B828F83E0F582D2B5C007C005C00312AD
:101ED700153CD003D005D0071BBBFF011F756BB4A2
:101EE700756C00900000C007C005C00312055112B1
:101EF700167F905FC175F08012106B12162F756BED
:101F0700C8756C0090000A120551D003D005D007A0
:101F1700C2B58B828F83E0F582D2B5C007C005C0FA
:101F2700031215BED003D005D00774012BFCE43F84
:101F3700FEC2B58C828E83E0F582D2B5C007C0069B
:101F4700C005C0041215BE756BF0756C00900000DB
:101F570012055112167F905FCE75F08012106B122A
:101F6700162F756B04756C01900000120551905F78
:101F7700E075F08012106BD004D005D006D007D0E2
:101F870007EF7003022135756B78756C00900000C0
:101F9700C007C006C005C00412055112167F905F26
:101FA700B675F08012106B12162F756B8C756C005E
:101FB70090000A120551D004D005D006C2B58C8214
:101FC7008E83E0F582D2B5C006C005C00412153C69
:101FD700D004D005D00674012CFAE43EFBC2B58AC2
:101FE700828B83E0F582D2B5C005C003C00212150B
:101FF7003CD002D003D005D0070ABA00010BC2B506
:102007008A828B83E0F582D2B5C007C005C003C0C2
:102017000212153CD002D00374012AF558E43BF5AF
:1020270059C2B5855882855983E0FBD2B58B821298
:10203700153CD005D007E55824FFFAE55934FFFBD6
:102047001ABAFF011B1ABAFF011B756BB4756C0036
:10205700900000C007C005C003C002120551121648
:102067007F905FC175F08012106B12162F756BC8C9
:10207700756C0090000A120551D002D003C2B58AD0
:10208700828B83E0F582D2B5C003C0021215BED0A1
:1020970002D003D005D0070ABA00010BC2B58A8265
:1020A7008B83E0F582D2B5C007C005C003C002121A
:1020B70015BED002D003D005D0070ABA00010BC263
:1020C700B58A828B83E0F582D2B5C007C005C0030D
:1020D700C0021215BED002D003D00574012AFCE459
:1020E7003BFEC2B58C828E83E0F582D2B5C006C0B6
:1020F70005C0041215BE756BF0756C0090000012D8
:10210700055112167F905FCE75F08012106B121674
:102117002F756B04756C01900000120551905FE6F6
:1021270075F08012106BD004D005D006D007756B00
:102137002C756C01900032C007C006C005C00412A0
:10214700055112167F905FED75F08012106B12111A
:1021570089AB82D004D005D006D0077871A603BB1F
:1021670030028003021D46787C7600756B2C756CF7
:1021770001900032C007C006C005C0041205511205
:10218700163A905EB875F08012106B121651905F78
:10219700F875F08012106B900028120187D004D0D8
:1021A70005D006D007021D46227E007F007D007CF9
:1021B70001787F7601C007C006C005C004120DEE86
:1021C70090D6BA120C2175820512056B121668E4B7
:1021D700F56BF56C90001E12055190600275F0804A
:1021E70012106B12162F75820212056B756B3C75F8
:1021F7006C0090000012055190600A75F080121073
:102207006B756B50756C0090000012055112165DCE
:10221700905E5675F08012106B756B6E756C009042
:10222700000012055112162F90601B75F0801210D6
:102237006B756B82756C0090000012055112165D6C
:10224700905E5675F08012106B756BA0756C0090E0
:10225700000012055112162F905EBA75F080121009
:102267006B756BB4756C0090000012055112165D0A
:10227700905E7375F08012106B756B04756C01902E
:10228700000012055112162F905E9575F0801210FE
:102297006B12165D905EA275F08012106B756B3C29
:1022A700756C0090000012055112163A90600A757D
:1022B700F08012106B756B50756C00900000120562
:1022C70051905EB875F08012106B121645905D8DB7
:1022D70075F08012106B1216A0787DA68208A6836F
:1022E70012162F756B3C756C00900000120551900B
:1022F700600A75F08012106B756B50756C0090005A
:1023070000120551905EB875F08012106B121651CD
:10231700905D8D75F08012106B787D8682088683BC
:10232700121553756B6E756C0090000012055112F3
:10233700163A90601B75F08012106B756B82756C86
:1023470000900000120551905EB875F08012106B76
:10235700121645905D8D75F08012106B1216A0AAAB
:1023670082AB83C003C00212162F756B6E756C00AB
:1023770090000012055190601B75F08012106B756C
:102387006B82756C00900000120551905EB875F075
:102397008012106B121651905D8D75F08012106BC4
:1023A700D002D0038A828B83C003C00212155375F3
:1023B7006BA0756C0090000012055112163A905EE2
:1023C700BA75F08012106B756BB4756C00900000D5
:1023D70012055112167F905E7375F08012106BD044
:1023E70002D003D004D005D006D007EC7003022535
:1023F70082756BB4756C00900000C007C006C004FE
:10240700C003C00212055112167F905ECE75F08090
:1024170012106B121742AD82D002D003D004D0063F
:10242700D007BD015F7C00C007C006C005C004C05F
:1024370003C00212162F756BA0756C009000001276
:102447000551905EBA75F08012106B756BB4756CA0
:1024570000900000120551905ED175F08012106B4C
:10246700121651905ED475F08012106B12165D90A3
:102477005EDE75F08012106BD002D003D004D00559
:10248700D006D007BD02627C00C007C006C005C0E9
:1024970004C003C00212162F756BA0756C00900064
:1024A70000120551905EBA75F08012106B756BB40F
:1024B700756C0090000012055112165D905F027551
:1024C700F08012106B121651905F0675F080121093
:1024D7006B12165D905F1075F08012106BD002D0F2
:1024E70003D004D005D006D007BD04627C00C00726
:1024F700C006C005C004C003C00212162F756BA02A
:10250700756C00900000120551905EBA75F080124C
:10251700106B12165D756BB4756C00900000120598
:1025270051905F3375F08012106B121651905F381F
:1025370075F08012106B12165D905F1075F08012A7
:10254700106BD002D003D004D005D006D007EC70B2
:10255700030223F2C007C006C005C004C003C002BF
:10256700121674905F4275F08012106BD002D00380
:10257700D004D005D006D0070223F2787FE6700397
:102587000226A6C002C003756B04756C019000009B
:10259700C005C003C00212055112163A905F5D755F
:1025A700F08012106B121189E5827871F6121645C8
:1025B70078718682121005787186821213F7AC82C1
:1025C700D002D003D0058C067F00C007C006C00527
:1025D700C003C00212162FD002D003D005D006D0F8
:1025E700078D037C00EEB5030AEFB50406D003D0D0
:1025F700028057D003D002756B18756C01900000EC
:10260700C007C006C005C003C002120551121674E8
:10261700905F6B75F08012106B756B04756C019091
:10262700000012055112163A905E9575F08012104F
:102637006B12165D905EA275F08012106BD002D0FF
:1026470003D005D006D007022582756B04756C018F
:10265700900000C007C006C005C003C002120551A4
:1026670012162F905F5D75F08012106B121651785D
:10267700718682121005787F7600756B18756C016C
:1026870090000012055112168A905F8675F080122D
:10269700106BD002D003D005D006D0070225827870
:1026A7007DEE26FEEF0836FF787D865D08865EC3E1
:1026B700E55D9EE55E9F50378A5B8B5C855D828515
:1026C7005E83C2B5E0FDD2B5C2B5855B82855C830A
:1026D700EDF0D2B5BAFF09BBFF067A007B00800593
:1026E7000ABA00010B055DE4B55DC4055E80C075DF
:1026F7006B2C756C0190000012055112168A9060C0
:102707002975F08012106B90003C12018778717662
:102717006E2278807601120DEE90D6BA120C2175D2
:10272700820512056B121668E4F56BF56C90001EB6
:1027370012055190603975F08012106B7582021284
:10274700056B12162F756B3C756C00900000120517
:102757005190604175F08012106B756B50756C006D
:1027670090000012055112165D905E5675F08012AA
:10277700106B756B6E756C00900000120551121688
:102787002F90605075F08012106B12165D90606587
:1027970075F08012106B756BA0756C0090000012BD
:1027A700055112162F90606975F08012106B121682
:1027B7005D90606575F08012106B756BD2756C005B
:1027C70090000012055112162F90607C75F0801250
:1027D700106B12165D90609275F08012106B90600E
:1027E700B875F08012106B12163A756B3C756C0059
:1027F70090000012055190604175F08012106B75C2
:102807006B50756C00900000120551905EB875F022
:102817008012106B121645905D8D75F08012106B4B
:102827001216A0AD82AE838D038E04C006C005C00C
:1028370004C00312162F756B3C756C0090000012D4
:10284700055190604175F08012106B756B50756C77
:1028570000900000120551905EB875F08012106B61
:10286700121651905D8D75F08012106BD003D00455
:10287700D005D0068D828E83C006C005C004C00374
:10288700121553756B6E756C00900000120551128E
:10289700162F9060C375F08012106B121651D0037B
:1028A700D004C2B58B828C83E0F582D2B5C004C058
:1028B7000312153C756BA0756C0090000012055152
:1028C70012163A9060C675F08012106B12164512F8
:1028D7001189AA827871A6028A82121005787186F8
:1028E700821213F7AA827871A602EAC454F0FAC0DA
:1028F70002121189AF827871A6078F8212100578AC
:102907007186821213F7AF82D002D003D004D005AC
:10291700D0067871A607EA4207C007C006C005C0FF
:1029270004C00312162F756BA0756C00900000127F
:1029370005519060C675F08012106B121651D003C6
:10294700D004D005D006D0078F82C007C006C005C7
:10295700C004C00312153CD003D004D005D006D064
:1029670007C2B58B828C83EFF0D2B5756BD2756CCD
:1029770000900000C006C00512055112163A90607B
:102987007C75F08012106B12167F90609275F08044
:1029970012106B9060B875F08012106BD005D006DE
:1029A7007880E6700122C006C005121189AF82D077
:1029B70005D0067871A60778817601BF31028003BA
:1029C700022BA678817600756BD2756C009000009B
:1029D700C006C00512055112162F905F0275F080D0
:1029E70012106B1216519060DA75F08012106B128C
:1029F700165D9060EC75F08012106B90003C120130
:102A070087756B50756C0090000012055112165DAA
:102A1700905E5675F08012106B756B6E756C00903A
:102A270000001205519060FE75F08012106B756BF7
:102A3700A0756C009000001205519060FE75F08043
:102A470012106B756BD2756C0090000012055190D7
:102A5700610375F08012106BD005D0060DBD000123
:102A67000E8D5F8E60756B50756C00900000C00610
:102A7700C005120551905EB875F08012106B1216E2
:102A870051905D8D75F08012106BD005D0068D8248
:102A97008E83C006C005121553756B6E756C00905A
:102AA700000012055112162F9060C375F0801210A6
:102AB7006B121651C2B5855F82856083E0FAD2B585
:102AC7008A8212153C756BA0756C00900000120588
:102AD7005112163A9060C675F08012106B121645A7
:102AE700121189AA827871A6028A8212100578715A
:102AF70086821213F7AA827871A602EAC454F0FA02
:102B0700C002121189AF827871A6078F8212100551
:102B1700787186821213F7AF82D002D005D006787B
:102B270071A607EA4207C007C006C00512162F752F
:102B37006BA0756C009000001205519060C675F08F
:102B47008012106B121651D005D006D0078F82C0A5
:102B570007C006C00512153CD005D006D007C2B580
:102B6700855F82856083EFF0D2B5756BD2756C0097
:102B7700900000C006C00512055112163A90607CFD
:102B870075F08012106B12167F90609275F08012AC
:102B9700106B9060B875F08012106BD005D0067876
:102BA70071B632028003022DF278817600756BD2FE
:102BB700756C0090000012055112162F9061347544
:102BC700F08012106B12165D905F0275F080121084
:102BD7006B12165190614C75F08012106B12165DD6
:102BE70090615D75F08012106B90003C1201877543
:102BF7006B50756C0090000012055112165D905EC7
:102C07005675F08012106B756B6E756C0090000036
:102C17001205519060FE75F08012106B756BA075F0
:102C27006C009000001205519060FE75F080121044
:102C37006B756BD2756C00900000120551906103A3
:102C470075F08012106B756B3C756C00900000126C
:102C5700055112163A90616E75F08012106B756B04
:102C670050756C00900000120551905EB875F080A9
:102C770012106B121645905D8D75F08012106B1255
:102C870016A0AD82AE838D038E07C007C006C005B0
:102C9700C00312162F756B3C756C0090000012056F
:102CA7005190604175F08012106B756B50756C0018
:102CB700900000120551905EB875F08012106B12EB
:102CC7001651905D8D75F08012106BD003D005D032
:102CD700068D828E83C006C005C003121553756B1F
:102CE7006E756C0090000012055112162F9060C38C
:102CF70075F08012106B121651D003D005D006D094
:102D070007C2B58B828F83E0F582D2B5C007C006B4
:102D1700C005C00312153C756BA0756C00900000D0
:102D270012055112163A9060C675F08012106B1298
:102D37001645121189AA827871A6028A8212100595
:102D4700787186821213F7AA827871A602EAC454B0
:102D5700F0FAC002121189AC827871A6048C821233
:102D67001005787186821213F7AC82D002D00378EF
:102D770071A604EA4204C004C00312162F756BA0A3
:102D8700756C009000001205519060C675F08012B6
:102D9700106B121651D003D0048C82C004C00312EA
:102DA700153CD003D004D005D006D007C2B58B821E
:102DB7008F83ECF0D2B5756BD2756C00900000C0B4
:102DC70006C00512055112163A90607C75F0801204
:102DD700106B12167F90609275F08012106B9060E6
:102DE700B875F08012106BD005D0067871B63052E6
:102DF7007880760078817600756BD2756C009000CC
:102E070000C006C00512055112162F90617C75F09F
:102E17008012106B12165D905F3375F08012106B85
:102E270012165190617E75F08012106B12165D902C
:102E3700615D75F08012106B90003C120187D00520
:102E4700D0067881E670030229A7756BD2756C00EE
:102E5700900000C006C005120551121674906187D4
:102E670075F08012106BD005D0060229A72278844E
:102E77007600788676007D00788776017B017888F2
:102E87007601C005C003120DEE75820512056B9021
:102E9700D6BA120C21121668E4F56BF56C90001E79
:102EA70012055190619975F08012106B12162F75EB
:102EB700820212056B756B3C756C00900000120561
:102EC700519061A175F08012106B756B50756C0095
:102ED70090000012055112165D90606575F0801222
:102EE700106B756B6E756C00900000120551121611
:102EF7002F9061AE75F08012106B756B82756C0048
:102F070090000012055112165D905E5675F0801202
:102F1700106B756BA0756C009000001205511216AE
:102F27002F9061BF75F08012106B12165D9061D300
:102F370075F08012106B9061F975F08012106B7547
:102F47006BFA756C0090000012055112165D9062C5
:102F57000775F08012106B12163A756B3C756C0092
:102F67009000001205519061A175F08012106B75E9
:102F77006B50756C0090000012055112167F756B2F
:102F870050756C00900000120551905EB875F08086
:102F970012106B121645121189AC827871A6048C37
:102FA70082121005787186821213F7AC82D00378EB
:102FB70071A604ECC454F0FCC004C003121189AE1E
:102FC700827871A6068E8212100578718682121396
:102FD700F7AE82D003D0047871A6067885EE4CF65A
:102FE700C00312162F756B3C756C0090000012051C
:102FF700519061A175F08012106B756B50756C0064
:1030070090000012055112167F905EB875F080127D
:10301700106B1216517885868212153C12163A7576
:103027006B6E756C009000001205519061AE75F0E3
:103037008012106B756B82756C0090000012055141
:10304700905EB875F08012106B121645905D8D7505
:10305700F08012106B1216A07882A68208A683123F
:10306700162F756B6E756C009000001205519061FC
:10307700AE75F08012106B756B82756C0090000056
:10308700120551905EB875F08012106B12165190B0
:103097005D8D75F08012106B7882868208868312A8
:1030A700155312163A756BA0756C00900000120547
:1030B700519061BF75F08012106B12167F9061D32B
:1030C70075F08012106B9061F975F08012106BD05B
:1030D70003D005EB7003023199756BFA756C00909C
:1030E7000000C005C00312055112165D90620775F6
:1030F700F08012106B756BFA756C0090000012056A
:103107005190620D75F08012106B12164512175010
:103117007884A682D003D0057884B601187B00C0D6
:1031270005C00312162F90621175F08012106BD034
:1031370003D005809E7884B602197B00C005C003C2
:1031470012162F90621175F08012106BD003D00504
:103157000230DA7884B604197B00C005C003121662
:103167002F90621175F08012106BD003D0050230DA
:10317700DA7884B6FF057B000230DAC005C0031297
:10318700167490622375F08012106BD003D005027D
:1031970030DA756BA0756C00900000C00512055100
:1031A70012162F9061BF75F08012106BD0057884CE
:1031B700B60174905ED175F080C00512106B1216BF
:1031C7005190622F75F08012106B12165D90623A63
:1031D70075F08012106B90624775F08012106B903B
:1031E70061F975F08012106B12162F756BFA756CFA
:1031F7000090000012055190620D75F08012106B5F
:103207001216517884868212153C12162F90625539
:1032170075F08012106B12167F90626A75F080123B
:10322700106BD0050233727884B6026EC005121691
:103237005D90627A75F08012106B12165190628958
:1032470075F08012106B12165D90624775F0801250
:10325700106B9061F975F08012106B12162F756B59
:10326700FA756C0090000012055190620D75F080A0
:1032770012106B1216517884868212153C12162F83
:1032870090625575F08012106B12167F90629475DC
:10329700F08012106BD0050233727884B60464C0D4
:1032A7000512165D9062A575F08012106B1216510B
:1032B7009062C075F08012106B12165D9061F975FF
:1032C700F08012106B12162F756BFA756C00900058
:1032D7000012055190620D75F08012106B12165195
:1032E7007884868212153C12162F90625575F080ED
:1032F70012106B12167F9062CC75F08012106BD093
:103307000580687884B6FF6378867601C005121653
:103317005D9062A575F08012106B9062DE75F0808B
:1033270012106B1216519062EC75F08012106B122E
:10333700162F756BFA756C0090000012055190629C
:103347000D75F08012106B12165178848682121553
:103357003C12162F90625575F08012106B12167F73
:103367009062F875F08012106BD005900028C005A8
:10337700120187120DEE90D6BA120C217582051232
:10338700056B121668E4F56BF56C90001E1205517B
:1033970090619975F08012106B12162F75820212C8
:1033A700056BD0057888E670030239737886E67076
:1033B70003023492756B3C756C00900000C00512D7
:1033C700055112169590630775F08012106B12164F
:1033D7007F90631B75F08012106B12162F7885860D
:1033E7008212153CD0058D03E4F561F56278848679
:1033F700027E00C3E5619AE5629E40030234897844
:1034070082E62561FC08E63562FEC2B58C828E83B2
:10341700E0FCD2B57885E6B5045D78877600EB7079
:1034270034C00312167F756B78756C00900000121C
:10343700055190632C75F08012106B12162F905F58
:10344700B275F08012106B85618285628312155305
:10345700D0030B8022756B78756C00900000C00359
:1034670012055190634175F08012106B856182855A
:103477006283121553D0030561E4B5610205620248
:1034870033F48B05788876000238FA756B3C756CD7
:1034970000900000C00512055112169590634675FD
:1034A700F08012106B12167F90631B75F08012105C
:1034B7006B12162F7885868212153CD005E4F564C9
:1034C700F565788486027B00C3E5649AE5659B40D1
:1034D700030238FA7882E62564FA08E63565FB8A3E
:1034E700828B83C2B5E0FBD2B57885E6B50302804F
:1034F700030238EF78877600756B78756C0090005B
:1035070000C00512055112167F90635675F08012A0
:10351700106B12162F905FB275F08012106BD005EA
:103527008D027B007882E62AF58208E63BF583C0A8
:1035370005121553756B2C756C01900032120551ED
:1035470012165D90636B75F08012106B121651D0D6
:10355700058D03EB04F582C00512153CD005E56423
:103567004565600302369AC005788486027B00EAC7
:1035770024FFFDEB34FFFFEDB56409EFB56505D01A
:103587000502361B756BB4756C009000001205516F
:1035970012167F90637275F08012106BD0057F0151
:1035A7008D63EF700302368DC007121189AF8278E1
:1035B70071A607BF31028004D0078027D007756B3B
:1035C700B4756C00900000120551905EB875F080DC
:1035D70012106B12165190639575F08012106B7F65
:1035E7000005637871B630BA12162F756BB4756C17
:1035F700009000001205519060C375F08012106BA7
:1036070012165190617E75F08012106B78887600E3
:103617007F00808E1ABAFF011BEAB5646BEBB565B4
:1036270067756BB4756C00900000C00512055112E8
:10363700167F90639E75F08012106BD0057F01EFA7
:103647006046C007C005121189AB82D005D0077844
:1036570071A603BB30E9C00512162F756BB4756CE4
:10366700009000001205519060C375F08012106B36
:1036770012165190617E75F08012106BD005788814
:1036870076007F0080B9AD637888E660030238EF83
:103697000238FAC005788486037F00EB24FFFAEF2F
:1036A70034FFFDEAB56406EDB565028005D0050275
:1036B70037E6D005E5644565700302376F756BB46F
:1036C700756C00900000C00512055112167F9063BB
:1036D700C275F08012106BD0057F018D63EF700308
:1036E7000237D9C007C007121189AA82D00778719B
:1036F700A602BA30028004D0078029D007756BB4C0
:10370700756C009000001205519060C375F080122F
:10371700106B121651905FF875F08012106B7F00D6
:10372700788876007871B632B4756BB4756C009092
:10373700000012055112167F9063E575F080121094
:103747006B1216519063E975F08012106B7F00E5DC
:103757006424FFFAE56534FFFEEA24FFF564EE34DE
:10376700FFF56515630236E4E56445657066756BBC
:10377700B4F56C900000C00512055112167F9063D6
:103787009E75F08012106BD0057E01EE6046C00674
:10379700C005121189AC82D005D0067871A604BC89
:1037A70030E9C00512162F756BB4756C00900000D8
:1037B7001205519060C375F08012106B121651906C
:1037C700617E75F08012106BD005788876007E00D8
:1037D70080B9AD637888E660030238EF0238FA1BD8
:1037E700BBFF011FEBB56407EFB565030238EFE5D3
:1037F70064456570030238EA756BB4756C00900018
:1038070000C00512055112167F9063F675F08012FD
:10381700106BD0057F01EF70030238EAC007C005BF
:10382700121189AE82D005D0077871A606BE31285D
:10383700756BB4756C00900000C005120551905E61
:10384700B875F08012106B12165190639575F08061
:1038570012106BD0057F000D7871B6323F756BB4CF
:10386700756C00900000C00512055112167F906319
:10387700E575F08012106B1216519063E975F080B0
:1038870012106BD0057F00E56424FFFCE56534FF6B
:10389700FEEC24FFF564EE34FFF5651D7871B63054
:1038A70002800302381DC00512167F756BB4756C54
:1038B7000090000012055190641875F08012106B8B
:1038C70012165190617E75F08012106B12167F9060
:1038D700642475F08012106BD005788876007F001D
:1038E70002381D7888E6600B0564E4B56402056557
:1038F7000234C97887E670030233ABC00512167429
:10390700756B8C756C0090000012055190643375CF
:10391700F08012106B12167F90645475F0801210AD
:103927006BD0057F01EF70030233ABC007C00512F0
:103937001189AE82D005D0077871A606BE30E6752C
:103947006B8C756C00900000C00512055190645F88
:1039570075F08012106B12165190617E75F080120F
:10396700106BD0057F007888760080B990005002F0
:103977000187788B7600788D76007D00788E7601CA
:103987007B01788F7601C005C003120DEE758205A5
:1039970012056B90D6BA120C21121668E4F56BF576
:1039A7006C90000F12055190646475F08012106BD3
:1039B70012162F75820212056B756B3C756C0090A1
:1039C700000012055190646D75F08012106B756BD5
:1039D70050756C0090000012055112165D906065DD
:1039E70075F08012106B756B6E756C00900000128D
:1039F700055112162F9061AE75F08012106B756B22
:103A070082756C0090000012055112165D905E568B
:103A170075F08012106B756BA0756C00900000122A
:103A2700055112162F9061BF75F08012106B121698
:103A37005D9061D375F08012106B9061F975F0801D
:103A470012106B756BFA756C00900000120551121D
:103A5700165D90620775F08012106B12163A756B3F
:103A67003C756C0090000012055190646D75F080F4
:103A770012106B756B50756C009000001205511297
:103A8700167F756B50756C00900000120551905EA3
:103A9700B875F08012106B121645121189AC827836
:103AA70071A6048C82121005787186821213F7AC06
:103AB70082D0037871A604ECC454F0FCC004C003A0
:103AC700121189AE827871A6068E8212100578715E
:103AD70086821213F7AE82D003D0047871A60678D7
:103AE7008CEE4CF6C00312162F756B3C756C00906C
:103AF700000012055190646D75F08012106B756BA4
:103B070050756C0090000012055112167F905EB838
:103B170075F08012106B121651788C868212153C44
:103B270012163A756B6E756C009000001205519075
:103B370061AE75F08012106B756B82756C0090002A
:103B470000120551905EB875F08012106B12164581
:103B5700905D8D75F08012106B1216A07889A68281
:103B670008A68312162F756B6E756C0090000012F5
:103B770005519061AE75F08012106B756B82756C94
:103B870000900000120551905EB875F08012106B1E
:103B9700121651905D8D75F08012106B78898682B0
:103BA70008868312155312163A756BA0756C009030
:103BB70000001205519061BF75F08012106B12164C
:103BC7007F9061D375F08012106B9061F975F0806A
:103BD70012106BD003D005EB7003023C9D756BFA96
:103BE700756C00900000C005C00312055112165DE8
:103BF70090620775F08012106B756BFA756C009008
:103C0700000012055190620D75F08012106B1216AC
:103C170045121750788BA682D003D005788BB60152
:103C2700187B00C005C00312162F90621175F08033
:103C370012106BD003D005809E788BB602197B00DB
:103C4700C005C00312162F90621175F08012106B19
:103C5700D003D005023BDE788BB604197B00C00584
:103C6700C00312162F90621175F08012106BD003EB
:103C7700D005023BDE788BB6FF057B00023BDEC03A
:103C870005C00312167490622375F08012106BD072
:103C970003D005023BDE756BA0756C00900000C079
:103CA7000512055112162F9061BF75F08012106B27
:103CB700D005788BB60174905ED175F080C005127F
:103CC700106B12165190622F75F08012106B12163E
:103CD7005D90623A75F08012106B90624775F080C4
:103CE70012106B9061F975F08012106B12162F7518
:103CF7006BFA756C0090000012055190620D75F01B
:103D07008012106B121651788B868212153C121690
:103D17002F90625575F08012106B12167F90626AB1
:103D270075F08012106BD005023E76788BB6026E66
:103D3700C00512165D90627A75F08012106B12162C
:103D47005190628975F08012106B12165D90624770
:103D570075F08012106B9061F975F08012106B127C
:103D6700162F756BFA756C00900000120551906262
:103D77000D75F08012106B121651788B8682121512
:103D87003C12162F90625575F08012106B12167F39
:103D970090629475F08012106BD005023E76788B96
:103DA700B60464C00512165D9062A575F080121006
:103DB7006B1216519062C075F08012106B12165D6F
:103DC7009061F975F08012106B12162F756BFA75EA
:103DD7006C0090000012055190620D75F080121072
:103DE7006B121651788B868212153C12162F906231
:103DF7005575F08012106B12167F9062CC75F080AB
:103E070012106BD0058068788BB6FF63788D7601CA
:103E1700C00512165D9062A575F08012106B906256
:103E2700DE75F08012106B1216519062EC75F080FF
:103E370012106B12162F756BFA756C00900000123A
:103E4700055190620D75F08012106B121651788B28
:103E5700868212153C12162F90625575F08012104B
:103E67006B12167F9062F875F08012106BD0059078
:103E77000028C005120187120DEE90D6BA120C2148
:103E870075820512056B121668E4F56BF56C9000E8
:103E97000F12055190646475F08012106B12162F83
:103EA70075820212056BD005788FE6700302444EC7
:103EB700788DE67003023F74756B3C756C0090005B
:103EC70000C00512055112169590630775F0801210
:103ED700106B12167F90631B75F08012106B121611
:103EE7002F788C868212153CD0058D03E4F566F594
:103EF70067788B86027E00C3E5669AE5679E502A3F
:103F07007889E62566FC08E63567FEC2B58C828EA1
:103F170083E0FCD2B5788CE6B50405788E76000B85
:103F27000566E4B566CB056780C78B05756B787545
:103F37006C00900000C005C00312055112167F9057
:103F4700647C75F08012106B12162F905D8D75F0E2
:103F57008012106BD0038B8212153C90648875F029
:103F67008012106BD005788F76000243D5756B3CB5
:103F7700756C00900000C0051205511216959063EC
:103F87004675F08012106B12167F90631B75F080D8
:103F970012106B12162FD005E4F569F56A788B8637
:103FA700027B00C3E5699AE56A9B40030243D57823
:103FB70089E62569FA08E6356AFB8A828B83C2B5EA
:103FC700E0FBD2B5788CE6B5030280030243CA78DA
:103FD7008E7600756B78756C00900000C005120531
:103FE7005112167F90635675F08012106B12162FC0
:103FF700905FB275F08012106BD0058D027B007850
:1040070089E62AF58208E63BF583C0051215537544
:104017006B2C756C0190003212055112165D90647D
:104027009775F08012106B121651D0058D03EB04B3
:10403700F582C00512153CD005E569456A600302A3
:104047004175C005788B86027B00EA24FFFDEB34BF
:10405700FFFFEDB56909EFB56A05D0050240F675B2
:104067006BB4756C0090000012055112167F9063B7
:104077007275F08012106BD0057F018D68EF7003A9
:10408700024168C007121189AF827871A607BF3154
:10409700028004D0078027D007756BB4756C009039
:1040A7000000120551905EB875F08012106B121661
:1040B7005190639575F08012106B7F0005687871D9
:1040C700B630BA12162F756BB4756C0090000012DB
:1040D70005519060C375F08012106B1216519061F4
:1040E7007E75F08012106B788F76007F00808E1AB5
:1040F700BAFF011BEAB5696BEBB56A67756BB475F7
:104107006C00900000C00512055112167F90639E47
:1041170075F08012106BD0057F01EF6046C007C0B5
:1041270005121189AB82D005D0077871A603BB3081
:10413700E9C00512162F756BB4756C00900000125C
:1041470005519060C375F08012106B121651906183
:104157007E75F08012106BD005788F76007F008017
:10416700B9AD68788FE660030243CA0243D5C0053C
:10417700788B86037F00EB24FFFAEF34FFFDEAB567
:104187006906EDB56A028005D0050242C1D005E592
:1041970069456A700302424A756BB4756C009000FA
:1041A70000C00512055112167F9063C275F0801288
:1041B700106BD0057F018D68EF70030242B4C00712
:1041C700C007121189AA82D0077871A602BA3002F5
:1041D7008004D0078029D007756BB4756C009000F8
:1041E700001205519060C375F08012106B121651C2
:1041F700905FF875F08012106B7F00788F760078EB
:1042070071B632B4756BB4756C009000001205512D
:1042170012167F9063E575F08012106B121651909D
:1042270063E975F08012106B7F00E56924FFFAE5FA
:104237006A34FFFEEA24FFF569EE34FFF56A156874
:104247000241BFE569456A7066756BB4F56C90000D
:1042570000C00512055112167F90639E75F08012FB
:10426700106BD0057E01EE6046C006C005121189AD
:10427700AC82D005D0067871A604BC30E9C005121F
:10428700162F756BB4756C00900000120551906085
:10429700C375F08012106B12165190617E75F08015
:1042A70012106BD005788F76007E0080B9AD6878E4
:1042B7008FE660030243CA0243D51BBBFF011FEB16
:1042C700B56907EFB56A030243CAE569456A700332
:1042D7000243C5756BB4756C00900000C0051205EC
:1042E7005112167F9063F675F08012106BD0057F20
:1042F70001EF70030243C5C007C005121189AE82E2
:10430700D005D0077871A606BE3128756BB4756CD9
:1043170000900000C005120551905EB875F080123C
:10432700106B12165190639575F08012106BD005C3
:104337007F000D7871B6323F756BB4756C009000D5
:1043470000C00512055112167F9063E575F08012C3
:10435700106B1216519063E975F08012106BD0053F
:104367007F00E56924FFFCE56A34FFFEEC24FFF5D6
:1043770069EE34FFF56A1D7871B630028003024298
:10438700F8C00512167F756BB4756C0090000012AB
:10439700055190641875F08012106B1216519061D8
:1043A7007E75F08012106B12167F90642475F08072
:1043B70012106BD005788F76007F000242F8788F55
:1043C700E6600B0569E4B56902056A023FA4788EC9
:1043D700E67003023EAFC005121674756BA0756CCC
:1043E7000090000012055190643375F08012106B35
:1043F70012167F90645475F08012106BD0057F0100
:10440700EF7003023EAFC007C005121189AE82D01C
:1044170005D0077871A606BE30E6756BA0756C00EF
:10442700900000C00512055190645F75F08012106E
:104437006B12165190617E75F08012106BD0057F5C
:1044470000788F760080B9900050020187120DEE38
:1044570090D6BA120C2175820512056B121668E404
:10446700F56BF56C90000F12055190649F75F08005
:1044770012106B12162F75820212056B756B3C7545
:104487006C009000001205519064A875F08012101E
:104497006B12165D90606575F08012106B756B3C42
:1044A700756C009000001205519060C375F0801282
:1044B700106B12164578717600121189AF82C0070A
:1044C700121005D0078F821213F7E582C454F0FF4C
:1044D7007871E64F7871F6121189AF82C007121012
:1044E70005D0078F821213F7AF827871EF46F61265
:1044F700162F9064B775F08012106B787186821250
:1045070000C912167F9064E475F08012106B787101
:1045170086821200F89064F975F08012106BE4F54A
:104527006BF56C90001F12055E90650575F08012A3
:10453700106B7871E6F4F612163A90652975F080DB
:1045470012106B787186821200C91216959064E476
:1045570075F08012106B787186821200F812168A35
:1045670090653F75F08012106B9000780201877F8D
:1045770000789076007D007B007C00C007C005C0F6
:1045870004C003120DEE90D6BA120C2175820512E3
:10459700056B121668E4F56BF56C90001E12055159
:1045A70090655275F08012106BD003D004D005D0FF
:1045B700077A007872B60102800302476B758202A0
:1045C700C007C005C004C003C00212056B12162F36
:1045D700756B3C756C0090000012055190655A751B
:1045E700F08012106BD002D003D004D005D007782A
:1045F70090B6011D90656075F080C007C005C004C6
:10460700C003C00212106BD002D003D004D005D073
:10461700077890B6021D90656575F080C007C005E4
:10462700C004C003C00212106BD002D003D004D064
:1046370005D0077890B6031D90656A75F080C007AE
:10464700C005C004C003C00212106BD002D003D053
:1046570004D005D0077890B6041D90656F75F0807B
:10466700C007C005C004C003C00212106BD002D03F
:1046770003D004D005D0077890B6051D90657475F2
:10468700F080C007C005C004C003C00212106BD081
:1046970002D003D004D005D00790657A75F080C0AA
:1046A70007C005C004C003C00212106B756B6475A8
:1046B7006C0090000012055190658175F080121012
:1046C7006BD002D003D004D005D007BD011D906583
:1046D7008775F080C007C005C004C003C002121070
:1046E7006BD002D003D004D005D007ED701D9065C4
:1046F7008975F080C007C005C004C003C00212104E
:104707006BD002D003D004D005D00790658B75F02D
:1047170080C007C005C004C003C00212106B756BD0
:104727008C756C0090000012055190659675F080AD
:1047370012106B90659C75F08012106B756BB475D9
:104747006C009000001205519065A475F08012105E
:104757006B9065B775F08012106BD002D003D00450
:10476700D005D0077872E6707A758202C007C00557
:10477700C004C003C00212056B12162F756B3C757F
:104787006C009000001205519065C775F0801210FB
:104797006B756B64756C009000001205519065DBBA
:1047A70075F08012106B756B8C756C0090000012A1
:1047B700055190660375F08012106B756BB4756CBC
:1047C7000090000012055190662775F08012106B5B
:1047D70090663975F08012106BD002D003D004D0E8
:1047E70005D007756BF0756C00900000C007C00519
:1047F700C004C003C00212055190664A75F08012CA
:10480700106BD002D003D004D005D007C007C00575
:10481700C004C003C002121189AE82D002D003D0F7
:1048270004D005D0077871A606BE3033756BF075D6
:104837006C00900000120551905EB875F080121060
:104847006B12164590665675F08012106B12165152
:1048570090665B75F08012106B900014020187BEA2
:104867003402800302493C756BB4756C00900000FC
:10487700C007C005C004C003120551905EB875F0AB
:104887008012106B12164590666175F08012106BDE
:10489700121651D003D004D005D0077872B6014163
:1048A70090666675F08012106B12162F90667475FD
:1048B700F08012106B12164590667A75F080121010
:1048C7006B12162F7A007D6E7B007C007F0078725A
:1048D70076007873760078767600787876000248E6
:1048E700137872E6703490668475F080C007C0054F
:1048F700C004C00312106B12162F90667475F080F7
:1049070012106B12164590669175F08012106B129B
:10491700162FD003D004D005D007900028C007C0B9
:1049270005C004C003120187D003D004D005D00707
:104937007A01024B8BBE310280030249DF756B3C63
:10494700756C00900000C007C005C004C003C0021A
:10495700120551905EB875F08012106B12164590D3
:10496700669C75F08012106B1216519066A175F057
:104977008012106B900014120187D002D003D0046C
:10498700D005D0077872B60147756BC8756C009073
:104997000000C007C005C004C003C00212055112C1
:1049A70016749066B075F08012106B12162F756B27
:1049B7003C756C009000001205519065C775F0803A
:1049C70012106BD002D003D004D005D007024813D1
:1049D7007872E67003024CE77871B6320280030200
:1049E7004A96756B64756C00900000C007C005C0DF
:1049F70004C003C002120551905EB875F080121012
:104A07006B1216459066D275F08012106B12165114
:104A17009066D775F08012106B12162F906674751A
:104A2700F08012106B1216459066E775F080121031
:104A37006BD002D003D004D005D0077872B60147F7
:104A4700756BC8756C00900000C007C005C004C036
:104A570003C0021205511216749066B075F08012E9
:104A6700106B12162F756B64756C009000001205A1
:104A7700519065DB75F08012106BD002D003D00423
:104A8700D005D0070248137872E67003024F9A7870
:104A970071B633028003024B59756B8C756C0090AD
:104AA7000000C007C005C004C003C0021205519032
:104AB7005EB875F08012106B1216459066F675F0A9
:104AC7008012106B1216519066FB75F08012106BF6
:104AD70012164590670375F08012106B12162F900F
:104AE700667475F08012106B12164590670B75F09F
:104AF7008012106BD002D003D004D005D007787293
:104B0700B60147756BC8756C00900000C007C005FB
:104B1700C004C003C0021205511216749066B07526
:104B2700F08012106B12162F756B8C756C0090004D
:104B37000012055190660375F08012106BD002D0F9
:104B470003D004D005D0070248137872E670350207
:104B570050A9C007C005C004C003C002121674756F
:104B67006BC8756C0090000012055190671775F0BF
:104B77008012106B12162FD002D003D004D005D0AC
:104B870007024813C007C005C004C003C002120DC6
:104B9700EE756B78756C00900000120551D002D04D
:104BA70003D004D005D007BA0102800302458278FA
:104BB70072B6013BC007C005C004C00312168A9035
:104BC700673A75F08012106B12162F9000281201A9
:104BD70087787276007876760078787600787376BC
:104BE7000012162FD003D004D005D00702458278D3
:104BF70072E66003024CE77873B6013F7878B60136
:104C07003A7876B60135C007C005C004C00312164E
:104C17003A90674F75F08012106B12162F906765E8
:104C270075F08012106B7872760190002812018758
:104C3700D003D004D005D0070245827873E67034DC
:104C4700C007C005C004C003C0021216749067777E
:104C570075F08012106B12162F90678475F0801212
:104C6700106B900028120187D002D003D004D00522
:104C7700D007806C7876E6702DC004C003C002129E
:104C8700167490679775F08012106B12162F906745
:104C9700A375F08012106B900028120187D002D004
:104CA70003D004024F9A7878E67035C007C005C074
:104CB70004C003C0021216749067B675F080121014
:104CC7006B12162F9067C575F08012106B90002835
:104CD700120187D002D003D004D005D0070250A913
:104CE700C007C005C004C003C002120DEE90D6BABB
:104CF700120C2175820512056B121668E4F56BF527
:104D07006C90001E12055190655275F08012106B61
:104D170075820212056B12162F756B3C756C00902D
:104D270000001205519067DA75F08012106B756BF1
:104D370064756C009000001205519067EA75F08069
:104D470012106B756B8C756C0090000012055190FA
:104D570067FA75F08012106B756BB4756C00900074
:104D67000012055190680A75F08012106B756BDCA4
:104D7700756C0090000012055190681A75F080124A
:104D8700106B121189AE82D002D003D004D005D0A7
:104D9700077871A606BE315A756B3C756C0090009A
:104DA70000C007C005C004C003C002120551905ED1
:104DB700B875F08012106B12164590669C75F080DE
:104DC70012106B12165190682B75F08012106BD071
:104DD70002D003D004D005D007758DE6758700781B
:104DE70073760178907601BA010280030245820248
:104DF7004B8BBE325A756B64756C00900000C00710
:104E0700C005C004C003C002120551905EB875F01A
:104E17008012106B1216459066D275F08012106BD7
:104E270012165190683675F08012106BD002D003BD
:104E3700D004D005D007758DF37587007873760198
:104E470078907602BA01028003024582024B8BBE3C
:104E5700335A756B8C756C00900000C007C005C095
:104E670004C003C002120551905EB875F08012109D
:104E77006B1216459066F675F08012106B1216517C
:104E870090684175F08012106BD002D003D004D027
:104E970005D007758DF375878078737601789076DE
:104EA70003BA01028003024582024B8BBE345A7556
:104EB7006BB4756C00900000C007C005C004C00348
:104EC700C002120551905EB875F08012106B121671
:104ED7004590666175F08012106B12165190684C00
:104EE70075F08012106BD002D003D004D005D00724
:104EF700758DFD7587007873760178907604BA0111
:104F0700028003024582024B8BBE3555756BDC75FB
:104F17006C00900000C007C005C004C003C00212A7
:104F27000551905EB875F08012106B1216459068A7
:104F37005775F08012106B12165190685C75F080EF
:104F470012106BD002D003D004D005D007758DFDA9
:104F57007587807873760178907605BA0135024BAC
:104F67008BC007C005C004C003C002121674756B5E
:104F7700F0756C0090000012055190686875F0801C
:104F870012106B12162FD002D003D004D005D00711
:104F9700024813C004C003C002120DEE90D6BA1225
:104FA7000C2175820512056B121668E4F56BF56C1A
:104FB70090001E12055190655275F08012106B75A6
:104FC700820212056B12162F756B3C756C009000F0
:104FD7000012055190687575F08012106B756B643F
:104FE700756C0090000012055190688675F080126C
:104FF700106BD002D003D004C004C003C00212114A
:1050070089AE82D002D003D0047871A606BE31449F
:10501700756B3C756C00900000C004C003C00212A1
:105027000551905EB875F08012106B1216459066A8
:105037009C75F08012106B12165190689775F0806E
:1050470012106BD002D003D004787676017D017FF1
:105057000102531BBE3244756B64756C00900000EF
:10506700C004C003C002120551905EB875F08012EB
:10507700106B1216459066D275F08012106B1216DF
:10508700519068A375F08012106BD002D003D00442
:10509700787676017D007F0202531B7876760002D0
:1050A7004FFFEF7049756BF0F56C900000C007C0BB
:1050B70005C004C003C0021205511216741210AACB
:1050C7009068AF75F08012106B12162F756B8C7588
:1050D7006C0090000012055190660375F080121065
:1050E7006BD002D003D004D005D007024813BF010C
:1050F700027D01BF02027D00C007C005C004C003D6
:10510700C002120DEE90D6BA120C21758205120557
:105117006B121668E4F56BF56C90001E1205519042
:10512700655275F08012106B75820212056B1216AC
:105137002F756B3C756C009000001205519068D379
:1051470075F08012106B756B64756C00900000121F
:1051570005519068E575F08012106B756B8C756C56
:10516700009000001205519068F675F08012106BE0
:10517700D002D003D004D005D007C007C005C004B3
:10518700C003C002121189AE82D002D003D004D06E
:1051970005D0077871A606BE3158756B3C756C0053
:1051A700900000C007C005C002120551905EB87597
:1051B700F08012106B12164590669C75F0801210E5
:1051C7006B12165190690575F08012106BD002D0E2
:1051D70005D007ED700B7B117C01787676010252C2
:1051E700B2BD01028001227B117C00787676010234
:1051F70052B2BE3256756B64756C00900000C007E2
:10520700C005C002120551905EB875F08012106B90
:105217001216459066D275F08012106B12165190D7
:10522700691275F08012106BD002D005D007ED70AF
:105237000A7B017C01787676018070BD01028001CE
:10524700227B017C00787676018060BE3302800382
:10525700025181756B8C756C00900000C007C0050A
:10526700C004C003C002120551905EB875F08012E9
:10527700106B1216459066F675F08012106B1216B9
:105287005190691E75F08012106BD002D003D004C4
:10529700D005D007ED7009FB7C0178767601800B8D
:1052A700BD01087B007C0078767601EB4C6036BB4D
:1052B7000105BC0002802EBB1005BC00028026BB86
:1052C7001105BC0002801EBB0005BC01028016BB95
:1052D7000105BC0102800EBB1005BC01028006BBA4
:1052E7001109BC0106787876018029C007C005C07E
:1052F70004C0031210AA90692975F08012106B90F0
:105307000050120187D003D004D005D007787676F5
:1053170000024582BA01028003024582024B8B22BA
:1053270090000A120187850C82850D83D2B5E4F0BF
:10533700C2B5900005120187C2B4C2B5120390121C
:105347000689850C82850D83D2B57489F0C2B59024
:105357000028120187850C82850D83D2B5747BF0F6
:10536700C2B5900028120187850C82850D83D2B5BE
:1053770074FFF0C2B59000141201871215D7120DF1
:10538700EE12162F7F01850C82850D83D2B574FF2F
:10539700F0C2B5C007120DEE756B78756C00900002
:1053A7001E12055175820312056B12163A1204413B
:1053B700121794D007C007121189AE82D0077871EF
:1053C700A606BE4468850C82850D83D2B5E4F0C27B
:1053D700B5756B3C756C0090000AC0071205511239
:1053E700164590693E75F08012106B121651905D4C
:1053F700CD75F08012106B900014120187D00785CD
:105407000C82850D83D2B574A1F0C2B5EF70181266
:10541700162F756B18756C0190003C120551906939
:105427004275F08012106B1218EF02538BBE426860
:10543700850C82850D83D2B5E4F0C2B5756B3C75DA
:105447006C00900082C00712055112164590694DF5
:1054570075F08012106B121651905DD975F080129D
:10546700106B900014120187D007850C82850D837D
:10547700D2B57483F0C2B5EF701812162F756B187A
:10548700756C0190003C12055190694275F08012CD
:10549700106B1221B002538BBE4568850C82850DB7
:1054A70083D2B5E4F0C2B5756B64756C0090000AE1
:1054B700C00712055112164590695175F0801210F8
:1054C7006B121651905DE575F08012106B90001409
:1054D700120187D007850C82850D83D2B57486F0BB
:1054E700C2B5EF701812162F756B18756C01900006
:1054F7003C12055190694275F08012106B12271902
:1055070002538BBE4668850C82850D83D2B5E4F0C5
:10551700C2B5756B64756C00900082C007120551A7
:1055270012164590695575F08012106B121651903E
:105537005DF175F08012106B900014120187D0078F
:10554700850C82850D83D2B5748EF0C2B5EF7018C5
:1055570012162F756B18756C0190003C120551904F
:10556700694275F08012106B122E7502538BBE4381
:1055770068850C82850D83D2B5E4F0C2B5756BA042
:10558700756C0090000AC007120551121645906904
:105597005975F08012106B121651905DFD75F080F1
:1055A70012106B900014120187D007850C82850DAD
:1055B70083D2B574C6F0C2B5EF701812162F756B8B
:1055C70018756C0190003C12055190694275F08086
:1055D70012106B12397902538BBE4168850C828594
:1055E7000D83D2B5E4F0C2B5756BB4756C0090004D
:1055F7000AC00712055112164590695D75F08012B1
:10560700106B121651905E0A75F08012106B9000A5
:1056170014120187D007850C82850D83D2B5748853
:10562700F0C2B5EF701812162F756B18756C0190D4
:10563700003C12055190694275F08012106B1244BC
:105647005402538BBE310280030256EF850C8285CC
:105657000D83D2B5E4F0C2B5756BDC756C009000B4
:105667000AC00712055112164590696175F080123C
:10567700106B121651905E1B75F08012106B7582BD
:105687000112056BD0077872B6010D905E2E75F08A
:1056970080C00712106BD0077872E6700D905E21FC
:1056A70075F080C00712106BD007758202C0071211
:1056B700056B900014120187D007850C82850D8336
:1056C700D2B574C1F0C2B5EF701812162F756B18EA
:1056D700756C0190003C12055190694275F080127B
:1056E700106B12457602538B756B04756C01900035
:1056F7002D12055112167490696575F08012106BA2
:10570700756B18756C0190003C12055190697475A2
:10571700F08012106B7F00900014C00712018712EF
:10572700162F756B04756C0190002D120551906949
:0C5737007F75F08012106BD0070253BC8D
:1058640000000000003E5B4F5B3E3E6B4F6B3E1CF6
:105874003E7C3E1C183C7E3C181C577D571C1C5E0D
:105884007F5E1C00183C1800FFE7C3E7FF001824E4
:105894001800FFE7DBE7FF30483A060E262979298E
:1058A40026407F050507407F05253F5A3CE73C5AC3
:1058B4007F3E1C1C08081C1C3E7F14227F22145FA0
:1058C4005F005F5F06097F017F006689956A6060FB
:1058D40060606094A2FFA29408047E040810207EF5
:1058E400201008082A1C08081C2A08081E1010107A
:1058F400100C1E0C1E0C30383E3830060E3E0E06C0
:10590400000000000000005F000000070007001412
:105914007F147F14242A7F2A1223130864623649D1
:105924005620500008070300001C224100004122B9
:105934001C002A1C7F1C2A08083E080800807030BE
:10594400000808080808000060600020100804022D
:105954003E5149453E00427F400072494949462133
:1059640041494D331814127F1027454545393C4AA7
:1059740049493141211109073649494936464949BE
:10598400291E000014000000403400000008142206
:105994004114141414140041221408020159090674
:1059A4003E415D594E7C1211127C7F494949363E75
:1059B400414141227F4141413E7F494949417F095B
:1059C4000909013E414151737F0808087F00417F66
:1059D40041002040413F017F081422417F40404064
:1059E400407F021C027F7F0408107F3E4141413EFC
:1059F4007F090909063E4151215E7F09192946267E
:105A04004949493203017F01033F4040403F1F2081
:105A140040201F3F4038403F631408146303047858
:105A240004036159494D43007F4141410204081078
:105A340020004141417F04020102044040404040B3
:105A4400000307080020545478407F284444383821
:105A540044444428384444287F3854545418000893
:105A64007E090218A4A49C787F0804047800447D6D
:105A740040002040403D007F1028440000417F400A
:105A8400007C047804787C0804047838444444385E
:105A9400FC1824241818242418FC7C08040408483E
:105AA4005454542404043F44243C4040207C1C208F
:105AB40040201C3C4030403C44281028444C9090EA
:105AC400907C4464544C4400083641000000770044
:105AD40000004136080002010204023C2623263C51
:105AE4001EA1A161123A4040207A385454555921DC
:105AF40055557941225454784221555478402054C4
:105B04005579400C1E527212395555555939545411
:105B1400545939555454580000457C410002457D80
:105B2400420001457C407D1211127DF0282528F0A9
:105B34007C545545002054547C547C0A097F4932D6
:105B4400494949323A4444443A324A4848303A414D
:105B540041217A3A42402078009DA0A07D3D4242F6
:105B6400423D3D4040403D3C24FF2424487E49437F
:105B7400662B2FFC2F2BFF0929F620C0887E0903F2
:105B840020545479410000447D413048484A323819
:105B94004040227A007A0A0A727D0D19317D262945
:105BA400292F28262929292630484D40203808083D
:105BB400080808080808382F10C8ACBA2F10283471
:105BC400FA00007B000008142A142222142A140864
:105BD400AA005500AAAA55AA55AA000000FF001061
:105BE4001010FF00141414FF001010FF00FF101019
:105BF400F010F0141414FC001414F700FF0000FF5C
:105C040000FF1414F404FC141417101F10101F10B8
:105C14001F1414141F00101010F0000000001F10B7
:105C24001010101F10101010F010000000FF1010C2
:105C340010101010101010FF10000000FF140000CE
:105C4400FF00FF00001F10170000FC04F4141417D9
:105C540010171414F404F40000FF00F714141414BF
