:04000000020029329F
:01000B0032C2
:0100130032BA
:01001B0032B2
:03002300020232A4
:20008200750A00750B40750C00750D80750E00750F00787276007873760078747600787585
:2000A20076007876766E7877766E7878766E7879766E787A766E787B766E087600787D76E4
:0700C2006E08760002002623
:030026000253B6CC
:2000C900D2B5E56BF0C2B522D2B5E0FFC2B58F8222C2B5E56BF0D2B522C2B5E0FFD2B58FDB
:2000E9008222AF827B007C007D007E00C2B58B828C83EFF0D2B50BBB00090CBC00050DBDD1
:2001090000010EC374FF9B74FF9CE49DE49E50DC22AF827B007C007D007E00C374FF9B742E
:20012900FF9CE49DE49E500122C2B58B828C83E0FAEFB50202804A850C82850D83D2B574A3
:200149008EF0C2B5E4F56BF56C900000C007C006C005C004C0031205BF905E3B75F080129D
:2001690010D9D003D0048B828C83C004C0031215C19000281201A9D003D004D005D006D0C5
:2001890007850C82850D83D2B5748CF0C2B5D2B50BBB00090CBC00050DBD00010E02012416
:2001A900AE82AF837C007D00C3EC9EED64808FF063F08095F0501B7AE87B03EA24FFF8EBAB
:2001C90034FFF988028903E84970F00CBC00D90D80D622D28ED2ACD2AF7872760122C28EEB
:2001E900C2ACC2AF758D007598007587007872760078737600787476007875760078767622
:200209006E7877766E7878766E7879766E787A766E787B766E087600787D766E0876002247
:200229008582992099FDC2992230980885990EC298750F0132AF82C2B4D2B5850A82850B06
:2002490083EFF0C2B5D2B4D2B5850A82850B83E56BF0C2B522AE82AF838F04C2B4D2B5853B
:200269000A82850B83ECF0C2B5C2B4D2B5850A82850B83EEF0C2B5AE6CAC6BD2B4D2B4D2FE
:20028900B5850A82850B83EEF0C2B5D2B4D2B5850A82850B83ECF0C2B5229000041201A931
:2002A900850C82850D83D2B5E4F0C2B59000041201A9850C82850D83D2B574C0F0C2B59011
:2002C90000041201A9850C82850D83D2B574F9F0C2B59000041201A9850C82850D83D2B5D3
:2002E90074A4F0C2B59000041201A9850C82850D83D2B574B0F0C2B59000041201A9850C0B
:2003090082850D83D2B57499F0C2B59000041201A9850C82850D83D2B57492F0C2B5900046
:20032900041201A9850C82850D83D2B57482F0C2B59000041201A9850C82850D83D2B57475
:20034900F8F0C2B59000041201A9850C82850D83D2B57480F0C2B59000041201A9850C8278
:20036900850D83D2B57498F0C2B59000041201A9850C82850D83D2B57488F0C2B59000046F
:200389001201A9850C82850D83D2B57483F0C2B59000041201A9850C82850D83D2B574C652
:2003A900F0C2B59000041201A9850C82850D83D2B574A1F0C2B59000041201A9850C82856A
:2003C9000D83D2B57486F0C2B59000041201A9850C82850D83D2B5748EF0C2B5900004128E
:2003E90001A9850C82850D83D2B574FFF0C2B59000040201A9756B0790000F1204427E0025
:200409007F00751E008E828F83C007C00612044BD006D0070EBE00010FC3EE940DEF940053
:2004290040E0756B0490000F020442D2B590000DE0FFC2B5EF20E1F322AF6BD2B5EFF0C207
:20044900B522AE82AF83D2B590000D7401F0C2B5C007C006120434D006D007D2B58E828FB0
:2004690083E4F0C2B5AF1ED2B590000DEFF0C2B522AE82AF83D2B590000D7401F0C2B5C01A
:2004890007C006120434D006D007D2B58E828F83E0FEC2B5740F5E4430FFD2B590000DE435
:2004A900F0C2B58F822275270075213A75243AD2B590000D7401F0C2B5120434D2B59000F9
:2004C90002E0FFC2B5740F5F4430FFD2B590000DE4F0C2B5D2B590000D7401F0C2B5C00730
:2004E900120434D2B5900003E0FEC2B5740F5E4430FED2B590000DE4F0C2B5D2B590000D54
:200509007401F0C2B5C006120434D2B5900004E0FDC2B5740F5D4430FDD2B590000DE4F02E
:20052900C2B5D2B590000D7401F0C2B5C005120434D2B5900005E0FCC2B5740F5C4430FC6E
:20054900D2B590000DE4F0C2B5D2B590000D7401F0C2B5C004120434D2B5900000E0FBC261
:20056900B5740F5B4430FBD2B590000DE4F0C2B5D2B590000D7401F0C2B5C003120434D024
:2005890003D004D005D006D007D2B5900001E0FAC2B5740F5A4430FAD2B590000DE4F0C28B
:2005A900B58C1F8D208E228F238A258B2690001F75F0400210D9858210858311856B12856D
:2005C9006C1322858216858317856B18856C1922E582FF24F7500122EF60068F067F008024
:2005E900047E017F008E1422E582FF24FC404EEF2F9005FE7380068014802280307F48754C
:200609001AF0751B00751C40751D01803E7F28751A40751B01751CF0751D00802E7F8875D1
:200629001AF0751B00751C40751D01801E7FE8751A40751B01751CF0751D00800E7F487571
:200649001AF0751B00751C40751D018F6B75823602023EAE82AF83C2B4D2B5850A82850B2A
:2006690083742AF0C2B5D2B4D2B5850A82850B838F05EDF0C2B5D2B4D2B5850A82850B839F
:20068900EEF0C2B5D2B4D2B5850A82850B83E56EF0C2B5D2B4D2B5850A82850B83E56DF09E
:2006A900C2B5C2B4D2B5850A82850B83742BF0C2B5D2B4D2B5850A82850B83E56CF0C2B5AA
:2006C900D2B4D2B5850A82850B83E56BF0C2B5D2B4D2B5850A82850B83E570F0C2B5D2B4B6
:2006E900D2B5850A82850B83E56FF0C2B522751AF0751B00751C40751D01C2B5D2B4C2B483
:20070900D2B5850A82850B83E4F0C2B5D2B4D2B5850A82850B83E4F0C2B5D2B4D2B5850AC2
:2007290082850B83E4F0C2B5D2B4D2B5850A82850B83E4F0C2B59000641201A9756B00754F
:20074900820112023E9000321201A9756B0075822812023E90000A1201A9756B237582C0DC
:2007690012023E756B117582C112023EC2B4D2B5850A82850B8374C5F0C2B5D2B4D2B585D0
:200789000A82850B83743DF0C2B5D2B4D2B5850A82850B837430F0C2B5756BAA7582C71203
:2007A900023E756B8875823612023EC2B4D2B5850A82850B83743AF0C2B5D2B4D2B5850A37
:2007C90082850B837455F0C2B5D2B4D2B5850A82850B83E4F0C2B5756B1B756C009000B1B2
:2007E90012025E756B077582B712023E756B0075821112023E9000641201A9756B007582D6
:200809002912023E9000961201A9E51A24FFF56DE51B34FFF56EE51C24FFF56FE51D34FF9B
:20082900F570E4F56BF56C90000002065CAE82AF8374012EF56DE43FF56E74012528F56F9E
:20084900E43529F57085286B85296C8E828F8312065CC2B4D2B5850A82850B83742CF0C2AD
:20086900B5D2B4D2B5850A82850B83E52BF0C2B5D2B5850A82850B83E52AF0C2B5228582C8
:20088900328583337401C3952EF534E4952FF535852E6B852F6C90FFFE125838AA82AB8325
:2008A900A82EA92FE8252CF528E9352DF52985302A85312B853282853383C003C002C00148
:2008C900C000120836D000D001E52CC398F528E52D99F52985302A85312B853282853383D8
:2008E900C001C000120836D000D001E82532F582E93533F583852C28852D2985302A8531B5
:200909002BC001C000120836D000D001E532C398F582E53399F583852C28852D2985302A8C
:2009290085312BC001C000120836D000D001D002D003E4F538F539753601F537C3E5389827
:20094900E539648089F063F08095F0400122E53520E71618B8FF011974022AFAE43BFBEA9A
:200969002534F534EB3535F535C002C0030538E4B53802053974022536F536E43537F53722
:20098900E5362534F534E5373535F535E5382532FEE5393533FFE8252CFCE9352DFD8C28D9
:2009A9008D2985302A85312B8E828F83C007C006C005C004C003C002C001C000120836D05A
:2009C90000D001D002D003D004D005E532C39538FAE5339539FB8C288D2985302A85312B43
:2009E9008A828B83C003C002C001C000120836D000D001D002D003D006D007E52CC398FC23
:200A0900E52D99FD8C288D2985302A85312B8E828F83C005C004C003C002C001C000120830
:200A290036D000D001D002D003D004D0058C288D2985302A85312B8A828B83C003C002C0FF
:200A490001C000120836D000D001D002D003E82532FEE93533FFE538252CFCE539352DFDC2
:200A69008C288D2985302A85312B8E828F83C007C006C005C004C003C002C001C0001208EB
:200A890036D000D001D002D003D004D005E532C398FAE53399FB8C288D2985302A85312BE6
:200AA9008A828B83C003C002C001C000120836D000D001D002D003D006D007E52CC3953829
:200AC900FCE52D9539FD8C288D2985302A85312B8E828F83C005C004C003C002C001C00059
:200AE900120836D000D001D002D003D004D0058C288D2985302A85312B8A828B83C003C0E7
:200B090002C001C000120836D000D001D002D003D003D002020945AE827F00EE2EFCEF33D5
:200B2900FD8E028F03EA251AF53CEB351BF53DEA251CF53EEB351DF53F78007900C3E895C6
:200B49003CE96480853DF063F08095F0505A7A007B00C3EA953EEB6480853FF063F080956F
:200B6900F0503D8A2C8B2D8E2E8F2F853A30853B3188828983C007C006C005C004C003C078
:200B890002C001C000120887D000D001D002D003D004D005D006D007EC2AFAED3BFB80B227
:200BA900EC28F8ED39F9809522AE82AF83C3EE94F0EF9400500BC3E5409440E5419401409E
:200BC9000122E5422EFCE5433FFD1CBCFF011DC3EC94F0ED9400400A74F0C39EF542E49FC2
:200BE900F543E5442540FCE5453541FD1CBCFF011DC3EC9440ED9401400D7440C39540F505
:200C09004474019541F545E5422EFCE5433FFDEC24FFF56DED34FFF56EE5442540FCE545A5
:200C29003541FDEC24FFF56FED34FFF57085406B85416C8E828F8312065CC2B4D2B5850ABC
:200C490082850B83742CF0C2B5D2B4AF47AD44AE45ED4E6030AB42AC43EB4C6021D2B58524
:200C69000A82850B83EFF0C2B5D2B5850A82850B83E546FAF0C2B51BBBFF011C80DB1DBD18
:200C8900FF011E80CC22AE82AF838F05E4F56BF56C756DEFF56E756F27F570900000C0062A
:200CA900C00512065CD005D006C2B4D2B5850A82850B83742CF0C2B5D2B4D2B5850A82857C
:200CC9000B83EDF0C2B5D2B5850A82850B83EEF0C2B57C967F008C028F031CBCFF011FEA97
:200CE9004B60667B10D2B5850A82850B83EDF0C2B5D2B5850A82850B83EEF0C2B5D2B58544
:200D09000A82850B83EDF0C2B5D2B5850A82850B83EEF0C2B5D2B5850A82850B83EDF0C28D
:200D2900B5D2B5850A82850B83EEF0C2B5D2B5850A82850B83EDF0C2B5D2B5850A82850BCE
:200D490083EEF0C2B5DB9E808D7F3F8F041FEC601AD2B5850A82850B83EDF0C2B5D2B5854B
:200D69000A82850B83EEF0C2B580E022AE82AF838F05E4F56BF56C756DEFF56E756F3F758D
:200D89007001900000C006C00512065CD005D006C2B4D2B5850A82850B83742CF0C2B5D2A5
:200DA900B4D2B5850A82850B83EDF0C2B5D2B5850A82850B83EEF0C2B57CB07F048C028FAB
:200DC900031CBCFF011FEA4B60667B10D2B5850A82850B83EDF0C2B5D2B5850A82850B83E0
:200DE900EEF0C2B5D2B5850A82850B83EDF0C2B5D2B5850A82850B83EEF0C2B5D2B5850A80
:200E090082850B83EDF0C2B5D2B5850A82850B83EEF0C2B5D2B5850A82850B83EDF0C2B5E1
:200E2900D2B5850A82850B83EEF0C2B5DB9E808D7F3F8F041FEC601AD2B5850A82850B83A2
:200E4900EDF0C2B5D2B5850A82850B83EEF0C2B580E022900000020D75858250858351C32C
:200E6900E55094F0E551648094805059C3E5489440E54964809481504CAC4F7D008C6B8D56
:200E89006C900006C005C004125838AA82AB83D004D005EA2550FAEB3551FB1ABAFF011B65
:200EA900EB20E721EDC40354F8CCC403CC6CCC54F8CC6CFDEC2548FCED3549FD1CBCFF0169
:200EC9001DED30E701227401B54F0474018001E4FDFCE54BB54D09E54CB54E04740180010C
:200EE900E4FB75520074FA25525001227405B552057553008031854A6B756C00900005C07D
:200F090005C004C003125838A882AF83D003D004D005E82430F8EF3459FFE55228F582E459
:200F29003FF583E493F5538552F0E54FA42550FEE55135F0FF8E548F557800B80800400385
:200F490002106EE55320E003020FDCED6040A9527A00E92550F582EA3551F58388017A001E
:200F6900E92548F528EA3549F529854B2A854C2BC007C006C005C004C003C000120836D0C0
:200F890000D003D004D005D006D00702106488F0E54FA42548F540E54935F0F541A94F7ABC
:200FA9000089428A4389448A45854B46854C47855482855583C007C006C005C004C003C075
:200FC90000120BB2D000D003D004D005D006D007021064EB6003021064EC603FA9527A0006
:200FE900E92550F582EA3551F58388017A00E92548F528EA3549F529854D2A854E2BC0076E
:20100900C006C005C004C003C000120836D000D003D004D005D006D007804088F0E54FA49C
:201029002548F540E54935F0F541A94F7A0089428A4389448A45854D46854E478E828F8382
:20104900C007C006C005C004C003C000120BB2D000D003D004D005D006D007E553C313F523
:201069005308020F440552020EEEAF82BF0A22AD14E4C40354F8CDC403CD6DCD54F8CD6D6D
:20108900FEED2512F512EE3513F513E4F510F51122BF0D01228512488513498F4A85164B61
:2010A90085174C85184D85194E85144F851082851183120E6285146B756C009000061258EA
:2010C90038AE82AF83EE2510F510EF3511F51122AD82AE83AFF07B007C00EB2DF8EC3EF9BF
:2010E9008F02888289838AF01258A2FA60208A82C007C006C005C004C003121073D003D023
:2011090004D005D006D0070BBB00CF0C80CC2275820A0210737F007E01C007C006120E5CA4
:20112900E4F56BF56C9000001205BFE4F56BF56C90F81F1205CC905E4C75F0801210D9E46E
:20114900F56BF56C9007FF1205CC905E5975F0801210D9D006D007BF080280030211E57FB5
:201169000075820AC007C006121073D006D007BE0455900005C0071201A9120E5CE4F56BA7
:20118900F56C90F81F1205CC1204AF120E5CE4F56BF56C9000001205BFE4F56BF56C90F8E2
:2011A9001F1205CC905E4C75F0801210D9E4F56BF56C9007FF1205CC905E5975F08012109E
:2011C900D9D0077E018090905E5975F080C007C0061210D9D006D0070E021160C007C00658
:2011E9001211F7121073D006D0070F0211607590F0E59054F0FFBFF0F88590085308F074D8
:20120900F0B50804E50F60F190000A1201A9E59054F0FFB508028004E50F60DD7401B50F14
:2012290009E50EFF24C0F50E80527590FEE59054F0F50874F0B508028005750900803D75E0
:2012490090FDE59054F0F50874F0B50802800575090180287590FBE59054F0F50874F0B5A4
:201269000802800575090280137590F7E59054F0F50874F0B5080280A37509037401B50F11
:2012890007750F00850E822274E0B50815E50975F004A4242BF582745E35F0F583E493F5C1
:2012A900822274D0B50818E50975F004A4242BFE745E35F0FF8E828F83A3E493F5822274E1
:2012C900B0B50819E50975F004A4242BFE745E35F0FF8E828F83A3A3E493F58222E5097566
:2012E900F004A4242BFE745E35F0FF8E828F83A3A3A3E493F58222AF827D007E00BF010003
:2013090040608F037C00756B0A8C6C8B828C83C006C005C004C0031258BEA982AA83D003B3
:20132900D004756B0A756C008B828C83C002C0011258F4AB82D001D002D005D0068B078D6E
:201349006B8E6C90000AC007C002C001125838E5828583F0D001D002D00729FDEA35F0FE8D
:20136900809B8D828E8322AE82AF837C007D00C3EE9401EF94004069756B0A756C008E825F
:201389008F83C007C006C005C004125855AA82AB83D004D005D006D007756B0A756C008E54
:2013A900828F83C005C004C003C00212580FAE82AF83D002D003D004D0058C6B8D6C9000D9
:2013C9000AC007C006C003C002125838E5828583F0D002D003D006D0072AFCEB35F0FD80E2
:2013E9008E8C828D8322E582FF700475823022BF010475823122BF020475823222BF03040F
:2014090075823322BF040475823422BF050475823522BF060475823622BF0704758237221B
:20142900BF080475823822BF090475823922BF0A0475824122BF0B0475824222BF0C0475D5
:20144900824322BF0D0475824422BF0E0475824522BF0F04758246227582FF22AF82BF30D7
:201469000475820022BF310475820122BF320475820222BF330475820322BF340475820424
:2014890022BF350475820522BF360475820622BF370475820722BF380475820822BF3904C1
:2014A90075820922BF410475820A22BF420475820B22BF430475820C22BF440475820D2259
:2014C900BF450475820E22BF460475820F227582FF22121300AE82AF83C3EE9401EF94003B
:2014E900403E756B0A756C008E828F83C007C006125855AC82D006D007756B0A756C008EF8
:20150900828F83C00412580FAE82AF83D00474302CF582C007C006121073D006D00780B96C
:2015290075820A021073AF827556007557007E00BF0100405A8F047D00740F5CFA756B10A3
:201549008D6C8C828D83C006C0021258F4AC82D002D0068C07EA24F6400CEE2456F98A05DC
:2015690074302DF78026EE2456F97D00756B0A8D6C8A828D83C007C006C0011258BEAC8273
:20158900AD83D001D006D00774412CF70E80A18557821210738556820210731213EF021092
:2015A90073E582FFC4540FF582C0071215A4D007740F5FF5820215A4AE82AF838F82C007F4
:2015C900C0061215AAD006D0078E820215AA121370AE82AF83C3EE9401EF94004044756BC9
:2015E9000A756C008E828F83C007C006125855AC82AD83D006D007756B0A756C008E828F14
:2016090083C005C00412580FAE82AF83D004D00574302CF582C007C006121073D006D0071B
:2016290080B322021073AE82AF838F82C007C00612162CD006D0078E8202162C7582001269
:2016490005F19007FF120D75900000120C8F7582051205D9E4F56BF56C9007FF1205CCE436
:20166900F56BF56C90000A1205BF905E5C75F0801210D97582021205D9756BFF756C0790C6
:2016890000001205CC905E6575F0801210D99000280201A9E4F56BF56C9007FF0205CCE4D5
:2016A900F56BF56C90F81F0205CC756BFF756C0790F81F0205CC756BFF756C07900000024C
:2016C90005CCE4F56BF56C90D6BA0205CC756BBA756CD69000000205CCE4F56BF56C90F8B7
:2016E900000205CCE4F56BF56C90FFFF0205CCE4F56BF56C9007E00205CCE4F56BF56C90E4
:20170900FFE00205CC1211F7AF82C007121073D0078F82121465E582C454F0FE7F00C00741
:20172900C0061211F7AD82C005121073D0058D82121465AD82D006D0078D047D00EF4205A8
:20174900EE4204C005C0041211F7AF82D004D0058F82C007C005C004121073D004D005D060
:20176900078F82C005C004121465AF82D004D005E4CFC4CF6FCF54F0CF6FFEED4207EC42F2
:2017890006C007C0061211F7AD82C005121073D0058D82121465AD82D006D0077C00ED4F07
:2017A900F582EC4EF583221211F7AF827871A6078F820214651211F7AF827871A6078F8276
:2017C90012107378718682121465AF827871A607EFC454F0FFC0071211F7AE827871A6068C
:2017E9008E8212107378718682121465AE82D0077871A606EE4FF58222E4F56BF56C900018
:20180900001205BF120E5C90D6BA120C8F7582051205D91216D6E4F56BF56C90001E12054C
:20182900BF905E8C75F0801210D97582021205D9756B3C756C009000001205BF1216ED9095
:201849005E9475F0801210D912169D905E9975F0801210D9756B3C756C009000781205BFA6
:201869001216ED905EA075F0801210D912169D905EA575F0801210D9756B64756C009000EF
:20188900001205BF1216ED905EAC75F0801210D912169D905EB175F0801210D9756B6475DD
:2018A9006C009000781205BF1216ED905EB875F0801210D912169D905EBD75F0801210D9EA
:2018C900756B8C756C009000001205BF1216ED905EC475F0801210D912169D905EC975F0C4
:2018E900801210D9756BB4756C009000001205BF1216ED905ED175F0801210D912169D9080
:201909005ED675F0801210D9756BDC756C009000001205BF1216ED905EE275F0801210D9E2
:2019290012169D905EE775F0801210D97582011205D97872E67009905EED75F0801210D938
:201949007872B60109905EFA75F0801210D97582020205D97F00788176017D017B01C00783
:20196900C005C003120E5C90D6BA120C8F7582051205D91216D6E4F56BF56C90001E120539
:20198900BF905F0675F0801210D912169D7582021205D9756B3C756C009000001205BF9009
:2019A9005F0E75F0801210D9756B50756C009000001205BF1216CB905F2275F0801210D976
:2019C90012169D756B8C756C009000001205BF905F2A75F0801210D9756BA0756C0090009C
:2019E900001205BF1216CB905F3F75F0801210D9756BF0756C009000001205BF905F61752B
:201A0900F0801210D91216CB905F6E75F0801210D91216A8756B3C756C009000001205BFEF
:201A2900905F7175F0801210D9756B50756C009000001205BF905F8475F0801210D912166B
:201A4900B3905E5975F0801210D912170E787FA68208A683D003D005787F8604088606C09F
:201A690006C005C004C00312169D756B3C756C009000001205BF905F7175F0801210D9752E
:201A89006B50756C009000001205BF905F8475F0801210D91216BF905E5975F0801210D9DA
:201AA900787F86820886831215C11216A8756B8C756C009000001205BF905F8675F0801236
:201AC90010D9756BA0756C009000001205BF1216ED905F3F75F0801210D9D003D004D005AE
:201AE900D006D007ED7003021C69756BA0756C00900000C006C005C004C0031205BF121648
:201B0900ED905F9A75F0801210D91217B0AF82D003D004D005D006BF015B7D00C007C006E5
:201B2900C005C004C00312169D756B8C756C009000001205BF905F8675F0801210D9756BA3
:201B4900A0756C009000001205BF905F9D75F0801210D91216BF905FA075F0801210D912C1
:201B690016CB905FAA75F0801210D9D003D004D005D006D007BF025E7D00C007C006C005EB
:201B8900C004C00312169D756B8C756C009000001205BF905F8675F0801210D9756BA075F3
:201BA9006C009000001205BF1216CB905FCE75F0801210D91216BF905FD275F0801210D932
:201BC9001216CB905FDC75F0801210D9D003D004D005D006D007BF045E7D00C007C006C04A
:201BE90005C004C00312169D756B8C756C009000001205BF905F8675F0801210D9756BA003
:201C0900756C009000001205BF1216CB905FFF75F0801210D91216BF90600475F0801210D1
:201C2900D91216CB905FDC75F0801210D9D003D004D005D006D007ED7003021AEDC007C00B
:201C490006C005C004C0031216E290600E75F0801210D9D003D004D005D006D007021AED0F
:201C6900EB7003021D64756BF0756C00900000C007C006C004C0031205BF1216A890602966
:201C890075F0801210D91216B31211F7AD827871A6058D8212107378718682121465AD8254
:201CA900D003D004C005C004C00312169DD003D004D005D006D007EDB50702804FC007C039
:201CC90006C004C0031216A8905F6175F0801210D91216CB905F6E75F0801210D9756B045A
:201CE900756C019000001205BF1216E290603775F0801210D9756BF0756C0090000012052A
:201D0900BFD003D004D006D007021C69756BF0756C00900000C007C006C0041205BF121690
:201D29009D90602975F0801210D91216BF787186821210737B00756B04756C01900000C006
:201D4900031205BF1216F890605275F0801210D9D003D004D006D007021C69900028C00705
:201D6900C006C0041201A9120E5C90D6BA120C8F7582051205D91216D6E4F56BF56C9000AC
:201D89001E1205BF905F0675F0801210D912169DD004D006D007BF0103EF8001E4FDE4BF74
:201DA900020104F55AE4BF040104FF7881E6700122758202C007C006C005C0041205D91296
:201DC90016ED756B3C756C009000001205BF90607475F0801210D912169D756B50756C007A
:201DE9009000001205BF90607E75F0801210D9787F86820886831215C1D004D005D006D0DF
:201E090007ED7003021ED2756B78756C00900000C007C006C005C0041205BF1216ED9060A6
:201E29008275F0801210D912169D756B8C756C0090000A1205BFD004D005D006C2B58C82B1
:201E49008E83E0F582D2B5C006C005C0041215AA756BB4756C009000001205BF1216ED90EA
:201E6900608D75F0801210D912169D756BC8756C0090000A1205BFD004D005D006C2B58C4C
:201E8900828E83E0F582D2B5C006C005C00412162C756BF0756C009000001205BF1216EDF9
:201EA90090609A75F0801210D9756B04756C019000001205BF12169D9060A675F080121021
:201EC900D9D004D005D006D007E55A7003021FF6C007756B78756C00900000C007C006C024
:201EE90005C0041205BF1216ED90608275F0801210D912169D756B8C756C0090000A120510
:201F0900BFD004D005D006C2B58C828E83E0F582D2B5C006C005C0041215AAD004D005D06D
:201F290006D00774012CFBE43EFFC2B58B828F83E0F582D2B5C007C005C0031215AAD00397
:201F4900D005D0071BBBFF011F756BB4756C00900000C007C005C0031205BF1216ED9060A8
:201F69008D75F0801210D912169D756BC8756C0090000A1205BFD003D005D007C2B58B822A
:201F89008F83E0F582D2B5C007C005C00312162CD003D005D00774012BFCE43FFEC2B58C66
:201FA900828E83E0F582D2B5C007C006C005C00412162C756BF0756C009000001205BF1214
:201FC90016ED90609A75F0801210D912169D756B04756C019000001205BF9060AC75F08019
:201FE9001210D9D004D005D006D007D007EF70030221A3756B78756C00900000C007C00632
:20200900C005C0041205BF1216ED90608275F0801210D912169D756B8C756C0090000A1233
:2020290005BFD004D005D006C2B58C828E83E0F582D2B5C006C005C0041215AAD004D00517
:20204900D00674012CFAE43EFBC2B58A828B83E0F582D2B5C005C003C0021215AAD002D0BD
:2020690003D005D0070ABA00010BC2B58A828B83E0F582D2B5C007C005C003C0021215AA87
:20208900D002D00374012AF558E43BF559C2B5855882855983E0FBD2B58B821215AAD005ED
:2020A900D007E55824FFFAE55934FFFB1ABAFF011B1ABAFF011B756BB4756C00900000C0D7
:2020C90007C005C003C0021205BF1216ED90608D75F0801210D912169D756BC8756C009080
:2020E900000A1205BFD002D003C2B58A828B83E0F582D2B5C003C00212162CD002D003D095
:2021090005D0070ABA00010BC2B58A828B83E0F582D2B5C007C005C003C00212162CD00264
:20212900D003D005D0070ABA00010BC2B58A828B83E0F582D2B5C007C005C003C00212169F
:202149002CD002D003D00574012AFCE43BFEC2B58C828E83E0F582D2B5C006C005C0041243
:20216900162C756BF0756C009000001205BF1216ED90609A75F0801210D912169D756B04D5
:20218900756C019000001205BF9060B275F0801210D9D004D005D006D007756B2C756C0128
:2021A900900032C007C006C005C0041205BF1216ED9060B975F0801210D91211F7AB82D0B3
:2021C90004D005D006D0077871A603BB30028003021DB478817600756B2C756C019000327C
:2021E900C007C006C005C0041205BF1216A8905F8475F0801210D91216BF9060C475F08047
:202209001210D99000281201A9D004D005D006D007021DB4227E007F007D007C0178847692
:2022290001C007C006C005C004120E5C90D6BA120C8F7582051205D91216D6E4F56BF56CA6
:2022490090001E1205BF9060CE75F0801210D912169D7582021205D9756B3C756C00900018
:20226900001205BF9060D675F0801210D9756B50756C009000001205BF1216CB905F2275E9
:20228900F0801210D9756B6E756C009000001205BF12169D9060E775F0801210D9756B8257
:2022A900756C009000001205BF1216CB905F2275F0801210D9756BA0756C009000001205E2
:2022C900BF12169D905F8675F0801210D9756BB4756C009000001205BF1216CB905F3F75AB
:2022E900F0801210D9756B04756C019000001205BF12169D905F6175F0801210D91216CB56
:20230900905F6E75F0801210D9756B3C756C009000001205BF1216A89060D675F080121077
:20232900D9756B50756C009000001205BF905F8475F0801210D91216B3905E5975F08012D8
:2023490010D912170E7882A68208A68312169D756B3C756C009000001205BF9060D675F0AE
:20236900801210D9756B50756C009000001205BF905F8475F0801210D91216BF905E59756C
:20238900F0801210D9788286820886831215C1756B6E756C009000001205BF1216A8906079
:2023A900E775F0801210D9756B82756C009000001205BF905F8475F0801210D91216B390E6
:2023C9005E5975F0801210D912170EAA82AB83C003C00212169D756B6E756C0090000012B1
:2023E90005BF9060E775F0801210D9756B82756C009000001205BF905F8475F0801210D95D
:202409001216BF905E5975F0801210D9D002D0038A828B83C003C0021215C1756BA0756C18
:20242900009000001205BF1216A8905F8675F0801210D9756BB4756C009000001205BF121B
:2024490016ED905F3F75F0801210D9D002D003D004D005D006D007EC70030225F0756BB45D
:20246900756C00900000C007C006C004C003C0021205BF1216ED905F9A75F0801210D912A6
:2024890017B0AD82D002D003D004D006D007BD015F7C00C007C006C005C004C003C00212D1
:2024A900169D756BA0756C009000001205BF905F8675F0801210D9756BB4756C009000003F
:2024C9001205BF905F9D75F0801210D91216BF905FA075F0801210D91216CB905FAA75F06A
:2024E900801210D9D002D003D004D005D006D007BD02627C00C007C006C005C004C003C027
:202509000212169D756BA0756C009000001205BF905F8675F0801210D9756BB4756C0090CA
:2025290000001205BF1216CB905FCE75F0801210D91216BF905FD275F0801210D91216CBB1
:20254900905FDC75F0801210D9D002D003D004D005D006D007BD04627C00C007C006C005DB
:20256900C004C003C00212169D756BA0756C009000001205BF905F8675F0801210D9121600
:20258900CB756BB4756C009000001205BF905FFF75F0801210D91216BF90600475F08012EC
:2025A90010D91216CB905FDC75F0801210D9D002D003D004D005D006D007EC7003022460AB
:2025C900C007C006C005C004C003C0021216E290600E75F0801210D9D002D003D004D00521
:2025E900D006D0070224607884E67003022714C002C003756B04756C01900000C005C003AA
:20260900C0021205BF1216A890602975F0801210D91211F7E5827871F61216B37871868224
:2026290012107378718682121465AC82D002D003D0058C067F00C007C006C005C003C002F0
:2026490012169DD002D003D005D006D0078D037C00EEB5030AEFB50406D003D0028057D0CF
:2026690003D002756B18756C01900000C007C006C005C003C0021205BF1216E290603775BF
:20268900F0801210D9756B04756C019000001205BF1216A8905F6175F0801210D91216CBA7
:2026A900905F6E75F0801210D9D002D003D005D006D0070225F0756B04756C01900000C080
:2026C90007C006C005C003C0021205BF12169D90602975F0801210D91216BF78718682125C
:2026E900107378847600756B18756C019000001205BF1216F890605275F0801210D9D00288
:20270900D003D005D006D0070225F07882EE26FEEF0836FF7882865D08865EC3E55D9EE5BB
:202729005E9F50378A5B8B5C855D82855E83C2B5E0FDD2B5C2B5855B82855C83EDF0D2B5FA
:20274900BAFF09BBFF067A007B0080050ABA00010B055DE4B55DC4055E80C0756B2C756CF8
:20276900019000001205BF1216F89060F575F0801210D990003C1201A97871766E22788590
:202789007601120E5C90D6BA120C8F7582051205D91216D6E4F56BF56C90001E1205BF90CD
:2027A900610575F0801210D97582021205D912169D756B3C756C009000001205BF90610DBB
:2027C90075F0801210D9756B50756C009000001205BF1216CB905F2275F0801210D9756BD5
:2027E9006E756C009000001205BF12169D90611C75F0801210D91216CB90613175F080125D
:2028090010D9756BA0756C009000001205BF12169D90613575F0801210D91216CB9061311F
:2028290075F0801210D9756BD2756C009000001205BF12169D90614875F0801210D91216B0
:20284900CB90615E75F0801210D990618475F0801210D91216A8756B3C756C0090000012B1
:2028690005BF90610D75F0801210D9756B50756C009000001205BF905F8475F0801210D9E3
:202889001216B3905E5975F0801210D912170EAD82AE838D038E04C006C005C004C0031250
:2028A900169D756B3C756C009000001205BF90610D75F0801210D9756B50756C009000007A
:2028C9001205BF905F8475F0801210D91216BF905E5975F0801210D9D003D004D005D00666
:2028E9008D828E83C006C005C004C0031215C1756B6E756C009000001205BF12169D90616A
:202909008F75F0801210D91216BFD003D004C2B58B828C83E0F582D2B5C004C0031215AAE8
:20292900756BA0756C009000001205BF1216A890619275F0801210D91216B31211F7AA8273
:202949007871A6028A8212107378718682121465AA827871A602EAC454F0FAC0021211F73B
:20296900AF827871A6078F8212107378718682121465AF82D002D003D004D005D006787127
:20298900A607EA4207C007C006C005C004C00312169D756BA0756C009000001205BF9061F8
:2029A9009275F0801210D91216BFD003D004D005D006D0078F82C007C006C005C004C003A2
:2029C9001215AAD003D004D005D006D007C2B58B828C83EFF0D2B5756BD2756C00900000D8
:2029E900C006C0051205BF1216A890614875F0801210D91216ED90615E75F0801210D990B0
:202A0900618475F0801210D9D005D0067885E6700122C006C0051211F7AF82D005D00678CE
:202A290071A60778867601BF31028003022C1478867600756BD2756C00900000C006C00521
:202A49001205BF12169D905FCE75F0801210D91216BF9061A675F0801210D91216CB9061F3
:202A6900B875F0801210D990003C1201A9756B50756C009000001205BF1216CB905F22753D
:202A8900F0801210D9756B6E756C009000001205BF9061CA75F0801210D9756BA0756C0031
:202AA9009000001205BF9061CA75F0801210D9756BD2756C009000001205BF9061CF75F0EE
:202AC900801210D9D005D0060DBD00010E8D5F8E60756B50756C00900000C006C0051205D1
:202AE900BF905F8475F0801210D91216BF905E5975F0801210D9D005D0068D828E83C0061C
:202B0900C0051215C1756B6E756C009000001205BF12169D90618F75F0801210D91216BF5E
:202B2900C2B5855F82856083E0FAD2B58A821215AA756BA0756C009000001205BF1216A872
:202B490090619275F0801210D91216B31211F7AA827871A6028A821210737871868212149F
:202B690065AA827871A602EAC454F0FAC0021211F7AF827871A6078F821210737871868204
:202B8900121465AF82D002D005D0067871A607EA4207C007C006C00512169D756BA0756CB2
:202BA900009000001205BF90619275F0801210D91216BFD005D006D0078F82C007C006C07C
:202BC900051215AAD005D006D007C2B5855F82856083EFF0D2B5756BD2756C00900000C006
:202BE90006C0051205BF1216A890614875F0801210D91216ED90615E75F0801210D990610D
:202C09008475F0801210D9D005D0067871B632028003022E6078867600756BD2756C00901F
:202C290000001205BF12169D90620075F0801210D91216CB905FCE75F0801210D91216BFA7
:202C490090621875F0801210D91216CB90622975F0801210D990003C1201A9756B50756CFA
:202C6900009000001205BF1216CB905F2275F0801210D9756B6E756C009000001205BF90DC
:202C890061CA75F0801210D9756BA0756C009000001205BF9061CA75F0801210D9756BD20C
:202CA900756C009000001205BF9061CF75F0801210D9756B3C756C009000001205BF121699
:202CC900A890623A75F0801210D9756B50756C009000001205BF905F8475F0801210D9125B
:202CE90016B3905E5975F0801210D912170EAD82AE838D038E07C007C006C005C0031216E2
:202D09009D756B3C756C009000001205BF90610D75F0801210D9756B50756C009000001219
:202D290005BF905F8475F0801210D91216BF905E5975F0801210D9D003D005D0068D828E4A
:202D490083C006C005C0031215C1756B6E756C009000001205BF12169D90618F75F08012E0
:202D690010D91216BFD003D005D006D007C2B58B828F83E0F582D2B5C007C006C005C0039C
:202D89001215AA756BA0756C009000001205BF1216A890619275F0801210D91216B3121161
:202DA900F7AA827871A6028A8212107378718682121465AA827871A602EAC454F0FAC002CE
:202DC9001211F7AC827871A6048C8212107378718682121465AC82D002D0037871A604EAA0
:202DE9004204C004C00312169D756BA0756C009000001205BF90619275F0801210D91216E6
:202E0900BFD003D0048C82C004C0031215AAD003D004D005D006D007C2B58B828F83ECF042
:202E2900D2B5756BD2756C00900000C006C0051205BF1216A890614875F0801210D912166D
:202E4900ED90615E75F0801210D990618475F0801210D9D005D0067871B6305278857600B9
:202E690078867600756BD2756C00900000C006C0051205BF12169D90624875F0801210D972
:202E89001216CB905FFF75F0801210D91216BF90624A75F0801210D91216CB90622975F0F2
:202EA900801210D990003C1201A9D005D0067886E67003022A15756BD2756C00900000C0E0
:202EC90006C0051205BF1216E290625375F0801210D9D005D006022A152278897600788B91
:202EE90076007D00788C76017B01788D7601C005C003120E5C7582051205D990D6BA120C35
:202F09008F1216D6E4F56BF56C90001E1205BF90626575F0801210D912169D7582021205E6
:202F2900D9756B3C756C009000001205BF90626D75F0801210D9756B50756C00900000125A
:202F490005BF1216CB90613175F0801210D9756B6E756C009000001205BF12169D90627AE9
:202F690075F0801210D9756B82756C009000001205BF1216CB905F2275F0801210D9756BFB
:202F8900A0756C009000001205BF12169D90628B75F0801210D91216CB90629F75F08012A4
:202FA90010D99062C575F0801210D9756BFA756C009000001205BF1216CB9062D375F080CA
:202FC9001210D91216A8756B3C756C009000001205BF90626D75F0801210D9756B50756C6A
:202FE900009000001205BF1216ED756B50756C009000001205BF905F8475F0801210D91271
:2030090016B31211F7AC827871A6048C8212107378718682121465AC82D0037871A604EC64
:20302900C454F0FCC004C0031211F7AE827871A6068E8212107378718682121465AE82D0FC
:2030490003D0047871A606788AEE4CF6C00312169D756B3C756C009000001205BF90626D7F
:2030690075F0801210D9756B50756C009000001205BF1216ED905F8475F0801210D9121660
:20308900BF788A86821215AA1216A8756B6E756C009000001205BF90627A75F0801210D9DC
:2030A900756B82756C009000001205BF905F8475F0801210D91216B3905E5975F0801210E2
:2030C900D912170E7887A68208A68312169D756B6E756C009000001205BF90627A75F080D4
:2030E9001210D9756B82756C009000001205BF905F8475F0801210D91216BF905E5975F03D
:20310900801210D9788786820886831215C11216A8756BA0756C009000001205BF90628B17
:2031290075F0801210D91216ED90629F75F0801210D99062C575F0801210D9D003D005EBF6
:203149007003023207756BFA756C00900000C005C0031205BF1216CB9062D375F080121050
:20316900D9756BFA756C009000001205BF9062D975F0801210D91216B31217BE7889A682B6
:20318900D003D0057889B601187B00C005C00312169D9062DD75F0801210D9D003D005800F
:2031A9009E7889B602197B00C005C00312169D9062DD75F0801210D9D003D0050231487884
:2031C90089B604197B00C005C00312169D9062DD75F0801210D9D003D0050231487889B639
:2031E900FF057B00023148C005C0031216E29062EF75F0801210D9D003D005023148756B76
:20320900A0756C00900000C0051205BF12169D90628B75F0801210D9D0057889B601749046
:203229005F9D75F080C0051210D91216BF9062FB75F0801210D91216CB90630675F080124D
:2032490010D990631375F0801210D99062C575F0801210D912169D756BFA756C00900000EF
:203269001205BF9062D975F0801210D91216BF788986821215AA12169D90632175F0801233
:2032890010D91216ED90633675F0801210D9D0050233E07889B6026EC0051216CB9063461C
:2032A90075F0801210D91216BF90635575F0801210D91216CB90631375F0801210D990624B
:2032C900C575F0801210D912169D756BFA756C009000001205BF9062D975F0801210D9129D
:2032E90016BF788986821215AA12169D90632175F0801210D91216ED90636075F0801210EE
:20330900D9D0050233E07889B60464C0051216CB90637175F0801210D91216BF90638C75EB
:20332900F0801210D91216CB9062C575F0801210D912169D756BFA756C009000001205BFA9
:203349009062D975F0801210D91216BF788986821215AA12169D90632175F0801210D9122D
:2033690016ED90639875F0801210D9D00580687889B6FF63788B7601C0051216CB9063716A
:2033890075F0801210D99063AA75F0801210D91216BF9063B875F0801210D912169D756BB0
:2033A900FA756C009000001205BF9062D975F0801210D91216BF788986821215AA12169D92
:2033C90090632175F0801210D91216ED9063C475F0801210D9D005900028C0051201A91224
:2033E9000E5C90D6BA120C8F7582051205D91216D6E4F56BF56C90001E1205BF90626575AE
:20340900F0801210D912169D7582021205D9D005788DE670030239E1788BE67003023500A8
:20342900756B3C756C00900000C0051205BF1217039063D375F0801210D91216ED9063E79A
:2034490075F0801210D912169D788A86821215AAD0058D03E4F561F562788986027E00C323
:20346900E5619AE5629E40030234F77887E62561FC08E63562FEC2B58C828E83E0FCD2B52B
:20348900788AE6B5045D788C7600EB7034C0031216ED756B78756C009000001205BF9063B2
:2034A900F875F0801210D912169D90607E75F0801210D98561828562831215C1D0030B8000
:2034C90022756B78756C00900000C0031205BF90640D75F0801210D9856182856283121585
:2034E900C1D0030561E4B5610205620234628B05788D7600023968756B3C756C0090000093
:20350900C0051205BF12170390641275F0801210D91216ED9063E775F0801210D912169D61
:20352900788A86821215AAD005E4F564F565788986027B00C3E5649AE5659B4003023968C6
:203549007887E62564FA08E63565FB8A828B83C2B5E0FBD2B5788AE6B50302800302395DC7
:20356900788C7600756B78756C00900000C0051205BF1216ED90642275F0801210D9121631
:203589009D90607E75F0801210D9D0058D027B007887E62AF58208E63BF583C0051215C184
:2035A900756B2C756C019000321205BF1216CB90643775F0801210D91216BFD0058D03EB47
:2035C90004F582C0051215AAD005E56445656003023708C005788986027B00EA24FFFDEBA7
:2035E90034FFFFEDB56409EFB56505D005023689756BB4756C009000001205BF1216ED905D
:20360900643E75F0801210D9D0057F018D63EF70030236FBC0071211F7AF827871A607BFDE
:2036290031028004D0078027D007756BB4756C009000001205BF905F8475F0801210D91235
:2036490016BF90646175F0801210D97F0005637871B630BA12169D756BB4756C009000001D
:203669001205BF90618F75F0801210D91216BF90624A75F0801210D9788D76007F00808E00
:203689001ABAFF011BEAB5646BEBB56567756BB4756C00900000C0051205BF1216ED9064AF
:2036A9006A75F0801210D9D0057F01EF6046C007C0051211F7AB82D005D0077871A603BB01
:2036C90030E9C00512169D756BB4756C009000001205BF90618F75F0801210D91216BF908C
:2036E900624A75F0801210D9D005788D76007F0080B9AD63788DE6600302395D023968C0D4
:2037090005788986037F00EB24FFFAEF34FFFDEAB56406EDB565028005D005023854D0059C
:20372900E564456570030237DD756BB4756C00900000C0051205BF1216ED90648E75F080E8
:203749001210D9D0057F018D63EF7003023847C007C0071211F7AA82D0077871A602BA3017
:20376900028004D0078029D007756BB4756C009000001205BF90618F75F0801210D9121600
:20378900BF9060C475F0801210D97F00788D76007871B632B4756BB4756C00900000120532
:2037A900BF1216ED9064B175F0801210D91216BF9064B575F0801210D97F00E56424FFFA52
:2037C900E56534FFFEEA24FFF564EE34FFF5651563023752E56445657066756BB4F56C9033
:2037E9000000C0051205BF1216ED90646A75F0801210D9D0057E01EE6046C006C00512113C
:20380900F7AC82D005D0067871A604BC30E9C00512169D756BB4756C009000001205BF9072
:20382900618F75F0801210D91216BF90624A75F0801210D9D005788D76007E0080B9AD6395
:20384900788DE6600302395D0239681BBBFF011FEBB56407EFB5650302395DE564456570CF
:2038690003023958756BB4756C00900000C0051205BF1216ED9064C275F0801210D9D00589
:203889007F01EF7003023958C007C0051211F7AE82D005D0077871A606BE3128756BB47573
:2038A9006C00900000C0051205BF905F8475F0801210D91216BF90646175F0801210D9D029
:2038C900057F000D7871B6323F756BB4756C00900000C0051205BF1216ED9064B175F080FF
:2038E9001210D91216BF9064B575F0801210D9D0057F00E56424FFFCE56534FFFEEC24FF0E
:20390900F564EE34FFF5651D7871B63002800302388BC0051216ED756BB4756C00900000B5
:203929001205BF9064E475F0801210D91216BF90624A75F0801210D91216ED9064F075F08F
:20394900801210D9D005788D76007F0002388B788DE6600B0564E4B5640205650235377841
:203969008CE67003023419C0051216E2756B8C756C009000001205BF9064FF75F08012108E
:20398900D91216ED90652075F0801210D9D0057F01EF7003023419C007C0051211F7AE825F
:2039A900D005D0077871A606BE30E6756B8C756C00900000C0051205BF90652B75F080125A
:2039C90010D91216BF90624A75F0801210D9D0057F00788D760080B99000500201A9789056
:2039E9007600789276007D00789376017B0178947601C005C003120E5C7582051205D9904A
:203A0900D6BA120C8F1216D6E4F56BF56C90000F1205BF90653075F0801210D912169D7509
:203A290082021205D9756B3C756C009000001205BF90653975F0801210D9756B50756C0087
:203A49009000001205BF1216CB90613175F0801210D9756B6E756C009000001205BF121645
:203A69009D90627A75F0801210D9756B82756C009000001205BF1216CB905F2275F08012B0
:203A890010D9756BA0756C009000001205BF12169D90628B75F0801210D91216CB90629FC7
:203AA90075F0801210D99062C575F0801210D9756BFA756C009000001205BF1216CB906280
:203AC900D375F0801210D91216A8756B3C756C009000001205BF90653975F0801210D97574
:203AE9006B50756C009000001205BF1216ED756B50756C009000001205BF905F8475F080D7
:203B09001210D91216B31211F7AC827871A6048C8212107378718682121465AC82D0037853
:203B290071A604ECC454F0FCC004C0031211F7AE827871A6068E821210737871868212144F
:203B490065AE82D003D0047871A6067891EE4CF6C00312169D756B3C756C00900000120526
:203B6900BF90653975F0801210D9756B50756C009000001205BF1216ED905F8475F0801279
:203B890010D91216BF789186821215AA1216A8756B6E756C009000001205BF90627A75F034
:203BA900801210D9756B82756C009000001205BF905F8475F0801210D91216B3905E5975EE
:203BC900F0801210D912170E788EA68208A68312169D756B6E756C009000001205BF90628F
:203BE9007A75F0801210D9756B82756C009000001205BF905F8475F0801210D91216BF90EF
:203C09005E5975F0801210D9788E86820886831215C11216A8756BA0756C00900000120525
:203C2900BF90628B75F0801210D91216ED90629F75F0801210D99062C575F0801210D9D072
:203C490003D005EB7003023D0B756BFA756C00900000C005C0031205BF1216CB9062D37505
:203C6900F0801210D9756BFA756C009000001205BF9062D975F0801210D91216B31217BE42
:203C89007890A682D003D0057890B601187B00C005C00312169D9062DD75F0801210D9D025
:203CA90003D005809E7890B602197B00C005C00312169D9062DD75F0801210D9D003D0050D
:203CC900023C4C7890B604197B00C005C00312169D9062DD75F0801210D9D003D005023C19
:203CE9004C7890B6FF057B00023C4CC005C0031216E29062EF75F0801210D9D003D00502AB
:203D09003C4C756BA0756C00900000C0051205BF12169D90628B75F0801210D9D005789087
:203D2900B60174905F9D75F080C0051210D91216BF9062FB75F0801210D91216CB9063067E
:203D490075F0801210D990631375F0801210D99062C575F0801210D912169D756BFA756C7D
:203D6900009000001205BF9062D975F0801210D91216BF789086821215AA12169D90632188
:203D890075F0801210D91216ED90633675F0801210D9D005023EE47890B6026EC005121608
:203DA900CB90634675F0801210D91216BF90635575F0801210D91216CB90631375F0801217
:203DC90010D99062C575F0801210D912169D756BFA756C009000001205BF9062D975F080C4
:203DE9001210D91216BF789086821215AA12169D90632175F0801210D91216ED9063607561
:203E0900F0801210D9D005023EE47890B60464C0051216CB90637175F0801210D91216BF2C
:203E290090638C75F0801210D91216CB9062C575F0801210D912169D756BFA756C00900080
:203E4900001205BF9062D975F0801210D91216BF789086821215AA12169D90632175F08052
:203E69001210D91216ED90639875F0801210D9D00580687890B6FF6378927601C005121673
:203E8900CB90637175F0801210D99063AA75F0801210D91216BF9063B875F0801210D91209
:203EA900169D756BFA756C009000001205BF9062D975F0801210D91216BF7890868212155C
:203EC900AA12169D90632175F0801210D91216ED9063C475F0801210D9D005900028C00578
:203EE9001201A9120E5C90D6BA120C8F7582051205D91216D6E4F56BF56C90000F1205BFB0
:203F090090653075F0801210D912169D7582021205D9D0057894E670030244BC7892E67049
:203F290003023FE2756B3C756C00900000C0051205BF1217039063D375F0801210D9121630
:203F4900ED9063E775F0801210D912169D789186821215AAD0058D03E4F566F5677890867C
:203F6900027E00C3E5669AE5679E502A788EE62566FC08E63567FEC2B58C828E83E0FCD26D
:203F8900B57891E6B50405789376000B0566E4B566CB056780C78B05756B78756C009000E9
:203FA90000C005C0031205BF1216ED90654875F0801210D912169D905E5975F0801210D97C
:203FC900D0038B821215AA90655475F0801210D9D00578947600024443756B3C756C009091
:203FE9000000C0051205BF12170390641275F0801210D91216ED9063E775F0801210D9122A
:20400900169DD005E4F569F56A789086027B00C3E5699AE56A9B4003024443788EE6256988
:20402900FA08E6356AFB8A828B83C2B5E0FBD2B57891E6B503028003024438789376007562
:204049006B78756C00900000C0051205BF1216ED90642275F0801210D912169D90607E75B5
:20406900F0801210D9D0058D027B00788EE62AF58208E63BF583C0051215C1756B2C756C25
:20408900019000321205BF1216CB90656375F0801210D91216BFD0058D03EB04F582C005DC
:2040A9001215AAD005E569456A60030241E3C005789086027B00EA24FFFDEB34FFFFEDB532
:2040C9006909EFB56A05D005024164756BB4756C009000001205BF1216ED90643E75F080CF
:2040E9001210D9D0057F018D68EF70030241D6C0071211F7AF827871A607BF31028004D009
:20410900078027D007756BB4756C009000001205BF905F8475F0801210D91216BF906461A7
:2041290075F0801210D97F0005687871B630BA12169D756BB4756C009000001205BF906190
:204149008F75F0801210D91216BF90624A75F0801210D9789476007F00808E1ABAFF011BE6
:20416900EAB5696BEBB56A67756BB4756C00900000C0051205BF1216ED90646A75F0801248
:2041890010D9D0057F01EF6046C007C0051211F7AB82D005D0077871A603BB30E9C0051287
:2041A900169D756BB4756C009000001205BF90618F75F0801210D91216BF90624A75F08000
:2041C9001210D9D005789476007F0080B9AD687894E66003024438024443C0057890860305
:2041E9007F00EB24FFFAEF34FFFDEAB56906EDB56A028005D00502432FD005E569456A70E4
:20420900030242B8756BB4756C00900000C0051205BF1216ED90648E75F0801210D9D005AA
:204229007F018D68EF7003024322C007C0071211F7AA82D0077871A602BA30028004D007B4
:204249008029D007756BB4756C009000001205BF90618F75F0801210D91216BF9060C4758A
:20426900F0801210D97F00789476007871B632B4756BB4756C009000001205BF1216ED90C4
:2042890064B175F0801210D91216BF9064B575F0801210D97F00E56924FFFAE56A34FFFE46
:2042A900EA24FFF569EE34FFF56A156802422DE569456A7066756BB4F56C900000C00512ED
:2042C90005BF1216ED90646A75F0801210D9D0057E01EE6046C006C0051211F7AC82D0052E
:2042E900D0067871A604BC30E9C00512169D756BB4756C009000001205BF90618F75F080AD
:204309001210D91216BF90624A75F0801210D9D005789476007E0080B9AD687894E660031E
:204329000244380244431BBBFF011FEBB56907EFB56A03024438E569456A7003024433757B
:204349006BB4756C00900000C0051205BF1216ED9064C275F0801210D9D0057F01EF7003C7
:20436900024433C007C0051211F7AE82D005D0077871A606BE3128756BB4756C0090000088
:20438900C0051205BF905F8475F0801210D91216BF90646175F0801210D9D0057F000D7831
:2043A90071B6323F756BB4756C00900000C0051205BF1216ED9064B175F0801210D91216FA
:2043C900BF9064B575F0801210D9D0057F00E56924FFFCE56A34FFFEEC24FFF569EE34FFBD
:2043E900F56A1D7871B630028003024366C0051216ED756BB4756C009000001205BF906490
:20440900E475F0801210D91216BF90624A75F0801210D91216ED9064F075F0801210D9D023
:2044290005789476007F000243667894E6600B0569E4B56902056A0240127893E6700302CA
:204449003F1DC0051216E2756BA0756C009000001205BF9064FF75F0801210D91216ED90E9
:20446900652075F0801210D9D0057F01EF7003023F1DC007C0051211F7AE82D005D00778BF
:2044890071A606BE30E6756BA0756C00900000C0051205BF90652B75F0801210D91216BFAF
:2044A90090624A75F0801210D9D0057F007894760080B99000500201A9120E5C90D6BA128E
:2044C9000C8F7582051205D91216D6E4F56BF56C90000F1205BF90656B75F0801210D912E2
:2044E900169D7582021205D9756B3C756C009000001205BF90657475F0801210D91216CB78
:2045090090613175F0801210D9756B3C756C009000001205BF90618F75F0801210D91216A5
:20452900B3787176001211F7AF82C007121073D0078F82121465E582C454F0FF7871E64FBA
:204549007871F61211F7AF82C007121073D0078F82121465AF827871EF46F612169D90655A
:204569008375F0801210D9787186821200EB1216ED9065B075F0801210D978718682120143
:204589001A9065C575F0801210D9E4F56BF56C90001F1205CC9065D175F0801210D9787198
:2045A900E6F4F61216A89065F575F0801210D9787186821200EB1217039065B075F08012D2
:2045C90010D97871868212011A1216F890660B75F0801210D99000780201A97F007E00C059
:2045E90007C006120E5C90D6BA120C8F7582051205D91216D6E4F56BF56C90001E1205BF89
:2046090090661E75F0801210D97582021205D912169DD006D0077873B6010280030246C50E
:20462900756B3C756C00900000C007C0061205BF90662675F0801210D9D006D0077878B632
:20464900011190662C75F080C007C0061210D9D006D0077878B6021190663175F080C00777
:20466900C0061210D9D006D0077878B6031190663675F080C007C0061210D9D006D007784B
:2046890078B6041190663B75F080C007C0061210D9D006D0077878B6051190664075F080AC
:2046A900C007C0061210D9D006D00790664675F080C007C0061210D9D006D0077873E67025
:2046C9001C756B3CF56C900000C007C0061205BF90664D75F0801210D9D006D0077874B6D3
:2046E900015A756B64756C00900000C007C0061205BF90666175F0801210D9D006D00778E2
:204709007AB6011190666775F080C007C0061210D9D006D007787AE6701190666975F0803A
:20472900C007C0061210D9D006D00790666B75F080C007C0061210D9D006D0077874E6707E
:204749001C756B64F56C900000C007C0061205BF90667675F0801210D9D006D0077875B600
:2047690001028003024838756B8C756C00900000C007C0061205BF90669E75F0801210D974
:20478900D006D0077879B601119066A475F080C007C0061210D9D006D0077879B6021190AC
:2047A90066A875F080C007C0061210D9D006D0077879B603119066A875F080C007C00612EB
:2047C90010D9D006D0077879B604119066AE75F080C007C0061210D9D006D0077879B60514
:2047E900119066AE75F080C007C0061210D9D006D0077879B607119066A475F080C007C01C
:20480900061210D9D006D0077879B608119066A875F080C007C0061210D9D006D007906673
:20482900B375F080C007C0061210D9D006D0077875E6701C756B8CF56C900000C007C00659
:204849001205BF9066BB75F0801210D9D006D0077872B60126756BB4756C00900000C007A8
:20486900C0061205BF9066DF75F0801210D99066F275F0801210D9D006D0077872E6702504
:20488900756BB4F56C900000C007C0061205BF90670275F0801210D990671475F08012103C
:2048A900D9D006D007756BF0756C00900000C007C0061205BF90672575F0801210D9D006F3
:2048C900D007C007C0061211F7AD82D006D0077871A605BD3033756BF0756C00900000126E
:2048E90005BF905F8475F0801210D91216B390673175F0801210D91216BF90673675F080BC
:204909001210D99000140201A9BD340280030249DD756BB4756C00900000C007C0061205FC
:20492900BF905F8475F0801210D91216B390673C75F0801210D91216BFD006D0077872B63A
:20494900015490674175F0801210D912169D90674F75F0801210D91216B390675575F080EA
:204969001210D912169D7F007E00C007C0061201E7120E5C756B78756C0090001E1205BFB1
:2049890090675F75F0801210D99000281201A9D006D0070245E87872E6703990676E75F045
:2049A90080C0061210D912169D90674F75F0801210D91216B390677B75F0801210D912166D
:2049C9009D9000281201A99000281201A9D0067F01024BDA7871B631028003024A6A756BE1
:2049E9003C756C00900000C007C0061205BF905F8475F0801210D91216B390678675F0800E
:204A09001210D91216BF90678B75F0801210D99000141201A9D006D0077872B6013B756B80
:204A2900C8756C00900000C007C0061205BF1216E290679A75F0801210D912169D756B3C75
:204A4900756C009000001205BF90664D75F0801210D9D006D0070248CB7872E67003024C90
:204A6900E97871B632028003024B09756B64756C00900000C007C0061205BF905F8475F0A8
:204A8900801210D91216B39067BC75F0801210D91216BF9067C175F0801210D912169D9050
:204AA900674F75F0801210D91216B39067D175F0801210D9D006D0077872B6013B756BC8A3
:204AC900756C00900000C007C0061205BF1216E290679A75F0801210D912169D756B647500
:204AE9006C009000001205BF90667675F0801210D9D006D0070248CB7872E67003024F70C9
:204B09007871B633028003024BB4756B8C756C00900000C007C0061205BF905F8475F0809C
:204B29001210D91216B39067E075F0801210D91216BF9067E575F0801210D91216B390676A
:204B4900ED75F0801210D912169D90674F75F0801210D91216B39067F575F0801210D9D01D
:204B690006D0077872B6013B756BC8756C00900000C007C0061205BF1216E290679A75F0F7
:204B8900801210D912169D756B8C756C009000001205BF9066BB75F0801210D9D006D007DB
:204BA9000248CB7872E6702902509DC007C0061216E2756BC8756C009000001205BF906801
:204BC9000175F0801210D912169DD006D0070248CBC007C006120E5C756B78756C00900092
:204BE900001205BFD006D007BF01028003024CE97872B60126C007C0061216F890682475A8
:204C0900F0801210D91201E712169D9000281201A912169DD006D0070245E87872E6600319
:204C29000245E87873B601337875B6012E7874B60129C007C0061216A890683975F0801244
:204C490010D912169D90684F75F0801210D99000281201A9D006D0070252AB7873E67028ED
:204C6900C007C0061216E290686175F0801210D912169D90686E75F0801210D99000281286
:204C890001A9D006D00780587874E67025C0071216E290688175F0801210D912169D90688E
:204CA9008D75F0801210D99000281201A9D007024F707875E67029C007C0061216E2906877
:204CC900A075F0801210D912169D9068AF75F0801210D99000281201A9D006D00702509DEF
:204CE900C007C006120E5C90D6BA120C8F7582051205D91216D6E4F56BF56C90001E120581
:204D0900BF90661E75F0801210D97582021205D912169D756B3C756C009000001205BF9036
:204D290068C475F0801210D9756B64756C009000001205BF9068D475F0801210D9756B8CBB
:204D4900756C009000001205BF9068E475F0801210D9756BB4756C009000001205BF906874
:204D6900F475F0801210D9756BDC756C009000001205BF90690475F0801210D9D006D007C9
:204D8900C007C0061211F7AD82D006D0077871A605BD314E756B3C756C00900000C007C0A3
:204DA900061205BF905F8475F0801210D91216B390678675F0801210D91216BF9069157519
:204DC900F0801210D9D006D007758DE67587007873760178787601BF010280030245E8028F
:204DE90053AABD324E756B64756C00900000C007C0061205BF905F8475F0801210D91216DD
:204E0900B39067BC75F0801210D91216BF90692075F0801210D9D006D007758DF3758700C5
:204E29007873760178787602BF010280030245E80253AABD334E756B8C756C00900000C051
:204E490007C0061205BF905F8475F0801210D91216B39067E075F0801210D91216BF9069E1
:204E69002B75F0801210D9D006D007758DF37587807873760178787603BF010280030245A9
:204E8900E80253AABD344E756BB4756C00900000C007C0061205BF905F8475F0801210D928
:204EA9001216B390673C75F0801210D91216BF90693675F0801210D9D006D007758DFD75E4
:204EC90087007873760178787604BF010280030245E80253AABD354E756BDC756C00900096
:204EE90000C007C0061205BF905F8475F0801210D91216B390694175F0801210D91216BF17
:204F090090694675F0801210D9D006D007758DFD7587807873760178787605BF010280032F
:204F29000245E80253AAC007C0061216E2756BF0756C009000001205BF90695275F080124A
:204F490010D99000141201A912169D756BF0756C009000001205BF90695F75F0801210D9EB
:204F6900D006D007024D89C007120E5C90D6BA120C8F7582051205D91216D6E4F56BF56C04
:204F890090001E1205BF90661E75F0801210D97582021205D912169D756B3C756C00900055
:204FA900001205BF90696C75F0801210D9756B64756C009000001205BF90697D75F08012D5
:204FC90010D9D007C0071211F7AD82D0077871A605BD313E756B3C756C00900000C00712FB
:204FE90005BF905F8475F0801210D91216B390678675F0801210D91216BF90698E75F08006
:205009001210D9D00778747601787A76017E010253AABD323E756B64756C00900000C007C2
:205029001205BF905F8475F0801210D91216B39067BC75F0801210D91216BF90699A75F0F1
:20504900801210D9D00778747601787A76007E020253AA78747600C0071216E2756BF07533
:205069006C009000001205BF90695275F0801210D99000141201A912169D756BF0756C0054
:205089009000001205BF90695F75F0801210D9D007024FCDEE703D756BF0F56C900000C058
:2050A90007C0061205BF1216E21211189069A675F0801210D912169D756B8C756C009000DE
:2050C900001205BF9066BB75F0801210D9D006D0070248CBBE0104787A7601BE0204787ABC
:2050E9007600C007C006120E5C90D6BA120C8F7582051205D91216D6E4F56BF56C90001E1E
:205109001205BF90661E75F0801210D97582021205D912169D756B3C756C0090000012056A
:20512900BF9069CA75F0801210D9756B64756C009000001205BF9069DC75F0801210D9754F
:205149006B8C756C009000001205BF9069ED75F0801210D9D006D007C007C0061211F7AD41
:2051690082D006D0077871A605BD3163756B3C756C00900000C007C0061205BF905F84753A
:20518900F0801210D91216B390678675F0801210D91216BF9069FC75F0801210D9D006D001
:2051A90007787AE67012787D761108760178757601787976020253AA787AB60112787D7698
:2051C9001108760078757601787976030253AA7871B63263756B64756C00900000C007C0FA
:2051E900061205BF905F8475F0801210D91216B39067BC75F0801210D91216BF906A0975AA
:20520900F0801210D9D006D007787AE67012787D760108760178757601787976040253AA5A
:20522900787AB60112787D760108760078757601787976050253AA7871B633028003025147
:2052490061756B8C756C00900000C007C0061205BF905F8475F0801210D91216B39067E09F
:2052690075F0801210D91216BF906A1575F0801210D9D006D007787AE67011787DF6087600
:205289000178757601787976010253AA787AB60111787DE4F608F6787576017879760702DE
:2052A90053AA78757600787DE608466050787DB6010608B600028045787DB6100608B600F6
:2052C90002803A787DB6110608B60002802F787DB6000608B601028024787DB6010608B652
:2052E90001028019787DB6100608B60102800E787DB6110608B601028003025389787576B2
:2053090001787D8604088605787BA60408A6057C00530501BC0016BD01137F007598C075E8
:205329008920C007C0061201DCD006D007787CE620E0137F00759850758920C007C006120C
:2053490001DCD006D007787B741056FC7D00BC1009BD00067F0078767601787BE620E40615
:205369007F0078767600787B740156FC7D00BC0105BD00027F00787BE620E0257F008021EC
:20538900C007C006121118906A2075F0801210D99000501201A9D006D00778747600024550
:2053A900E8BF010280030245E8024BDA2290000A1201A9850C82850D83D2B5E4F0C2B5905F
:2053C90000051201A9C2B4C2B51203FE1206F7850C82850D83D2B57489F0C2B59000281217
:2053E90001A9850C82850D83D2B5747BF0C2B59000281201A9850C82850D83D2B574FFF06F
:20540900C2B59000141201A91202A3121645120E5C12169D756B78756C0090001E1205BF8A
:20542900906A4C75F0801210D97582AA1200EB756B96756C0090001E1205BF906A5675F00F
:20544900801210D97582AA12011A787276007F01850C82850D83D2B574FFF0C2B5C00712B8
:205469000E5C756B78756C0090001E1205BF7582031205D91216A81204AF121802D007C0BA
:20548900071211F7AE82D0077871A606BE4468850C82850D83D2B5E4F0C2B5756B3C756CE5
:2054A9000090000AC0071205BF1216B3906A5B75F0801210D91216BF905E9975F080121027
:2054C900D99000141201A9D007850C82850D83D2B574A1F0C2B5EF701812169D756B1875DF
:2054E9006C0190003C1205BF906A5F75F0801210D912195D025457BE4268850C82850D8396
:20550900D2B5E4F0C2B5756B3C756C00900082C0071205BF1216B3906A6A75F0801210D9E5
:205529001216BF905EA575F0801210D99000141201A9D007850C82850D83D2B57483F0C279
:20554900B5EF701812169D756B18756C0190003C1205BF906A5F75F0801210D912221E0248
:205569005457BE4568850C82850D83D2B5E4F0C2B5756B64756C0090000AC0071205BF12A4
:2055890016B3906A6E75F0801210D91216BF905EB175F0801210D99000141201A9D00785CF
:2055A9000C82850D83D2B57486F0C2B5EF701812169D756B18756C0190003C1205BF906AA5
:2055C9005F75F0801210D9122787025457BE4668850C82850D83D2B5E4F0C2B5756B6475F7
:2055E9006C00900082C0071205BF1216B3906A7275F0801210D91216BF905EBD75F08012D7
:2056090010D99000141201A9D007850C82850D83D2B5748EF0C2B5EF701812169D756B1815
:20562900756C0190003C1205BF906A5F75F0801210D9122EE3025457BE4368850C82850DC6
:2056490083D2B5E4F0C2B5756BA0756C0090000AC0071205BF1216B3906A7675F080121002
:20566900D91216BF905EC975F0801210D99000141201A9D007850C82850D83D2B574C6F0BA
:20568900C2B5EF701812169D756B18756C0190003C1205BF906A5F75F0801210D91239E767
:2056A900025457BE4168850C82850D83D2B5E4F0C2B5756BB4756C0090000AC0071205BF27
:2056C9001216B3906A7A75F0801210D91216BF905ED675F0801210D99000141201A9D007D0
:2056E900850C82850D83D2B57488F0C2B5EF701812169D756B18756C0190003C1205BF9047
:205709006A5F75F0801210D91244C2025457BE310280030257BB850C82850D83D2B5E4F007
:20572900C2B5756BDC756C0090000AC0071205BF1216B3906A7E75F0801210D91216BF906B
:205749005EE775F0801210D97582011205D9D0077872B6010D905EFA75F080C0071210D91F
:20576900D0077872E6700D905EED75F080C0071210D9D007758202C0071205D9900014123D
:2057890001A9D007850C82850D83D2B574C1F0C2B5EF701812169D756B18756C0190003C52
:2057A9001205BF906A5F75F0801210D91245E4025457756B04756C0190002D1205BF121668
:2057C900E2906A8275F0801210D9756B18756C0190003C1205BF906A9175F0801210D97F1C
:2057E90000900014C0071201A912169D756B04756C0190002D1205BF906A9C75F0801210BE
:06580900D9D0070254880B
:2059300000000000003E5B4F5B3E3E6B4F6B3E1C3E7C3E1C183C7E3C181C577D571C1C5E02
:205950007F5E1C00183C1800FFE7C3E7FF0018241800FFE7DBE7FF30483A060E2629792991
:2059700026407F050507407F05253F5A3CE73C5A7F3E1C1C08081C1C3E7F14227F22145FA2
:205990005F005F5F06097F017F006689956A606060606094A2FFA29408047E040810207E4F
:2059B000201008082A1C08081C2A08081E101010100C1E0C1E0C30383E3830060E3E0E06B9
:2059D000000000000000005F00000007000700147F147F14242A7F2A122313086462364984
:2059F0005620500008070300001C2241000041221C002A1C7F1C2A08083E08080080703038
:205A1000000808080808000060600020100804023E5149453E00427F400072494949462140
:205A300041494D331814127F1027454545393C4A4949314121110907364949493646494965
:205A5000291E0000140000004034000000081422411414141414004122140802015909069A
:205A70003E415D594E7C1211127C7F494949363E414141227F4141413E7F494949417F0910
:205A90000909013E414151737F0808087F00417F41002040413F017F081422417F4040402A
:205AB000407F021C027F7F0408107F3E4141413E7F090909063E4151215E7F0919294626FA
:205AD0004949493203017F01033F4040403F1F2040201F3F4038403F63140814630304787B
:205AF00004036159494D43007F4141410204081020004141417F04020102044040404040ED
:205B1000000307080020545478407F284444383844444428384444287F3854545418000895
:205B30007E090218A4A49C787F0804047800447D40002040403D007F1028440000417F4078
:205B5000007C047804787C080404783844444438FC1824241818242418FC7C0804040848BD
:205B70005454542404043F44243C4040207C1C2040201C3C4030403C44281028444C9090BA
:205B9000907C4464544C4400083641000000770000004136080002010204023C2623263CF6
:205BB0001EA1A161123A4040207A3854545559215555794122545478422155547840205421
:205BD0005579400C1E5272123955555559395454545939555454580000457C410002457D34
:205BF000420001457C407D1211127DF0282528F07C545545002054547C547C0A097F493242
:205C1000494949323A4444443A324A4848303A4141217A3A42402078009DA0A07D3D424225
:205C3000423D3D4040403D3C24FF2424487E4943662B2FFC2F2BFF0929F620C0887E090373
:205C500020545479410000447D413048484A32384040227A007A0A0A727D0D19317D262980
:205C7000292F28262929292630484D4020380808080808080808382F10C8ACBA2F102834F0
:205C9000FA00007B000008142A142222142A1408AA005500AAAA55AA55AA000000FF001027
:205CB0001010FF00141414FF001010FF00FF1010F010F0141414FC001414F700FF0000FFF7
:205CD00000FF1414F404FC141417101F10101F101F1414141F00101010F0000000001F1013
:205CF0001010101F10101010F010000000FF101010101010101010FF10000000FF14000054
:205D1000FF00FF00001F10170000FC04F414141710171414F404F40000FF00F7141414147B
:205D3000141414F700F7141414171410101F101F141414F4141010F010F000001F101F00B2
:205D500000001F14000000FC140000F010F01010FF10FF141414FF141010101F0000000034
:205D7000F010FFFFFFFFFFF0F0F0F0F0FFFFFF0000000000FFFF0F0F0F0F0F3844443844E6
:205D9000FC4A4A4A347E02020606027E027E0263554941633844443C04407E201E2006028C
:205DB0007E020299A5E7A5991C2A492A1C4C7201724C304A4D4D303048784830BC625A4632
:205DD0003D3E494949007E0101017E2A2A2A2A2A44445F444440514A444040444A5140005F
:205DF00000FF0103E080FF000008086B6B083612362436060F090F060000181800000010F8
:205E100010003040FF0101001F01011E00191D1712003C3C3C3C000000000031343746324F
:205E300035383033363945414243444552524F5220464F554E442041743A200046726565ED
:205E500020547970653A200A0030780057656C636F6D650A000A2054796C6572205A6F75F6
:205E70006368610A20204543454E2D343335300A202046616C6C2032303231003C4D656E7E
:205E9000753E0A00203C443E002044554D500A00203C423E00204D4F56450A00203C453EDB
:205EB0000020454449540A00203C463E002046494E440A00203C433E0020434F554E540AC7
:205ED00000203C413E00204D454D20434845434B0A00203C313E00205541525400205B446A
:205EF000697361626C65645D0A00205B456E61626C65645D0A005B44554D505D0A00204171
:205F1000646472657373204C6F636174696F6E3A0A002030785F5F5F5F002043686F6F73EF
:205F30006520426C6F636B20547970653A0A0020203C313E20425954450A20203C323E2086
:205F5000574F52440A20203C343E2044574F52440020496E7075742053697A653A00205FB9
:205F7000002041646472657373204C6F636174696F6E3A0020002043686F6F736520426C29
:205F90006F636B20547970653A000A0A002020003C313E20425954450A000A0A20202020C7
:205FB0002020202020202020202020200A20202020202020202020202020202020000A201D
:205FD00020003C323E20574F52440A000A202020202020202020202020202020200A20202B
:205FF0002020202020202020202020202020000A0A2020003C343E2044574F5244000A2005
:2060100020496E707574204572726F720A202054727920416761696E0020496E707574203D
:2060300053697A653A2000204D69736D61746368204572726F720A205472792041676169E0
:206050006E00204D6174636820436F6E6669726D65640A2020202020202020202020202054
:206070002020200020416464726573733A00203078002048657820446174613A00204153FB
:2060900043494920446174613A00204461746120547970653A0020425954450020574F5245
:2060B00044002044574F524400203C303E20457869740A003C303E20457869740A005B4D48
:2060D0004F56455D0A0020536F7572636520416464726573733A002044657374696E617452
:2060F000696F6E3A00204D6F766520436F6D706C6574650A005B454449545D0A0020456445
:20611000697420416464726573733A00204C6F636174696F6E20436F6E74656E74733A0A67
:2061300000205F5F0020456E746572204E65772056616C75653A0A002043686F6F73652007
:206150004E65787420416374696F6E3A0A0020203C313E204E65787420416464726573733E
:206170000A20203C323E204E657720416464726573730A0020203C303E2045786974000A31
:20619000200020456E746572204E65772056616C75653A0A20003C313E204E65787420411B
:2061B0006464726573730A000A0A202020202020202020202020202020000A205F5F000A5A
:2061D00020203C313E204E65787420416464726573730A20203C323E204E657720416464B6
:2061F000726573730A20203C303E2045786974002043686F6F7365204E65787420416374AC
:20621000696F6E3A0A2020003C323E204E657720416464726573730A000A202020202020F4
:206230002020202020202020200020456469742041646472657373000A003C303E20457811
:206250006974000A0A0A0A20496E707574204572726F7220005B46494E445D0A00204669FD
:206270006E642056616C75653A002053656172636820416464726573733A0020496E707593
:206290007420426C6F636B2053697A653A0A0020203C30313E20425954450A20203C303219
:2062B0003E20574F52440A20203C30343E2044574F52440A0020203C46463E2028534341FD
:2062D0004E29002020205F5F00202020000A20202020202020202020202020202020000AA5
:2062F0002054727920616761696E003C30313E20425954450A0020203C30323E20574F52A2
:20631000440A0020203C30343E2044574F52440A000A205365617263682053697A65204CB0
:20633000696D69743A000A2042595445205B3820626974735D0020203C30313E20425954F6
:20635000450A2020003C30323E20574F52440A000A20574F5244205B313620626974735DE5
:206370000020203C30313E20425954450A20203C30323E20574F52440A2020003C30343EF4
:206390002044574F52440A000A2044574F5244205B333220626974735D003C30343E204448
:2063B000574F52440A2020003C46463E20285343414E29000A205B32353620426C6F636B7E
:2063D000735D00205B4E6F6E2D496E7465726163746976655D0A0020536561726368205639
:2063F000616C75653A0A200020466F756E64206174204C6F636174696F6E3A0A000A20307A
:206410007800205B496E7465726163746976655D0A0020466F756E64206174204C6F6361E4
:2064300074696F6E200A00506167653A2000203C313E204E6578740A203C303E20457869ED
:20645000740A2020202020202020202020202020003C313E204E65787400202020202020C4
:20647000202020200A203C303E20457869740A2020202020202020202020202020002020F4
:2064900020202020202020200A203C303E20457869740A203C323E2050726576696F75730B
:2064B000000A0A20003C323E2050726576696F757300203C313E204E6578740A203C303E11
:2064D00020457869740A203C323E2050726576696F757300203C313E204E6578740A2000EB
:2064F0000A203C323E2050726576696F7573002056616C7565204E6F7420466F756E640AA5
:206510002057697468696E20426C6F636B0A20000A203C303E2045786974000A0A0A2000D7
:206530005B434F554E545D0A00205365617263682056616C75653A0020466F756E6420698E
:206550006E0A20002042797465732028486578290A2000436F756E743A20005B43484543DB
:206570004B5D0A0020456E7465722056616C75653A0A000A0A2057726974696E67206279C7
:20659000746520746F0A20616C6C206D656D6F72790A206C6F636174696F6E732E2E2E0073
:2065B0000A20566572696679696E672077726974652E2E2E000A20436F6D706C6574652E88
:2065D000000A0A20546F67676C696E67206269747320696E0A2065616368206E6962626C91
:2065F000652E2E2E000A2057726974696E67206E657720627974652E2E2E000A0A204368E7
:2066100065636B20436F6D706C6574652E005B554152545D0A00203C313E20003132303004
:206630000032343030003438303000393630300031393230300020626175640A00203C319A
:206650003E20536574204461746120526174650A00203C323E2000380039002D6269742067
:206670004D6F64650A00203C323E204E756D626572206F6620426974730A202020202028AD
:2066900038206F7220392062697473290A00203C333E20004E6F20004576656E20004F6428
:2066B0006420005061726974790A00203C333E2050617269747920284576656E290A202014
:2066D000202020284F64642F4E6F6E65290A00203C343E2044697361626C6520554152541B
:2066F0000A0020202020205B456E61626C65645D0A00203C343E20456E61626C6520554188
:2067100052540A0020202020202844697361626C6564290A00203C303E2045786974200AF8
:20673000003C303E2000457869740A003C343E200044697361626C6520554152540A0020D3
:2067500020202020005B456E61626C65645D00554152542044697361626C65642E00456EF1
:2067700061626C6520554152540A002844697361626C656429003C313E200053657420444B
:2067900061746120526174650A000A0A0A0A20506C656173652064697361626C650A2055E8
:2067B0004152542066697273742E0A003C323E20004E756D626572206F6620426974730A7C
:2067D000002838206F7220392062697473290A003C333E20005061726974792000284576A1
:2067F000656E2F0A00284F64642F4E6F6E65290A000A0A0A0A20496E636F7272656374203B
:20681000696E7075740A202054727920616761696E2E0A000A2044697361626C696E672080
:20683000554152542E2E2E0A000A2053657474696E67732056657269666965643A0A00204B
:20685000456E61626C696E6720554152542E2E2E002042415544204552524F520A002045CD
:206870006E746572696E6720426175642E2E2E0A0020424954204552524F520A0020456E5B
:20689000746572696E6720426974732E2E2E0A0020504152495459204552524F520A00204C
:2068B000456E746572696E67205061726974792E2E2E0A00203C313E2031323030204261EE
:2068D00075640A00203C323E203234303020426175640A00203C333E2034383030204261F1
:2068F00075640A00203C343E203936303020426175640A00203C353E2031393230302042F5
:206910006175640A003132303020426175640A003234303020426175640A00343830302062
:20693000426175640A003936303020426175640A003C353E200031393230302042617564E5
:206950000A0020494E505554204552524F520020202020202020202020202000203C313E78
:2069700020382D626974204D6F64650A00203C323E20392D626974204D6F64650A00382DEF
:20699000626974204D6F64650A00392D626974204D6F64650A000A20506C6561736520738E
:2069B0006574207468650A2020626974206D6F64652066697273742E0A00203C313E20458F
:2069D00076656E205061726974790A00203C323E204F6464205061726974790A00203C3386
:2069F0003E204E6F20506172697479004576656E205061726974790A004F64642050617248
:206A10006974790A004E6F205061726974790A0020536F6D657468696E67206973207772D3
:206A30006F6E672E0A202055415254206661696C656420746F207365742E0A0052414D2022
:206A5000504F53540A002E2E2E0A003C443E0020202020202020202020003C423E003C4507
:206A70003E003C463E003C433E003C413E003C313E00494E56414C494420494E5055540A24
:1D6A90000054727920616761696E2E002020202020202020202020202020200A0072
