:04000000020029329F
:01000B0032C2
:0100130032BA
:01001B0032B2
:030023000201D007
:20008200750A00750B40750C00750D80750E00750F00787276007873760078747600787585
:0500A2007600020026BB
:030026000249C3C9
:2000A700D2B5E56BF0C2B522D2B5E0FFC2B58F8222C2B5E56BF0D2B522C2B5E0FFD2B58FFD
:2000C7008222AF827B007C007D007E00C2B58B828C83EFF0D2B50BBB00090CBC00050DBDF3
:2000E70000010EC374FF9B74FF9CE49DE49E50DC22AF827B007C007D007E00C374FF9B7451
:20010700FF9CE49DE49E500122C2B58B828C83E0FAEFB50202804A850C82850D83D2B574C5
:200127008EF0C2B5E4F56BF56C900000C007C006C005C004C00312055D90549675F08012D0
:200147001077D003D0048B828C83C004C00312155F900028120187D003D004D005D006D0CD
:2001670007850C82850D83D2B5748CF0C2B5D2B50BBB00090CBC00050DBD00010E0201025A
:20018700AE82AF837C007D00C3EC9EED64808FF063F08095F0501B7AE87B03EA24FFF8EBCD
:2001A70034FFF988028903E84970F00CBC00D90D80D622759850758920D28ED2ACD2AF2243
:2001C7008582992099FDC2992230980885990EC298750F0132AF82C2B4D2B5850A82850B69
:2001E70083EFF0C2B5D2B4D2B5850A82850B83E56BF0C2B522AE82AF838F04C2B4D2B5859E
:200207000A82850B83ECF0C2B5C2B4D2B5850A82850B83EEF0C2B5AE6CAC6BD2B4D2B4D260
:20022700B5850A82850B83EEF0C2B5D2B4D2B5850A82850B83ECF0C2B522900004120187B5
:20024700850C82850D83D2B5E4F0C2B5900004120187850C82850D83D2B574C0F0C2B59095
:200267000004120187850C82850D83D2B574F9F0C2B5900004120187850C82850D83D2B579
:2002870074A4F0C2B5900004120187850C82850D83D2B574B0F0C2B5900004120187850CB1
:2002A70082850D83D2B57499F0C2B5900004120187850C82850D83D2B57492F0C2B59000CB
:2002C70004120187850C82850D83D2B57482F0C2B5900004120187850C82850D83D2B5741C
:2002E700F8F0C2B5900004120187850C82850D83D2B57480F0C2B5900004120187850C821F
:20030700850D83D2B57498F0C2B5900004120187850C82850D83D2B57488F0C2B5900004F3
:20032700120187850C82850D83D2B57483F0C2B5900004120187850C82850D83D2B574C6F8
:20034700F0C2B5900004120187850C82850D83D2B574A1F0C2B5900004120187850C828510
:200367000D83D2B57486F0C2B5900004120187850C82850D83D2B5748EF0C2B59000041212
:200387000187850C82850D83D2B574FFF0C2B5900004020187756B0790000F1203E07E002E
:2003A7007F00751E008E828F83C007C0061203E9D006D0070EBE00010FC3EE940DEF940019
:2003C70040E0756B0490000F0203E0D2B590000DE0FFC2B5EF20E1F322AF6BD2B5EFF0C2CD
:2003E700B522AE82AF83D2B590000D7401F0C2B5C007C0061203D2D006D007D2B58E828F76
:2004070083E4F0C2B5AF1ED2B590000DEFF0C2B522AE82AF83D2B590000D7401F0C2B5C07C
:2004270007C0061203D2D006D007D2B58E828F83E0FEC2B5740F5E4430FFD2B590000DE4FA
:20044700F0C2B58F822275270075213A75243AD2B590000D7401F0C2B51203D2D2B59000BE
:2004670002E0FFC2B5740F5F4430FFD2B590000DE4F0C2B5D2B590000D7401F0C2B5C00792
:200487001203D2D2B5900003E0FEC2B5740F5E4430FED2B590000DE4F0C2B5D2B590000D19
:2004A7007401F0C2B5C0061203D2D2B5900004E0FDC2B5740F5D4430FDD2B590000DE4F0F4
:2004C700C2B5D2B590000D7401F0C2B5C0051203D2D2B5900005E0FCC2B5740F5C4430FC34
:2004E700D2B590000DE4F0C2B5D2B590000D7401F0C2B5C0041203D2D2B5900000E0FBC227
:20050700B5740F5B4430FBD2B590000DE4F0C2B5D2B590000D7401F0C2B5C0031203D2D0E9
:2005270003D004D005D006D007D2B5900001E0FAC2B5740F5A4430FAD2B590000DE4F0C2ED
:20054700B58C1F8D208E228F238A258B2690001F75F040021077858210858311856B128531
:200567006C1322858216858317856B18856C1922E582FF24F7500122EF60068F067F008086
:20058700047E017F008E1422E582FF24FC404EEF2F90059C7380068014802280307F487510
:2005A7001AF0751B00751C40751D01803E7F28751A40751B01751CF0751D00802E7F887534
:2005C7001AF0751B00751C40751D01801E7FE8751A40751B01751CF0751D00800E7F4875D4
:2005E7001AF0751B00751C40751D018F6B7582360201DCAE82AF83C2B4D2B5850A82850BF0
:2006070083742AF0C2B5D2B4D2B5850A82850B838F05EDF0C2B5D2B4D2B5850A82850B8301
:20062700EEF0C2B5D2B4D2B5850A82850B83E56EF0C2B5D2B4D2B5850A82850B83E56DF000
:20064700C2B5C2B4D2B5850A82850B83742BF0C2B5D2B4D2B5850A82850B83E56CF0C2B50C
:20066700D2B4D2B5850A82850B83E56BF0C2B5D2B4D2B5850A82850B83E570F0C2B5D2B418
:20068700D2B5850A82850B83E56FF0C2B522751AF0751B00751C40751D01C2B5D2B4C2B4E5
:2006A700D2B5850A82850B83E4F0C2B5D2B4D2B5850A82850B83E4F0C2B5D2B4D2B5850A25
:2006C70082850B83E4F0C2B5D2B4D2B5850A82850B83E4F0C2B5900064120187756B0075D4
:2006E70082011201DC900032120187756B007582281201DC90000A120187756B237582C049
:200707001201DC756B117582C11201DCC2B4D2B5850A82850B8374C5F0C2B5D2B4D2B585F8
:200727000A82850B83743DF0C2B5D2B4D2B5850A82850B837430F0C2B5756BAA7582C71265
:2007470001DC756B887582361201DCC2B4D2B5850A82850B83743AF0C2B5D2B4D2B5850A5F
:2007670082850B837455F0C2B5D2B4D2B5850A82850B83E4F0C2B5756B1B756C009000B114
:200787001201FC756B077582B71201DC756B007582111201DC900064120187756B00758283
:2007A700291201DC900096120187E51A24FFF56DE51B34FFF56EE51C24FFF56FE51D34FF83
:2007C700F570E4F56BF56C9000000205FAAE82AF8374012EF56DE43FF56E74012528F56F64
:2007E700E43529F57085286B85296C8E828F831205FAC2B4D2B5850A82850B83742CF0C273
:20080700B5D2B4D2B5850A82850B83E52BF0C2B5D2B5850A82850B83E52AF0C2B52285822A
:20082700328583337401C3952EF534E4952FF535852E6B852F6C90FFFE124E93AA82AB8336
:20084700A82EA92FE8252CF528E9352DF52985302A85312B853282853383C003C002C001AA
:20086700C0001207D4D000D001E52CC398F528E52D99F52985302A85312B8532828533839D
:20088700C001C0001207D4D000D001E82532F582E93533F583852C28852D2985302A85317A
:2008A7002BC001C0001207D4D000D001E532C398F582E53399F583852C28852D2985302A52
:2008C70085312BC001C0001207D4D000D001D002D003E4F538F539753601F537C3E53898ED
:2008E700E539648089F063F08095F0400122E53520E71618B8FF011974022AFAE43BFBEAFD
:200907002534F534EB3535F535C002C0030538E4B53802053974022536F536E43537F53784
:20092700E5362534F534E5373535F535E5382532FEE5393533FFE8252CFCE9352DFD8C283B
:200947008D2985302A85312B8E828F83C007C006C005C004C003C002C001C0001207D4D01F
:2009670000D001D002D003D004D005E532C39538FAE5339539FB8C288D2985302A85312BA5
:200987008A828B83C003C002C001C0001207D4D000D001D002D003D006D007E52CC398FCE8
:2009A700E52D99FD8C288D2985302A85312B8E828F83C005C004C003C002C001C000120794
:2009C700D4D000D001D002D003D004D0058C288D2985302A85312B8A828B83C003C002C0C4
:2009E70001C0001207D4D000D001D002D003E82532FEE93533FFE538252CFCE539352DFD88
:200A07008C288D2985302A85312B8E828F83C007C006C005C004C003C002C001C00012074E
:200A2700D4D000D001D002D003D004D005E532C398FAE53399FB8C288D2985302A85312BAA
:200A47008A828B83C003C002C001C0001207D4D000D001D002D003D006D007E52CC39538EE
:200A6700FCE52D9539FD8C288D2985302A85312B8E828F83C005C004C003C002C001C000BB
:200A87001207D4D000D001D002D003D004D0058C288D2985302A85312B8A828B83C003C0AC
:200AA70002C001C0001207D4D000D001D002D003D003D0020208E3AE827F00EE2EFCEF33FE
:200AC700FD8E028F03EA251AF53CEB351BF53DEA251CF53EEB351DF53F78007900C3E89529
:200AE7003CE96480853DF063F08095F0505A7A007B00C3EA953EEB6480853FF063F08095D2
:200B0700F0503D8A2C8B2D8E2E8F2F853A30853B3188828983C007C006C005C004C003C0DA
:200B270002C001C000120825D000D001D002D003D004D005D006D007EC2AFAED3BFB80B2EB
:200B4700EC28F8ED39F9809522AE82AF83C3EE94F0EF9400500BC3E5409440E54194014000
:200B67000122E5422EFCE5433FFD1CBCFF011DC3EC94F0ED9400400A74F0C39EF542E49F24
:200B8700F543E5442540FCE5453541FD1CBCFF011DC3EC9440ED9401400D7440C39540F567
:200BA7004474019541F545E5422EFCE5433FFDEC24FFF56DED34FFF56EE5442540FCE54508
:200BC7003541FDEC24FFF56FED34FFF57085406B85416C8E828F831205FAC2B4D2B5850A82
:200BE70082850B83742CF0C2B5D2B4AF47AD44AE45ED4E6030AB42AC43EB4C6021D2B58587
:200C07000A82850B83EFF0C2B5D2B5850A82850B83E546FAF0C2B51BBBFF011C80DB1DBD7A
:200C2700FF011E80CC22AE82AF838F05E4F56BF56C756DEFF56E756F27F570900000C0068C
:200C4700C0051205FAD005D006C2B4D2B5850A82850B83742CF0C2B5D2B4D2B5850A828541
:200C67000B83EDF0C2B5D2B5850A82850B83EEF0C2B57C967F008C028F031CBCFF011FEAF9
:200C87004B60667B10D2B5850A82850B83EDF0C2B5D2B5850A82850B83EEF0C2B5D2B585A6
:200CA7000A82850B83EDF0C2B5D2B5850A82850B83EEF0C2B5D2B5850A82850B83EDF0C2F0
:200CC700B5D2B5850A82850B83EEF0C2B5D2B5850A82850B83EDF0C2B5D2B5850A82850B31
:200CE70083EEF0C2B5DB9E808D7F3F8F041FEC601AD2B5850A82850B83EDF0C2B5D2B585AE
:200D07000A82850B83EEF0C2B580E022AE82AF838F05E4F56BF56C756DEFF56E756F3F75EF
:200D27007001900000C006C0051205FAD005D006C2B4D2B5850A82850B83742CF0C2B5D26A
:200D4700B4D2B5850A82850B83EDF0C2B5D2B5850A82850B83EEF0C2B57CB07F048C028F0D
:200D6700031CBCFF011FEA4B60667B10D2B5850A82850B83EDF0C2B5D2B5850A82850B8342
:200D8700EEF0C2B5D2B5850A82850B83EDF0C2B5D2B5850A82850B83EEF0C2B5D2B5850AE2
:200DA70082850B83EDF0C2B5D2B5850A82850B83EEF0C2B5D2B5850A82850B83EDF0C2B544
:200DC700D2B5850A82850B83EEF0C2B5DB9E808D7F3F8F041FEC601AD2B5850A82850B8305
:200DE700EDF0C2B5D2B5850A82850B83EEF0C2B580E022900000020D13858250858351C3F1
:200E0700E55094F0E551648094805059C3E5489440E54964809481504CAC4F7D008C6B8DB8
:200E27006C900006C005C004124E93AA82AB83D004D005EA2550FAEB3551FB1ABAFF011B76
:200E4700EB20E721EDC40354F8CCC403CC6CCC54F8CC6CFDEC2548FCED3549FD1CBCFF01CB
:200E67001DED30E701227401B54F0474018001E4FDFCE54BB54D09E54CB54E04740180016E
:200E8700E4FB75520074FA25525001227405B552057553008031854A6B756C00900005C0DF
:200EA70005C004C003124E93A882AF83D003D004D005E8248BF8EF344FFFE55228F582E41A
:200EC7003FF583E493F5538552F0E54FA42550FEE55135F0FF8E548F557800B808004003E8
:200EE70002100CE55320E003020F7AED6040A9527A00E92550F582EA3551F58388017A0045
:200F0700E92548F528EA3549F529854B2A854C2BC007C006C005C004C003C0001207D4D085
:200F270000D003D004D005D006D00702100288F0E54FA42548F540E54935F0F541A94F7A80
:200F47000089428A4389448A45854B46854C47855482855583C007C006C005C004C003C0D7
:200F670000120B50D000D003D004D005D006D007021002EB6003021002EC603FA9527A008E
:200F8700E92550F582EA3551F58388017A00E92548F528EA3549F529854D2A854E2BC007D0
:200FA700C006C005C004C003C0001207D4D000D003D004D005D006D007804088F0E54FA462
:200FC7002548F540E54935F0F541A94F7A0089428A4389448A45854D46854E478E828F83E5
:200FE700C007C006C005C004C003C000120B50D000D003D004D005D006D007E553C313F5E8
:201007005308020EE20552020E8CAF82BF0A22AD14E4C40354F8CDC403CD6DCD54F8CD6D94
:20102700FEED2512F512EE3513F513E4F510F51122BF0D01228512488513498F4A85164BC3
:2010470085174C85184D85194E85144F851082851183120E0085146B756C00900006124EB8
:2010670093AE82AF83EE2510F510EF3511F51122AD82AE83AFF07B007C00EB2DF8EC3EF9C6
:201087008F02888289838AF0124EFDFA60208A82C007C006C005C004C003121011D003D096
:2010A70004D005D006D0070BBB00CF0C80CC2275820A0210117F007E01C007C006120DFACC
:2010C700E4F56BF56C90000012055DE4F56BF56C90F81F12056A9054A775F080121077E4A6
:2010E700F56BF56C9007FF12056A9054B475F080121077D006D007BF080280030211837FED
:201107000075820AC007C006121011D006D007BE0455900005C007120187120DFAE4F56BF0
:20112700F56C90F81F12056A12044D120DFAE4F56BF56C90000012055DE4F56BF56C90F8CD
:201147001F12056A9054A775F080121077E4F56BF56C9007FF12056A9054B475F080121084
:2011670077D0077E0180909054B475F080C007C006121077D006D0070E0210FEC007C00690
:20118700121195121011D006D0070F0210FE7590F0E59054F0FFBFF0F88590085308F07461
:2011A700F0B50804E50F60F190000A120187E59054F0FFB508028004E50F60DD7401B50F99
:2011C70009E50EFF24C0F50E80527590FEE59054F0F50874F0B508028005750900803D7543
:2011E70090FDE59054F0F50874F0B50802800575090180287590FBE59054F0F50874F0B507
:201207000802800575090280137590F7E59054F0F50874F0B5080280A37509037401B50F73
:2012270007750F00850E822274E0B50815E50975F004A42486F582745435F0F583E493F5D2
:20124700822274D0B50818E50975F004A42486FE745435F0FF8E828F83A3E493F5822274F2
:20126700B0B50819E50975F004A42486FE745435F0FF8E828F83A3A3E493F58222E5097577
:20128700F004A42486FE745435F0FF8E828F83A3A3A3E493F58222AF827D007E00BF010014
:2012A70040608F037C00756B0A8C6C8B828C83C006C005C004C003124F19A982AA83D003C4
:2012C700D004756B0A756C008B828C83C002C001124F4FAB82D001D002D005D0068B078D7F
:2012E7006B8E6C90000AC007C002C001124E93E5828583F0D001D002D00729FDEA35F0FE9F
:20130700809B8D828E8322AE82AF837C007D00C3EE9401EF94004069756B0A756C008E82C1
:201327008F83C007C006C005C004124EB0AA82AB83D004D005D006D007756B0A756C008E65
:20134700828F83C005C004C003C002124E6AAE82AF83D002D003D004D0058C6B8D6C9000EA
:201367000AC007C006C003C002124E93E5828583F0D002D003D006D0072AFCEB35F0FD80F3
:201387008E8C828D8322E582FF700475823022BF010475823122BF020475823222BF030471
:2013A70075823322BF040475823422BF050475823522BF060475823622BF0704758237227E
:2013C700BF080475823822BF090475823922BF0A0475824122BF0B0475824222BF0C047538
:2013E700824322BF0D0475824422BF0E0475824522BF0F04758246227582FF22AF82BF303A
:201407000475820022BF310475820122BF320475820222BF330475820322BF340475820486
:2014270022BF350475820522BF360475820622BF370475820722BF380475820822BF390423
:2014470075820922BF410475820A22BF420475820B22BF430475820C22BF440475820D22BB
:20146700BF450475820E22BF460475820F227582FF2212129EAE82AF83C3EE9401EF940000
:20148700403E756B0A756C008E828F83C007C006124EB0AC82D006D007756B0A756C008E09
:2014A700828F83C004124E6AAE82AF83D00474302CF582C007C006121011D006D00780B9E0
:2014C70075820A021011AF827556007557007E00BF0100405A8F047D00740F5CFA756B1068
:2014E7008D6C8C828D83C006C002124F4FAC82D002D0068C07EA24F6400CEE2456F98A05ED
:2015070074302DF78026EE2456F97D00756B0A8D6C8A828D83C007C006C001124F19AC8283
:20152700AD83D001D006D00774412CF70E80A185578212101185568202101112138D02101A
:2015470011E582FFC4540FF582C007121542D007740F5FF582021542AE82AF838F82C0077C
:20156700C006121548D006D0078E8202154812130EAE82AF83C3EE9401EF94004044756B51
:201587000A756C008E828F83C007C006124EB0AC82AD83D006D007756B0A756C008E828F25
:2015A70083C005C004124E6AAE82AF83D004D00574302CF582C007C006121011D006D0078F
:2015C70080B322021011AE82AF838F82C007C0061215CAD006D0078E820215CA75820012F4
:2015E700058F9007FF120D13900000120C2D758205120577E4F56BF56C9007FF12056AE483
:20160700F56BF56C90000A12055D9054B775F080121077758202120577756BFF756C0790FD
:20162700000012056A9054C075F080121077900028020187E4F56BF56C9007FF02056AE42E
:20164700F56BF56C90F81F02056A756BFF756C0790F81F02056A756BFF756C079000000272
:20166700056AE4F56BF56C90D6BA02056A756BBA756CD690000002056AE4F56BF56C90F83F
:201687000002056AE4F56BF56C90FFFF02056AE4F56BF56C9007E002056AE4F56BF56C906C
:2016A700FFE002056A121195AF82C007121011D0078F82121403E582C454F0FE7F00C0072C
:2016C700C006121195AD82C005121011D0058D82121403AD82D006D0078D047D00EF420531
:2016E700EE4204C005C004121195AF82D004D0058F82C007C005C004121011D004D005D087
:20170700078F82C005C004121403AF82D004D005E4CFC4CF6FCF54F0CF6FFEED4207EC42B6
:2017270006C007C006121195AD82C005121011D0058D82121403AD82D006D0077C00ED4F8F
:20174700F582EC4EF58322121195AF827871A6078F82021403121195AF827871A6078F82FE
:2017670012101178718682121403AF827871A607EFC454F0FFC007121195AE827871A60614
:201787008E8212101178718682121403AE82D0077871A606EE4FF582227872B601030218B5
:2017A700DBE4F56BF56C90000012055D120DFA90D6BA120C2D758205120577121674E4F51B
:2017C7006BF56C90001E12055D9054E775F080121077758202120577756B3C756C009000B7
:2017E7000012055D12168B9054EF75F08012107712163B9054F475F080121077756B3C7520
:201807006C0090007812055D12168B9054FB75F08012107712163B90550075F08012107703
:20182700756B64756C0090000012055D12168B90550775F08012107712163B90550C75F0A2
:2018470080121077756B64756C0090007812055D12168B90551375F08012107712163B90AB
:20186700551875F080121077756B8C756C0090000012055D12168B90551F75F080121077F0
:2018870012163B90552475F080121077756BB4756C0090000012055D12168B90552C75F0B5
:2018A7008012107712163B90553175F080121077756BDC756C0090000012055D12168B902D
:2018C700553D75F08012107712163B90554275F080021077E4F56BF56C90000012055D123E
:2018E7000DFA90D6BA120C2D758205120577121674E4F56BF56C90001E12055D9054E77542
:20190700F080121077758202120577756B3C756C0090000012055D12168B9054EF75F080C4
:2019270012107712163B9054F475F080121077756B3C756C0090007812055D12168B90543E
:20194700FB75F08012107712163B90550075F080121077756B64756C0090000012055D1206
:20196700168B90550775F08012107712163B90550C75F080121077756B64756C0090007856
:2019870012055D12168B90551375F08012107712163B90551875F080121077756B8C756C78
:2019A7000090000012055D12168B90551F75F08012107712163B90552475F0801210777588
:2019C7006BB4756C0090000012055D12168B90552C75F08012107712163B90553175F0805C
:2019E700121077756BDC756C0090000012055D12168B90553D75F08012107712163B90550B
:201A07005375F080121077227F00787876017D017B01C007C005C003120DFA90D6BA120C46
:201A27002D758205120577121674E4F56BF56C90001E12055D90556375F080121077121697
:201A47003B758202120577756B3C756C0090000012055D90556B75F080121077756B507549
:201A67006C0090000012055D12166990557F75F08012107712163B756B8C756C009000003C
:201A870012055D90558775F080121077756BA0756C0090000012055D12166990559C75F005
:201AA70080121077756BF0756C0090000012055D9055BE75F0801210771216699055CB757A
:201AC700F080121077121646756B3C756C0090000012055D9055CE75F080121077756B5026
:201AE700756C0090000012055D9055E175F0801210771216519054B475F0801210771216FF
:201B0700AC7876A68208A683D003D00578768604088606C006C005C004C00312163B756BC2
:201B27003C756C0090000012055D9055CE75F080121077756B50756C0090000012055D90A7
:201B470055E175F08012107712165D9054B475F0801210777876868208868312155F12167A
:201B670046756B8C756C0090000012055D9055E375F080121077756BA0756C00900000127E
:201B8700055D12168B90559C75F080121077D003D004D005D006D007ED7003021D1B756B87
:201BA700A0756C00900000C006C005C004C00312055D12168B9055F775F080121077121751
:201BC7004EAF82D003D004D005D006BF015B7D00C007C006C005C004C00312163B756B8CED
:201BE700756C0090000012055D9055E375F080121077756BA0756C0090000012055D905569
:201C0700FA75F08012107712165D9055FD75F08012107712166990560775F080121077D094
:201C270003D004D005D006D007BF025E7D00C007C006C005C004C00312163B756B8C756C1F
:201C47000090000012055D9055E375F080121077756BA0756C0090000012055D12166990AD
:201C6700562B75F08012107712165D90562F75F08012107712166990563975F08012107718
:201C8700D003D004D005D006D007BF045E7D00C007C006C005C004C00312163B756B8C7559
:201CA7006C0090000012055D9055E375F080121077756BA0756C0090000012055D12166971
:201CC70090565C75F08012107712165D90566175F08012107712166990563975F08012103C
:201CE70077D003D004D005D006D007ED7003021B9FC007C006C005C004C0031216809056BA
:201D07006B75F080121077D003D004D005D006D007021B9FEB7003021E16756BF0756C00A9
:201D2700900000C007C006C004C00312055D12164690568675F080121077121651121195FB
:201D4700AD827871A6058D8212101178718682121403AD82D003D004C005C004C003121613
:201D67003BD003D004D005D006D007EDB50702804FC007C006C004C0031216469055BE75E4
:201D8700F0801210771216699055CB75F080121077756B04756C0190000012055D12168002
:201DA70090569475F080121077756BF0756C0090000012055DD003D004D006D007021D1BE1
:201DC700756BF0756C00900000C007C006C00412055D12163B90568675F080121077121681
:201DE7005D787186821210117B00756B04756C01900000C00312055D1216969056AF75F09B
:201E070080121077D003D004D006D007021D1B900028C007C006C004120187120DFA90D6F2
:201E2700BA120C2D758205120577121674E4F56BF56C90001E12055D90556375F08012105A
:201E47007712163BD004D006D007BF0103EF8001E4FDE4BF020104F55AE4BF040104FF78F0
:201E670078E6700122758202C007C006C005C00412057712168B756B3C756C00900000127B
:201E8700055D9056D175F08012107712163B756B50756C0090000012055D9056DB75F08086
:201EA7001210777876868208868312155FD004D005D006D007ED7003021F84756B78756C61
:201EC70000900000C007C006C005C00412055D12168B9056DF75F08012107712163B756BA8
:201EE7008C756C0090000A12055DD004D005D006C2B58C828E83E0F582D2B5C006C005C022
:201F070004121548756BB4756C0090000012055D12168B9056EA75F08012107712163B75F5
:201F27006BC8756C0090000A12055DD004D005D006C2B58C828E83E0F582D2B5C006C005FA
:201F4700C0041215CA756BF0756C0090000012055D12168B9056F775F080121077756B041E
:201F6700756C0190000012055D12163B90570375F080121077D004D005D006D007E55A70A4
:201F8700030220A8C007756B78756C00900000C007C006C005C00412055D12168B9056DFDB
:201FA70075F08012107712163B756B8C756C0090000A12055DD004D005D006C2B58C828E4C
:201FC70083E0F582D2B5C006C005C004121548D004D005D006D00774012CFBE43EFFC2B551
:201FE7008B828F83E0F582D2B5C007C005C003121548D003D005D0071BBBFF011F756BB417
:20200700756C00900000C007C005C00312055D12168B9056EA75F08012107712163B756B41
:20202700C8756C0090000A12055DD003D005D007C2B58B828F83E0F582D2B5C007C005C0A3
:20204700031215CAD003D005D00774012BFCE43FFEC2B58C828E83E0F582D2B5C007C00648
:20206700C005C0041215CA756BF0756C0090000012055D12168B9056F775F080121077120A
:20208700163B756B04756C0190000012055D90570975F080121077D004D005D006D007D08A
:2020A70007EF7003022255756B78756C00900000C007C006C005C00412055D12168B90564B
:2020C700DF75F08012107712163B756B8C756C0090000A12055DD004D005D006C2B58C82DA
:2020E7008E83E0F582D2B5C006C005C004121548D004D005D00674012CFAE43EFBC2B58AF4
:20210700828B83E0F582D2B5C005C003C002121548D002D003D005D0070ABA00010BC2B5F9
:202127008A828B83E0F582D2B5C007C005C003C002121548D002D00374012AF558E43BF57B
:2021470059C2B5855882855983E0FBD2B58B82121548D005D007E55824FFFAE55934FFFB98
:202167001ABAFF011B1ABAFF011B756BB4756C00900000C007C005C003C00212055D1216C8
:202187008B9056EA75F08012107712163B756BC8756C0090000A12055DD002D003C2B58ABF
:2021A700828B83E0F582D2B5C003C0021215CAD002D003D005D0070ABA00010BC2B58A8290
:2021C7008B83E0F582D2B5C007C005C003C0021215CAD002D003D005D0070ABA00010BC227
:2021E700B58A828B83E0F582D2B5C007C005C003C0021215CAD002D003D00574012AFCE430
:202207003BFEC2B58C828E83E0F582D2B5C006C005C0041215CA756BF0756C009000001277
:20222700055D12168B9056F775F08012107712163B756B04756C0190000012055D90570F04
:2022470075F080121077D004D005D006D007756B2C756C01900032C007C006C005C00412CB
:20226700055D12168B90571675F080121077121195AB82D004D005D006D0077871A603BB3F
:2022870030028003021E6678787600756B2C756C01900032C007C006C005C00412055D124A
:2022A70016469055E175F08012107712165D90572175F080121077900028120187D004D076
:2022C70005D006D007021E66227E007F007D007C01787B7601C007C006C005C004120DFA0D
:2022E70090D6BA120C2D758205120577121674E4F56BF56C90001E12055D90572B75F08088
:2023070012107712163B758202120577756B3C756C0090000012055D90573375F080121011
:2023270077756B50756C0090000012055D12166990557F75F080121077756B6E756C0090D8
:20234700000012055D12163B90574475F080121077756B82756C0090000012055D1216691E
:2023670090557F75F080121077756BA0756C0090000012055D12163B9055E375F0801210DD
:2023870077756BB4756C0090000012055D12166990559C75F080121077756B04756C019060
:2023A700000012055D12163B9055BE75F0801210771216699055CB75F080121077756B3C43
:2023C700756C0090000012055D12164690573375F080121077756B50756C00900000120553
:2023E7005D9055E175F0801210771216519054B475F0801210771216AC7879A68208A68388
:2024070012163B756B3C756C0090000012055D90573375F080121077756B50756C00900018
:202427000012055D9055E175F08012107712165D9054B475F0801210777879868208868338
:2024470012155F756B6E756C0090000012055D12164690574475F080121077756B82756C62
:202467000090000012055D9055E175F0801210771216519054B475F0801210771216ACAA00
:2024870082AB83C003C00212163B756B6E756C0090000012055D90574475F080121077754C
:2024A7006B82756C0090000012055D9055E175F08012107712165D9054B475F08012107764
:2024C700D002D0038A828B83C003C00212155F756BA0756C0090000012055D121646905573
:2024E700E375F080121077756BB4756C0090000012055D12168B90559C75F080121077D079
:2025070002D003D004D005D006D007EC70030226A2756BB4756C00900000C007C006C0040A
:20252700C003C00212055D12168B9055F775F08012107712174EAD82D002D003D004D00699
:20254700D007BD015F7C00C007C006C005C004C003C00212163B756BA0756C009000001203
:20256700055D9055E375F080121077756BB4756C0090000012055D9055FA75F080121077D6
:2025870012165D9055FD75F08012107712166990560775F080121077D002D003D004D00505
:2025A700D006D007BD02627C00C007C006C005C004C003C00212163B756BA0756C009000DB
:2025C7000012055D9055E375F080121077756BB4756C0090000012055D12166990562B75AA
:2025E700F08012107712165D90562F75F08012107712166990563975F080121077D002D0E3
:2026070003D004D005D006D007BD04627C00C007C006C005C004C003C00212163B756BA03D
:20262700756C0090000012055D9055E375F080121077121669756BB4756C009000001205BB
:202647005D90565C75F08012107712165D90566175F08012107712166990563975F0801265
:202667001077D002D003D004D005D006D007EC7003022512C007C006C005C004C003C0029E
:2026870012168090566B75F080121077D002D003D004D005D006D007022512787BE670033C
:2026A7000227C6C002C003756B04756C01900000C005C003C00212055D121646905686753C
:2026C700F080121077121195E5827871F61216517871868212101178718682121403AC8207
:2026E700D002D003D0058C067F00C007C006C005C003C00212163BD002D003D005D006D0EE
:20270700078D037C00EEB5030AEFB50406D003D0028057D003D002756B18756C01900000B6
:20272700C007C006C005C003C00212055D12168090569475F080121077756B04756C019051
:20274700000012055D1216469055BE75F0801210771216699055CB75F080121077D002D00E
:2027670003D005D006D0070226A2756B04756C01900000C007C006C005C003C00212055D62
:2027870012163B90568675F08012107712165D78718682121011787B7600756B18756C01F9
:2027A70090000012055D1216969056AF75F080121077D002D003D005D006D0070226A278D4
:2027C70079EE26FEEF0836FF7879865D08865EC3E55D9EE55E9F50378A5B8B5C855D8285BA
:2027E7005E83C2B5E0FDD2B5C2B5855B82855C83EDF0D2B5BAFF09BBFF067A007B00800579
:202807000ABA00010B055DE4B55DC4055E80C0756B2C756C0190000012055D12169690578B
:202827005275F08012107790003C1201877871766E22787C7601120DFA90D6BA120C2D7508
:202847008205120577121674E4F56BF56C90001E12055D90576275F0801210777582021227
:20286700057712163B756B3C756C0090000012055D90576A75F080121077756B50756C0091
:2028870090000012055D12166990557F75F080121077756B6E756C0090000012055D12165F
:2028A7003B90577975F08012107712166990578E75F080121077756BA0756C009000001271
:2028C700055D12163B90579275F08012107712166990578E75F080121077756BD2756C001E
:2028E70090000012055D12163B9057A575F0801210771216699057BB75F0801210779057C8
:20290700E175F080121077121646756B3C756C0090000012055D90576A75F080121077759E
:202927006B50756C0090000012055D9055E175F0801210771216519054B475F0801210771D
:202947001216ACAD82AE838D038E04C006C005C004C00312163B756B3C756C009000001206
:20296700055D90576A75F080121077756B50756C0090000012055D9055E175F080121077C6
:2029870012165D9054B475F080121077D003D004D005D0068D828E83C006C005C004C00311
:2029A70012155F756B6E756C0090000012055D12163B9057EC75F08012107712165DD0034B
:2029C700D004C2B58B828C83E0F582D2B5C004C003121548756BA0756C0090000012055D50
:2029E7001216469057EF75F080121077121651121195AA827871A6028A8212101178718672
:202A070082121403AA827871A602EAC454F0FAC002121195AF827871A6078F82121011785E
:202A2700718682121403AF82D002D003D004D005D0067871A607EA4207C007C006C005C0BD
:202A470004C00312163B756BA0756C0090000012055D9057EF75F08012107712165DD00334
:202A6700D004D005D006D0078F82C007C006C005C004C003121548D003D004D005D006D07E
:202A870007C2B58B828C83EFF0D2B5756BD2756C00900000C006C00512055D1216469057B8
:202AA700A575F08012107712168B9057BB75F0801210779057E175F080121077D005D00628
:202AC700787CE6700122C006C005121195AF82D005D0067871A607787D7601BF31028003EC
:202AE700022CC6787D7600756BD2756C00900000C006C00512055D12163B90562B75F080F5
:202B070012107712165D90580375F08012107712166990581575F08012107790003C12013C
:202B270087756B50756C0090000012055D12166990557F75F080121077756B6E756C0090C0
:202B4700000012055D90582775F080121077756BA0756C0090000012055D90582775F08014
:202B6700121077756BD2756C0090000012055D90582C75F080121077D005D0060DBD000116
:202B87000E8D5F8E60756B50756C00900000C006C00512055D9055E175F08012107712163A
:202BA7005D9054B475F080121077D005D0068D828E83C006C00512155F756B6E756C009000
:202BC700000012055D12163B9057EC75F08012107712165DC2B5855F82856083E0FAD2B59B
:202BE7008A82121548756BA0756C0090000012055D1216469057EF75F080121077121651B3
:202C0700121195AA827871A6028A8212101178718682121403AA827871A602EAC454F0FA36
:202C2700C002121195AF827871A6078F8212101178718682121403AF82D002D005D00678C8
:202C470071A607EA4207C007C006C00512163B756BA0756C0090000012055D9057EF75F0C7
:202C67008012107712165DD005D006D0078F82C007C006C005121548D005D006D007C2B562
:202C8700855F82856083EFF0D2B5756BD2756C00900000C006C00512055D1216469057A5DD
:202CA70075F08012107712168B9057BB75F0801210779057E175F080121077D005D0067853
:202CC70071B632028003022F12787D7600756BD2756C0090000012055D12163B90585D75AD
:202CE700F08012107712166990562B75F08012107712165D90587575F080121077121669B3
:202D070090588675F08012107790003C120187756B50756C0090000012055D1216699055CF
:202D27007F75F080121077756B6E756C0090000012055D90582775F080121077756BA075DA
:202D47006C0090000012055D90582775F080121077756BD2756C0090000012055D90582CC4
:202D670075F080121077756B3C756C0090000012055D12164690589775F080121077756B82
:202D870050756C0090000012055D9055E175F0801210771216519054B475F0801210771212
:202DA70016ACAD82AE838D038E07C007C006C005C00312163B756B3C756C009000001205A9
:202DC7005D90576A75F080121077756B50756C0090000012055D9055E175F0801210771255
:202DE700165D9054B475F080121077D003D005D0068D828E83C006C005C00312155F756BF1
:202E07006E756C0090000012055D12163B9057EC75F08012107712165DD003D005D006D0D1
:202E270007C2B58B828F83E0F582D2B5C007C006C005C003121548756BA0756C009000009B
:202E470012055D1216469057EF75F080121077121651121195AA827871A6028A8212101108
:202E670078718682121403AA827871A602EAC454F0FAC002121195AC827871A6048C82122D
:202E8700101178718682121403AC82D002D0037871A604EA4204C004C00312163B756BA0F0
:202EA700756C0090000012055D9057EF75F08012107712165DD003D0048C82C004C00312FF
:202EC7001548D003D004D005D006D007C2B58B828F83ECF0D2B5756BD2756C00900000C089
:202EE70006C00512055D1216469057A575F08012107712168B9057BB75F08012107790575A
:202F0700E175F080121077D005D0067871B63052787C7600787D7600756BD2756C00900087
:202F270000C006C00512055D12163B9058A575F08012107712166990565C75F080121077CC
:202F470012165D9058A775F08012107712166990588675F08012107790003C120187D00520
:202F6700D006787DE67003022AC7756BD2756C00900000C006C00512055D1216809058B0D1
:202F870075F080121077D005D006022AC72278807600788276007D00788376017B017884A7
:202FA7007601C005C003120DFA75820512057790D6BA120C2D121674E4F56BF56C90001E0E
:202FC70012055D9058C275F08012107712163B758202120577756B3C756C009000001205C0
:202FE7005D9058CA75F080121077756B50756C0090000012055D12166990578E75F080122B
:203007001077756B6E756C0090000012055D12163B9058D775F080121077756B82756C000C
:2030270090000012055D12166990557F75F080121077756BA0756C0090000012055D121685
:203047003B9058E875F0801210771216699058FC75F08012107790592275F08012107775EF
:203067006BFA756C0090000012055D12166990593075F080121077121646756B3C756C006C
:2030870090000012055D9058CA75F080121077756B50756C0090000012055D12168B756B4D
:2030A70050756C0090000012055D9055E175F080121077121651121195AC827871A6048C12
:2030C7008212101178718682121403AC82D0037871A604ECC454F0FCC004C003121195AEA9
:2030E700827871A6068E8212101178718682121403AE82D003D0047871A6067881EE4CF6C0
:20310700C00312163B756B3C756C0090000012055D9058CA75F080121077756B50756C0040
:2031270090000012055D12168B9055E175F08012107712165D7881868212154812164675B5
:203147006B6E756C0090000012055D9058D775F080121077756B82756C0090000012055D26
:203167009055E175F0801210771216519054B475F0801210771216AC787EA68208A6831240
:20318700163B756B6E756C0090000012055D9058D775F080121077756B82756C0090000094
:2031A70012055D9055E175F08012107712165D9054B475F080121077787E86820886831294
:2031C700155F121646756BA0756C0090000012055D9058E875F08012107712168B9058FCBC
:2031E70075F08012107790592275F080121077D003D005EB70030232B9756BFA756C009083
:203207000000C005C00312055D12166990593075F080121077756BFA756C00900000120521
:203227005D90593675F08012107712165112175C7880A682D003D0057880B601187B00C0C5
:2032470005C00312163B90593A75F080121077D003D005809E7880B602197B00C005C00309
:2032670012163B90593A75F080121077D003D0050231FA7880B604197B00C005C003121678
:203287003B90593A75F080121077D003D0050231FA7880B6FF057B000231FAC005C0031282
:2032A700168090594C75F080121077D003D0050231FA756BA0756C00900000C00512055DBF
:2032C70012163B9058E875F080121077D0057880B601749055FA75F080C0051210771216F4
:2032E7005D90595875F08012107712166990596375F08012107790597075F08012107790E9
:20330700592275F08012107712163B756BFA756C0090000012055D90593675F080121077EE
:2033270012165D7880868212154812163B90597E75F08012107712168B90599375F0801224
:203347001077D0050234927880B6026EC0051216699059A375F08012107712165D9059B2A4
:2033670075F08012107712166990597075F08012107790592275F08012107712163B756B94
:20338700FA756C0090000012055D90593675F08012107712165D7880868212154812163B53
:2033A70090597E75F08012107712168B9059BD75F080121077D0050234927880B60464C0D7
:2033C700051216699059CE75F08012107712165D9059E975F0801210771216699059227535
:2033E700F08012107712163B756BFA756C0090000012055D90593675F08012107712165D79
:203407007880868212154812163B90597E75F08012107712168B9059F575F080121077D00F
:203427000580687880B6FF6378827601C0051216699059CE75F080121077905A0775F080B6
:2034470012107712165D905A1575F08012107712163B756BFA756C0090000012055D9059BF
:203467003675F08012107712165D7880868212154812163B90597E75F08012107712168BA2
:20348700905A2175F080121077D005900028C005120187120DFA90D6BA120C2D758205121E
:2034A7000577121674E4F56BF56C90001E12055D9058C275F08012107712163B7582021290
:2034C7000577D0057884E67003023A937882E670030235B2756B3C756C00900000C00512D0
:2034E700055D1216A1905A3075F08012107712168B905A4475F08012107712163B788186C1
:2035070082121548D0058D03E4F561F562788086027E00C3E5619AE5629E40030235A9789C
:203527007EE62561FC08E63562FEC2B58C828E83E0FCD2B57881E6B5045D78837600EB7061
:2035470034C00312168B756B78756C0090000012055D905A5575F08012107712163B905677
:20356700DB75F08012107785618285628312155FD0030B8022756B78756C00900000C00387
:2035870012055D905A6A75F08012107785618285628312155FD0030561E4B56102056202E8
:2035A70035148B0578847600023A1A756B3C756C00900000C00512055D1216A1905A6F7506
:2035C700F08012107712168B905A4475F08012107712163B78818682121548D005E4F56497
:2035E700F565788086027B00C3E5649AE5659B4003023A1A787EE62564FA08E63565FB8ADF
:20360700828B83C2B5E0FBD2B57881E6B503028003023A0F78837600756B78756C00900099
:2036270000C00512055D12168B905A7F75F08012107712163B9056DB75F080121077D00539
:203647008D027B00787EE62AF58208E63BF583C00512155F756B2C756C0190003212055DCC
:20366700121669905A9475F08012107712165DD0058D03EB04F582C005121548D005E56414
:20368700456560030237BAC005788086027B00EA24FFFDEB34FFFFEDB56409EFB56505D04F
:2036A7000502373B756BB4756C0090000012055D12168B905A9B75F080121077D0057F0106
:2036C7008D63EF70030237ADC007121195AF827871A607BF31028004D0078027D007756BBA
:2036E700B4756C0090000012055D9055E175F08012107712165D905ABE75F0801210777FBC
:203707000005637871B630BA12163B756BB4756C0090000012055D9057EC75F08012107784
:2037270012165D9058A775F080121077788476007F00808E1ABAFF011BEAB5646BEBB5658F
:2037470067756BB4756C00900000C00512055D12168B905AC775F080121077D0057F01EF97
:203767006046C007C005121195AB82D005D0077871A603BB30E9C00512163B756BB4756C7C
:203787000090000012055D9057EC75F08012107712165D9058A775F080121077D00578846A
:2037A70076007F0080B9AD637884E66003023A0F023A1AC005788086037F00EB24FFFAEF22
:2037C70034FFFDEAB56406EDB565028005D005023906D005E5644565700302388F756BB46D
:2037E700756C00900000C00512055D12168B905AEB75F080121077D0057F018D63EF70036B
:203807000238F9C007C007121195AA82D0077871A602BA30028004D0078029D007756BB439
:20382700756C0090000012055D9057EC75F08012107712165D90572175F0801210777F00C1
:20384700788476007871B632B4756BB4756C0090000012055D12168B905B0E75F08012103E
:203867007712165D905B1275F0801210777F00E56424FFFAE56534FFFEEA24FFF564EE34E2
:20388700FFF5651563023804E56445657066756BB4F56C900000C00512055D12168B905AEE
:2038A700C775F080121077D0057E01EE6046C006C005121195AC82D005D0067871A604BC69
:2038C70030E9C00512163B756BB4756C0090000012055D9057EC75F08012107712165D90C1
:2038E70058A775F080121077D005788476007E0080B9AD637884E66003023A0F023A1A1B35
:20390700BBFF011FEBB56407EFB56503023A0FE56445657003023A0A756BB4756C009000B3
:2039270000C00512055D12168B905B1F75F080121077D0057F01EF7003023A0AC007C00583
:20394700121195AE82D005D0077871A606BE3128756BB4756C00900000C00512055D9055FD
:20396700E175F08012107712165D905ABE75F080121077D0057F000D7871B6323F756BB431
:20398700756C00900000C00512055D12168B905B0E75F08012107712165D905B1275F080E5
:2039A700121077D0057F00E56424FFFCE56534FFFEEC24FFF564EE34FFF5651D7871B63061
:2039C70002800302393DC00512168B756BB4756C0090000012055D905B4175F08012107748
:2039E70012165D9058A775F08012107712168B905B4D75F080121077D005788476007F00FF
:203A070002393D7884E6600B0564E4B5640205650235E97883E670030234CBC00512168026
:203A2700756B8C756C0090000012055D905B5C75F08012107712168B905B7D75F080121047
:203A470077D0057F01EF70030234CBC007C005121195AE82D005D0077871A606BE30E67532
:203A67006B8C756C00900000C00512055D905B8875F08012107712165D9058A775F08012A2
:203A87001077D0057F007884760080B990005002018778877600788976007D00788A76014D
:203AA7007B01788B7601C005C003120DFA75820512057790D6BA120C2D121674E4F56BF59E
:203AC7006C90000F12055D905B8D75F08012107712163B758202120577756B3C756C0090F3
:203AE700000012055D905B9675F080121077756B50756C0090000012055D12166990578E31
:203B070075F080121077756B6E756C0090000012055D12163B9058D775F080121077756B6D
:203B270082756C0090000012055D12166990557F75F080121077756BA0756C0090000012A1
:203B4700055D12163B9058E875F0801210771216699058FC75F08012107790592275F08068
:203B6700121077756BFA756C0090000012055D12166990593075F080121077121646756B70
:203B87003C756C0090000012055D905B9675F080121077756B50756C0090000012055D12D7
:203BA700168B756B50756C0090000012055D9055E175F080121077121651121195AC82782D
:203BC70071A6048C8212101178718682121403AC82D0037871A604ECC454F0FCC004C0035D
:203BE700121195AE827871A6068E8212101178718682121403AE82D003D0047871A6067800
:203C070088EE4CF6C00312163B756B3C756C0090000012055D905B9675F080121077756BDF
:203C270050756C0090000012055D12168B9055E175F08012107712165D7888868212154855
:203C4700121646756B6E756C0090000012055D9058D775F080121077756B82756C009000AC
:203C67000012055D9055E175F0801210771216519054B475F0801210771216AC7885A682FD
:203C870008A68312163B756B6E756C0090000012055D9058D775F080121077756B82756CD6
:203CA7000090000012055D9055E175F08012107712165D9054B475F0801210777885868215
:203CC70008868312155F121646756BA0756C0090000012055D9058E875F0801210771216FD
:203CE7008B9058FC75F08012107790592275F080121077D003D005EB7003023DBD756BFA6B
:203D0700756C00900000C005C00312055D12166990593075F080121077756BFA756C0090BC
:203D2700000012055D90593675F08012107712165112175C7887A682D003D0057887B601E8
:203D4700187B00C005C00312163B90593A75F080121077D003D005809E7887B602197B002C
:203D6700C005C00312163B90593A75F080121077D003D005023CFE7887B604197B00C005BA
:203D8700C00312163B90593A75F080121077D003D005023CFE7887B6FF057B00023CFEC041
:203DA70005C00312168090594C75F080121077D003D005023CFE756BA0756C00900000C044
:203DC7000512055D12163B9058E875F080121077D0057887B601749055FA75F080C0051218
:203DE700107712165D90595875F08012107712166990596375F08012107790597075F08058
:203E070012107790592275F08012107712163B756BFA756C0090000012055D90593675F0D3
:203E27008012107712165D7887868212154812163B90597E75F08012107712168B905993F0
:203E470075F080121077D005023F967887B6026EC0051216699059A375F080121077121684
:203E67005D9059B275F08012107712166990597075F08012107790592275F08012107712C2
:203E8700163B756BFA756C0090000012055D90593675F08012107712165D788786821215BB
:203EA7004812163B90597E75F08012107712168B9059BD75F080121077D005023F967887E9
:203EC700B60464C0051216699059CE75F08012107712165D9059E975F080121077121669CC
:203EE70090592275F08012107712163B756BFA756C0090000012055D90593675F0801210EA
:203F07007712165D7887868212154812163B90597E75F08012107712168B9059F575F0806A
:203F2700121077D00580687887B6FF6378897601C0051216699059CE75F080121077905A20
:203F47000775F08012107712165D905A1575F08012107712163B756BFA756C009000001213
:203F6700055D90593675F08012107712165D7887868212154812163B90597E75F08012106F
:203F87007712168B905A2175F080121077D005900028C005120187120DFA90D6BA120C2DF7
:203FA700758205120577121674E4F56BF56C90000F12055D905B8D75F08012107712163BC3
:203FC700758202120577D005788BE6700302456E7889E67003024094756B3C756C009000B0
:203FE70000C00512055D1216A1905A3075F08012107712168B905A4475F080121077121699
:204007003B78888682121548D0058D03E4F566F567788786027E00C3E5669AE5679E502AD6
:204027007885E62566FC08E63567FEC2B58C828E83E0FCD2B57888E6B50405788A76000B67
:204047000566E4B566CB056780C78B05756B78756C00900000C005C00312055D12168B90D9
:204067005BA575F08012107712163B9054B475F080121077D0038B82121548905BB175F0F2
:2040870080121077D005788B76000244F5756B3C756C00900000C00512055D1216A1905AFE
:2040A7006F75F08012107712168B905A4475F08012107712163BD005E4F569F56A7887864F
:2040C700027B00C3E5699AE56A9B40030244F57885E62569FA08E6356AFB8A828B83C2B5C5
:2040E700E0FBD2B57888E6B5030280030244EA788A7600756B78756C00900000C0051205E7
:204107005D12168B905A7F75F08012107712163B9056DB75F080121077D0058D027B0078A8
:2041270085E62AF58208E63BF583C00512155F756B2C756C0190003212055D121669905BE0
:20414700C075F08012107712165DD0058D03EB04F582C005121548D005E569456A6003025F
:204167004295C005788786027B00EA24FFFDEB34FFFFEDB56909EFB56A05D00502421675A8
:204187006BB4756C0090000012055D12168B905A9B75F080121077D0057F018D68EF7003B2
:2041A700024288C007121195AF827871A607BF31028004D0078027D007756BB4756C009016
:2041C700000012055D9055E175F08012107712165D905ABE75F0801210777F0005687871A0
:2041E700B630BA12163B756BB4756C0090000012055D9057EC75F08012107712165D90587E
:20420700A775F080121077788B76007F00808E1ABAFF011BEAB5696BEBB56A67756BB47590
:204227006C00900000C00512055D12168B905AC775F080121077D0057F01EF6046C007C0EF
:2042470005121195AB82D005D0077871A603BB30E9C00512163B756BB4756C00900000121C
:20426700055D9057EC75F08012107712165D9058A775F080121077D005788B76007F0080A5
:20428700B9AD68788BE660030244EA0244F5C005788786037F00EB24FFFAEF34FFFDEAB500
:2042A7006906EDB56A028005D0050243E1D005E569456A700302436A756BB4756C00900001
:2042C70000C00512055D12168B905AEB75F080121077D0057F018D68EF70030243D4C0070C
:2042E700C007121195AA82D0077871A602BA30028004D0078029D007756BB4756C009000D8
:204307000012055D9057EC75F08012107712165D90572175F0801210777F00788B76007856
:2043270071B632B4756BB4756C0090000012055D12168B905B0E75F08012107712165D90B1
:204347005B1275F0801210777F00E56924FFFAE56A34FFFEEA24FFF569EE34FFF56A156899
:204367000242DFE569456A7066756BB4F56C900000C00512055D12168B905AC775F0801227
:204387001077D0057E01EE6046C006C005121195AC82D005D0067871A604BC30E9C005124C
:2043A700163B756BB4756C0090000012055D9057EC75F08012107712165D9058A775F080E2
:2043C700121077D005788B76007E0080B9AD68788BE660030244EA0244F51BBBFF011FEB8C
:2043E700B56907EFB56A030244EAE569456A70030244E5756BB4756C00900000C0051205D4
:204407005D12168B905B1F75F080121077D0057F01EF70030244E5C007C005121195AE82A7
:20442700D005D0077871A606BE3128756BB4756C00900000C00512055D9055E175F0801222
:20444700107712165D905ABE75F080121077D0057F000D7871B6323F756BB4756C009000AD
:2044670000C00512055D12168B905B0E75F08012107712165D905B1275F080121077D005FD
:204487007F00E56924FFFCE56A34FFFEEC24FFF569EE34FFF56A1D7871B630028003024405
:2044A70018C00512168B756BB4756C0090000012055D905B4175F08012107712165D9058D5
:2044C700A775F08012107712168B905B4D75F080121077D005788B76007F00024418788B19
:2044E700E6600B0569E4B56902056A0240C4788AE67003023FCFC005121680756BA0756C44
:204507000090000012055D905B5C75F08012107712168B905B7D75F080121077D0057F01DD
:20452700EF7003023FCFC007C005121195AE82D005D0077871A606BE30E6756BA0756C0018
:20454700900000C00512055D905B8875F08012107712165D9058A775F080121077D0057FB4
:2045670000788B760080B9900050020187120DFA90D6BA120C2D758205120577121674E48A
:20458700F56BF56C90000F12055D905BC875F08012107712163B758202120577756B3C7594
:2045A7006C0090000012055D905BD175F08012107712166990578E75F080121077756B3CAA
:2045C700756C0090000012055D9057EC75F08012107712165178717600121195AF82C00716
:2045E700121011D0078F82121403E582C454F0FF7871E64F7871F6121195AF82C007121033
:2046070011D0078F82121403AF827871EF46F612163B905BE075F08012107778718682127D
:2046270000C912168B905C0D75F080121077787186821200F8905C2275F080121077E4F520
:204647006BF56C90001F12056A905C2E75F0801210777871E6F4F6121646905C5275F08075
:20466700121077787186821200C91216A1905C0D75F080121077787186821200F8121696D5
:20468700905C6875F080121077900078020187120DFA90D6BA120C2D758205120577121679
:2046A70074E4F56BF56C90001E12055D905C7B75F08012107775820212057712163B756B09
:2046C7003C756C0090000012055D905C8375F080121077756B64756C0090000012055D900C
:2046E7005C9775F080121077756B8C756C0090000012055D905CBE75F080121077756BA049
:20470700756C0090000012055D905CDF75F080121077121195AF827871A607BF3402804D23
:20472700BF3130756B3C756C0090000012055D905CF175F080121077121651905CF575F037
:204747008012107712165D905CFA75F080121077024978BF320122BF330890000512018750
:20476700800B905D0575F08012107780A57873E67015905D2675F080121077905D3B75F09E
:20478700801210770247197874E67015905D5375F080121077905D6B75F080121077024763
:2047A700197873E67015905D2675F080121077905D3B75F0801210770247197873E4B60164
:2047C7000104FF60157874B60110EF600D905D7E75F08012107778727601121195AF82789F
:2047E70071A607BF315C756B3C756C0090000012055D9055E175F080121077121651905D9D
:20480700A475F08012107712165D905DA875F080121077900028120187120DFA90D6BA123A
:204827000C2D758205120577121674E4F56BF56C90001E12055D905C7B75F0801210770264
:204847004906BF3259756B64756C0090000012055D9055E175F080121077121651905DB431
:2048670075F08012107712165D905DB875F080121077900028120187120DFA90D6BA120C62
:204887002D758205120577121674E4F56BF56C90001E12055D905C7B75F080021077BF3330
:2048A7000280030247E1756B8C756C0090000012055D9055E175F080121077121651905D47
:2048C700DB75F08012107712165D905DDF75F08012107790001E120187120DFA90D6BA1216
:2048E7000C2D758205120577121674E4F56BF56C90001E12055D905C7B75F0800210777541
:20490700820212057712163B756B3C756C0090000012055D905DFC75F080121077756B646F
:20492700756C0090000012055D905E0C75F080121077756B8C756C0090000012055D905ED4
:204947001C75F080121077756BB4756C0090000012055D905E2C75F080121077756BDC7574
:204967006C0090000012055D905E3C75F080121077121195AF827871A607BF310A758DE6B7
:2049870075870078737601BF320A758DF375870078737601BF330A758DF375878078737696
:2049A70001BF340A758DFD75870078737601BF35C0758DFD75878078737601227F019000D2
:2049C7000AC007120187850C82850D83D2B5E4F0C2B5900005120187C2B4C2B512039C128C
:2049E7000695850C82850D83D2B57489F0C2B5900028120187850C82850D83D2B5747BF022
:204A0700C2B5900028120187850C82850D83D2B574FFF0C2B5900014120187120241121583
:204A2700E3120DFA12163B756B78756C0090001E12055DD00778727600850C82850D83D284
:204A4700B574FFF0C2B5C007120DFA756B78756C0090001E12055D7582031205771216468F
:204A670012044D1217A0D007C007121195AE82D0077871A606BE4470850C82850D83D2B5F0
:204A8700E4F0C2B5756B3C756C0090000AC00712055D121651905E4D75F080121077121698
:204AA7005D9054F475F080121077900014120187D007850C82850D83D2B574A1F0C2B5EF0D
:204AC700701CC00712163B756B18756C0190003C12055D905E5175F080121077D007C007A4
:204AE700121A0FD007024A40BE4270850C82850D83D2B5E4F0C2B5756B3C756C0090008298
:204B0700C00712055D121651905E5C75F08012107712165D90550075F08012107790001486
:204B2700120187D007850C82850D83D2B57483F0C2B5EF701CC00712163B756B18756C0171
:204B470090003C12055D905E5175F080121077D007C0071222D0D007024A40BE4570850C48
:204B670082850D83D2B5E4F0C2B5756B64756C0090000AC00712055D121651905E6075F09F
:204B87008012107712165D90550C75F080121077900014120187D007850C82850D83D2B53D
:204BA7007486F0C2B5EF701CC00712163B756B18756C0190003C12055D905E5175F0801298
:204BC7001077D007C007122839D007024A40BE4670850C82850D83D2B5E4F0C2B5756B6421
:204BE700756C00900082C00712055D121651905E6475F08012107712165D90551875F080D0
:204C0700121077900014120187D007850C82850D83D2B5748EF0C2B5EF701CC00712163B22
:204C2700756B18756C0190003C12055D905E5175F080121077D007C007122F95D007024AFF
:204C470040BE4370850C82850D83D2B5E4F0C2B5756BA0756C0090000AC00712055D121644
:204C670051905E6875F08012107712165D90552475F080121077900014120187D007850C56
:204C870082850D83D2B574C6F0C2B5EF701CC00712163B756B18756C0190003C12055D90FF
:204CA7005E5175F080121077D007C007123A99D007024A40BE4170850C82850D83D2B5E4D8
:204CC700F0C2B5756BB4756C0090000AC00712055D121651905E6C75F08012107712165D46
:204CE70090553175F080121077900014120187D007850C82850D83D2B57488F0C2B5EF7093
:204D07001CC00712163B756B18756C0190003C12055D905E5175F080121077D007C00712BF
:204D27004574D007024A40BE31028003024E167872B6016B850C82850D83D2B5E4F0C2B570
:204D4700756BDC756C0090000AC00712055D121651905DA475F08012107712165D905E706F
:204D670075F080121077900014120187D007850C82850D83D2B574C1F0C2B5EF6003024EAC
:204D87000CC00712163B756B18756C0190003C12055D905E5175F080121077D007806685BD
:204DA7000C82850D83D2B5E4F0C2B5756BDC756C0090000AC00712055D121651905DA47586
:204DC700F08012107712165D905E8175F080121077900014120187D007850C82850D83D242
:204DE700B574C1F0C2B5EF701CC00712163B756B18756C0190003C12055D905E5175F08078
:204E0700121077D007C007124696D007024A40756B04756C0190002D12055D121680905E76
:204E27009375F080121077756B18756C0190003C12055D905EA275F0801210777F00900023
:204E470014C00712018712163B756B04756C0190002D12055D905EAD75F080121077D0078C
:034E6700024A6F8D
:204F8B0000000000003E5B4F5B3E3E6B4F6B3E1C3E7C3E1C183C7E3C181C577D571C1C5EB1
:204FAB007F5E1C00183C1800FFE7C3E7FF0018241800FFE7DBE7FF30483A060E2629792940
:204FCB0026407F050507407F05253F5A3CE73C5A7F3E1C1C08081C1C3E7F14227F22145F51
:204FEB005F005F5F06097F017F006689956A606060606094A2FFA29408047E040810207EFE
:20500B00201008082A1C08081C2A08081E101010100C1E0C1E0C30383E3830060E3E0E0667
:20502B00000000000000005F00000007000700147F147F14242A7F2A122313086462364932
:20504B005620500008070300001C2241000041221C002A1C7F1C2A08083E080800807030E6
:20506B00000808080808000060600020100804023E5149453E00427F4000724949494621EF
:20508B0041494D331814127F1027454545393C4A4949314121110907364949493646494914
:2050AB00291E00001400000040340000000814224114141414140041221408020159090649
:2050CB003E415D594E7C1211127C7F494949363E414141227F4141413E7F494949417F09BF
:2050EB000909013E414151737F0808087F00417F41002040413F017F081422417F404040D9
:20510B00407F021C027F7F0408107F3E4141413E7F090909063E4151215E7F0919294626A8
:20512B004949493203017F01033F4040403F1F2040201F3F4038403F631408146303047829
:20514B0004036159494D43007F4141410204081020004141417F040201020440404040409B
:20516B00000307080020545478407F284444383844444428384444287F3854545418000844
:20518B007E090218A4A49C787F0804047800447D40002040403D007F1028440000417F4027
:2051AB00007C047804787C080404783844444438FC1824241818242418FC7C08040408486C
:2051CB005454542404043F44243C4040207C1C2040201C3C4030403C44281028444C909069
:2051EB00907C4464544C4400083641000000770000004136080002010204023C2623263CA5
:20520B001EA1A161123A4040207A38545455592155557941225454784221555478402054CF
:20522B005579400C1E5272123955555559395454545939555454580000457C410002457DE2
:20524B00420001457C407D1211127DF0282528F07C545545002054547C547C0A097F4932F0
:20526B00494949323A4444443A324A4848303A4141217A3A42402078009DA0A07D3D4242D4
:20528B00423D3D4040403D3C24FF2424487E4943662B2FFC2F2BFF0929F620C0887E090322
:2052AB0020545479410000447D413048484A32384040227A007A0A0A727D0D19317D26292F
:2052CB00292F28262929292630484D4020380808080808080808382F10C8ACBA2F1028349F
:2052EB00FA00007B000008142A142222142A1408AA005500AAAA55AA55AA000000FF0010D6
:20530B001010FF00141414FF001010FF00FF1010F010F0141414FC001414F700FF0000FFA5
:20532B0000FF1414F404FC141417101F10101F101F1414141F00101010F0000000001F10C1
:20534B001010101F10101010F010000000FF101010101010101010FF10000000FF14000002
:20536B00FF00FF00001F10170000FC04F414141710171414F404F40000FF00F7141414142A
:20538B00141414F700F7141414171410101F101F141414F4141010F010F000001F101F0061
:2053AB0000001F14000000FC140000F010F01010FF10FF141414FF141010101F00000000E3
:2053CB00F010FFFFFFFFFFF0F0F0F0F0FFFFFF0000000000FFFF0F0F0F0F0F384444384495
:2053EB00FC4A4A4A347E02020606027E027E0263554941633844443C04407E201E2006023B
:20540B007E020299A5E7A5991C2A492A1C4C7201724C304A4D4D303048784830BC625A46E0
:20542B003D3E494949007E0101017E2A2A2A2A2A44445F444440514A444040444A5140000D
:20544B0000FF0103E080FF000008086B6B083612362436060F090F060000181800000010A6
:20546B0010003040FF0101001F01011E00191D1712003C3C3C3C00000000003134374632FE
:20548B0035383033363945414243444552524F5220464F554E442041743A2000467265659C
:2054AB0020547970653A200A0030780057656C636F6D650A000A2054796C6572205A6F75A5
:2054CB006368610A20204543454E2D343335300A202046616C6C2032303231003C4D656E2D
:2054EB00753E0A00203C443E002044554D500A00203C423E00204D4F56450A00203C453E8A
:20550B000020454449540A00203C463E002046494E440A00203C433E0020434F554E540A75
:20552B0000203C413E00204D454D20434845434B0A00203C313E002055415254205B4469AF
:20554B007361626C65645D002055415254205B456E61626C65645D005B44554D505D0A00A1
:20556B002041646472657373204C6F636174696F6E3A0A002030785F5F5F5F002043686F1F
:20558B006F736520426C6F636B20547970653A0A0020203C313E20425954450A20203C32B1
:2055AB003E20574F52440A20203C343E2044574F52440020496E7075742053697A653A0089
:2055CB00205F002041646472657373204C6F636174696F6E3A0020002043686F6F73652007
:2055EB00426C6F636B20547970653A000A0A002020003C313E20425954450A000A0A202008
:20560B0020202020202020202020202020200A2020202020202020202020202020202000B5
:20562B000A2020003C323E20574F52440A000A202020202020202020202020202020200AEF
:20564B0020202020202020202020202020202020000A0A2020003C343E2044574F5244009D
:20566B000A2020496E707574204572726F720A202054727920416761696E0020496E707556
:20568B00742053697A653A2000204D69736D61746368204572726F720A20547279204167C5
:2056AB0061696E00204D6174636820436F6E6669726D65640A202020202020202020202079
:2056CB0020202020200020416464726573733A00203078002048657820446174613A0020FE
:2056EB00415343494920446174613A00204461746120547970653A00204259544500205701
:20570B004F5244002044574F524400203C303E20457869740A003C303E20457869740A00FD
:20572B005B4D4F56455D0A0020536F7572636520416464726573733A002044657374696E2D
:20574B006174696F6E3A00204D6F766520436F6D706C6574650A005B454449545D0A0020C7
:20576B004564697420416464726573733A00204C6F636174696F6E20436F6E74656E7473B1
:20578B003A0A00205F5F0020456E746572204E65772056616C75653A0A002043686F6F73F7
:2057AB0065204E65787420416374696F6E3A0A0020203C313E204E6578742041646472654E
:2057CB0073730A20203C323E204E657720416464726573730A0020203C303E204578697404
:2057EB00000A200020456E746572204E65772056616C75653A0A20003C313E204E65787421
:20580B0020416464726573730A000A0A202020202020202020202020202020000A205F5FB1
:20582B00000A20203C313E204E65787420416464726573730A20203C323E204E6577204122
:20584B006464726573730A20203C303E2045786974002043686F6F7365204E657874204169
:20586B006374696F6E3A0A2020003C323E204E657720416464726573730A000A202020200C
:20588B0020202020202020202020200020456469742041646472657373000A003C303E203D
:2058AB0045786974000A0A0A0A20496E707574204572726F7220005B46494E445D0A00209E
:2058CB0046696E642056616C75653A002053656172636820416464726573733A0020496E78
:2058EB0070757420426C6F636B2053697A653A0A0020203C30313E20425954450A20203C45
:20590B0030323E20574F52440A20203C30343E2044574F52440A0020203C46463E202853CD
:20592B0043414E29002020205F5F00202020000A20202020202020202020202020202020D9
:20594B00000A2054727920616761696E003C30313E20425954450A0020203C30323E2057E7
:20596B004F52440A0020203C30343E2044574F52440A000A205365617263682053697A652A
:20598B00204C696D69743A000A2042595445205B3820626974735D0020203C30313E2042E6
:2059AB005954450A2020003C30323E20574F52440A000A20574F5244205B313620626974B7
:2059CB00735D0020203C30313E20425954450A20203C30323E20574F52440A2020003C3045
:2059EB00343E2044574F52440A000A2044574F5244205B333220626974735D003C30343EE9
:205A0B002044574F52440A2020003C46463E20285343414E29000A205B32353620426C6F96
:205A2B00636B735D00205B4E6F6E2D496E7465726163746976655D0A00205365617263688F
:205A4B002056616C75653A0A200020466F756E64206174204C6F636174696F6E3A0A000A02
:205A6B0020307800205B496E7465726163746976655D0A0020466F756E64206174204C6F07
:205A8B00636174696F6E200A00506167653A2000203C313E204E6578740A203C303E2045B9
:205AAB007869740A2020202020202020202020202020003C313E204E6578740020202020D2
:205ACB002020202020200A203C303E20457869740A202020202020202020202020202000A3
:205AEB00202020202020202020200A203C303E20457869740A203C323E2050726576696F62
:205B0B007573000A0A20003C323E2050726576696F757300203C313E204E6578740A203C45
:205B2B00303E20457869740A203C323E2050726576696F757300203C313E204E6578740A4B
:205B4B0020000A203C323E2050726576696F7573002056616C7565204E6F7420466F756EA1
:205B6B00640A2057697468696E20426C6F636B0A20000A203C303E2045786974000A0A0A38
:205B8B0020005B434F554E545D0A00205365617263682056616C75653A0020466F756E64A6
:205BAB0020696E0A20002042797465732028486578290A2000436F756E743A20005B434889
:205BCB0045434B5D0A0020456E7465722056616C75653A0A000A0A2057726974696E6720C9
:205BEB006279746520746F0A20616C6C206D656D6F72790A206C6F636174696F6E732E2E75
:205C0B002E000A20566572696679696E672077726974652E2E2E000A20436F6D706C65749B
:205C2B00652E000A0A20546F67676C696E67206269747320696E0A2065616368206E69627A
:205C4B00626C652E2E2E000A2057726974696E67206E657720627974652E2E2E000A0A2072
:205C6B00436865636B20436F6D706C6574652E005B554152545D0A00203C313E20446174B2
:205C8B00612052617465205365740A00203C323E204E756D626572206F6620426974730A90
:205CAB00202020202838206F7220392062697473290A00203C333E205061726974790A200A
:205CCB00202020284576656E2F4F64642F4E6F6E65290A00203C343E20456E61626C652016
:205CEB00554152540A0020207B003C313E20004461746520526174650A000A0A20496E634B
:205D0B006F727265637420696E7075740A202054727920616761696E2E0A00204552524F60
:205D2B00523A204E6F2042617564205365740A0020506C65617365207365742061206261B3
:205D4B007564207261746500204552524F523A204E6F7420506172697479205365740A006F
:205D6B0020506C65617365207365742070617269747900205365747474696E6773205665B9
:205D8B007269666965640A20456E61626C696E6720554152542E2E2E003C313E00204461E5
:205DAB00746120526174650A003C323E00204E756D626572206F6620426974730A20202007
:205DCB00202838206F7220392062697473290A003C333E00205061726974790A2020202009
:205DEB00284576656E2F4F64642F4E6F6E65290A00203C313E203132303020426175640A56
:205E0B0000203C323E203234303020426175640A00203C333E203438303020426175640AC0
:205E2B0000203C343E203936303020426175640A00203C353E20313932303020426175646D
:205E4B000A003C443E0020202020202020202020003C423E003C453E003C463E003C433E37
:205E6B00003C413E002055415254205B456E61626C65645D0A002055415254205B4469737C
:205E8B0061626C65645D0A00494E56414C494420494E5055540A0054727920616761696E78
:135EAB002E002020202020202020202020202020200A00CC
:204E6A007A10E4FBFCE58225E0F582E58333F583EB33FBEC33FCEB956BF5F0EC956C400696
:094E8A00FCABF0438201DADD22E9
:06005800E478FFF6D8FD7C
:200036007900E94400601B7A00905EBE780175A000E493F2A308B8000205A0D9F4DAF27554
:02005600A0FF09
:1D4E9300E582856BF0A4C582C0F0856CF0A4D0F025F0C583856BF0A42583F58322B8
:204EB000E56B456C60467A01E56B25E0F56BE56C334012F56CE582956BE583956C40030AB7
:204ED00080E6C3E56C13F56CE56B13F56BC3E582956BF5F0E583956C4005F58385F082C322
:0D4EF000E56C13F56CE56B13F56BDAE12250
:20005E007800E84400600A790175A000E4F309D8FC7800E84400600C7900900001E4F0A3A0
:04007E00D8FCD9FAD7
:0D00290075818B124F87E58260030200266F
:1C4EFD0020F71430F6148883A88220F507E6A88375830022E280F7E49322E022C4
:204F1900C2D5E58330E70DD2D5E4C39582F582E49583F583E56C30E70BE4C3956BF56BE4A7
:164F3900956CF56C124EB030D50BE4C39582F582E49583F5832215
:204F4F00C2D5E58330E70DD2D5E4C39582F582E49583F583E56C30E70DB2D5E4C3956BF537
:184F6F006BE4956CF56C124E6A30D50BE4C39582F582E49583F58322D4
:044F8700758200220D
:00000001FF
